{
  "contractName": "Lottery",
  "abi": [
    {
      "inputs": [],
      "stateMutability": "nonpayable",
      "type": "constructor"
    },
    {
      "anonymous": false,
      "inputs": [
        {
          "indexed": false,
          "internalType": "uint256",
          "name": "index",
          "type": "uint256"
        },
        {
          "indexed": false,
          "internalType": "address",
          "name": "bettor",
          "type": "address"
        },
        {
          "indexed": false,
          "internalType": "uint256",
          "name": "amount",
          "type": "uint256"
        },
        {
          "indexed": false,
          "internalType": "bytes1",
          "name": "challenges",
          "type": "bytes1"
        },
        {
          "indexed": false,
          "internalType": "uint256",
          "name": "answerBlockNumber",
          "type": "uint256"
        }
      ],
      "name": "BET",
      "type": "event"
    },
    {
      "anonymous": false,
      "inputs": [
        {
          "indexed": false,
          "internalType": "uint256",
          "name": "index",
          "type": "uint256"
        },
        {
          "indexed": false,
          "internalType": "address",
          "name": "bettor",
          "type": "address"
        },
        {
          "indexed": false,
          "internalType": "uint256",
          "name": "amount",
          "type": "uint256"
        },
        {
          "indexed": false,
          "internalType": "bytes1",
          "name": "challenges",
          "type": "bytes1"
        },
        {
          "indexed": false,
          "internalType": "bytes32",
          "name": "answer",
          "type": "bytes32"
        },
        {
          "indexed": false,
          "internalType": "uint256",
          "name": "answerBlockNumber",
          "type": "uint256"
        }
      ],
      "name": "DRAW",
      "type": "event"
    },
    {
      "anonymous": false,
      "inputs": [
        {
          "indexed": false,
          "internalType": "uint256",
          "name": "index",
          "type": "uint256"
        },
        {
          "indexed": false,
          "internalType": "address",
          "name": "bettor",
          "type": "address"
        },
        {
          "indexed": false,
          "internalType": "uint256",
          "name": "amount",
          "type": "uint256"
        },
        {
          "indexed": false,
          "internalType": "bytes1",
          "name": "challenges",
          "type": "bytes1"
        },
        {
          "indexed": false,
          "internalType": "bytes32",
          "name": "answer",
          "type": "bytes32"
        },
        {
          "indexed": false,
          "internalType": "uint256",
          "name": "answerBlockNumber",
          "type": "uint256"
        }
      ],
      "name": "FAIL",
      "type": "event"
    },
    {
      "anonymous": false,
      "inputs": [
        {
          "indexed": false,
          "internalType": "uint256",
          "name": "index",
          "type": "uint256"
        },
        {
          "indexed": false,
          "internalType": "address",
          "name": "bettor",
          "type": "address"
        },
        {
          "indexed": false,
          "internalType": "uint256",
          "name": "amount",
          "type": "uint256"
        },
        {
          "indexed": false,
          "internalType": "bytes1",
          "name": "challenges",
          "type": "bytes1"
        },
        {
          "indexed": false,
          "internalType": "uint256",
          "name": "answerBlockNumber",
          "type": "uint256"
        }
      ],
      "name": "REFUND",
      "type": "event"
    },
    {
      "anonymous": false,
      "inputs": [
        {
          "indexed": false,
          "internalType": "uint256",
          "name": "index",
          "type": "uint256"
        },
        {
          "indexed": false,
          "internalType": "address",
          "name": "bettor",
          "type": "address"
        },
        {
          "indexed": false,
          "internalType": "uint256",
          "name": "amount",
          "type": "uint256"
        },
        {
          "indexed": false,
          "internalType": "bytes1",
          "name": "challenges",
          "type": "bytes1"
        },
        {
          "indexed": false,
          "internalType": "bytes32",
          "name": "answer",
          "type": "bytes32"
        },
        {
          "indexed": false,
          "internalType": "uint256",
          "name": "answerBlockNumber",
          "type": "uint256"
        }
      ],
      "name": "WIN",
      "type": "event"
    },
    {
      "inputs": [],
      "name": "answerForTest",
      "outputs": [
        {
          "internalType": "bytes32",
          "name": "",
          "type": "bytes32"
        }
      ],
      "stateMutability": "view",
      "type": "function",
      "constant": true
    },
    {
      "inputs": [],
      "name": "owner",
      "outputs": [
        {
          "internalType": "address payable",
          "name": "",
          "type": "address"
        }
      ],
      "stateMutability": "view",
      "type": "function",
      "constant": true
    },
    {
      "inputs": [],
      "name": "getPot",
      "outputs": [
        {
          "internalType": "uint256",
          "name": "pot",
          "type": "uint256"
        }
      ],
      "stateMutability": "view",
      "type": "function",
      "constant": true
    },
    {
      "inputs": [
        {
          "internalType": "bytes1",
          "name": "challenges",
          "type": "bytes1"
        }
      ],
      "name": "betAndDistribute",
      "outputs": [
        {
          "internalType": "bool",
          "name": "result",
          "type": "bool"
        }
      ],
      "stateMutability": "payable",
      "type": "function",
      "payable": true
    },
    {
      "inputs": [
        {
          "internalType": "bytes1",
          "name": "challenges",
          "type": "bytes1"
        }
      ],
      "name": "bet",
      "outputs": [
        {
          "internalType": "bool",
          "name": "result",
          "type": "bool"
        }
      ],
      "stateMutability": "payable",
      "type": "function",
      "payable": true
    },
    {
      "inputs": [],
      "name": "destribute",
      "outputs": [],
      "stateMutability": "nonpayable",
      "type": "function"
    },
    {
      "inputs": [
        {
          "internalType": "bytes32",
          "name": "answer",
          "type": "bytes32"
        }
      ],
      "name": "setAnswerForTest",
      "outputs": [
        {
          "internalType": "bool",
          "name": "result",
          "type": "bool"
        }
      ],
      "stateMutability": "nonpayable",
      "type": "function"
    },
    {
      "inputs": [
        {
          "internalType": "bytes1",
          "name": "challenges",
          "type": "bytes1"
        },
        {
          "internalType": "bytes32",
          "name": "answer",
          "type": "bytes32"
        }
      ],
      "name": "isMatch",
      "outputs": [
        {
          "internalType": "enum Lottery.BettingResult",
          "name": "",
          "type": "uint8"
        }
      ],
      "stateMutability": "pure",
      "type": "function",
      "constant": true
    },
    {
      "inputs": [
        {
          "internalType": "uint256",
          "name": "index",
          "type": "uint256"
        }
      ],
      "name": "getBetInfo",
      "outputs": [
        {
          "internalType": "uint256",
          "name": "answerBlockNumber",
          "type": "uint256"
        },
        {
          "internalType": "address",
          "name": "bettor",
          "type": "address"
        },
        {
          "internalType": "bytes1",
          "name": "challenges",
          "type": "bytes1"
        }
      ],
      "stateMutability": "view",
      "type": "function",
      "constant": true
    }
  ],
  "bytecode": "0x608060405260016004556000600560006101000a81548160ff02191690831515021790555034801561003057600080fd5b5033600360006101000a81548173ffffffffffffffffffffffffffffffffffffffff021916908373ffffffffffffffffffffffffffffffffffffffff160217905550611c64806100816000396000f3fe6080604052600436106100865760003560e01c80638da5cb5b116100595780638da5cb5b1461015d57806399a167d714610188578063e16ea857146101c5578063e3b634f4146101f5578063f4b46f5b1461020c57610086565b8063403c9fa81461008b5780637009fa36146100b657806379141f80146100f357806384f7e4f014610132575b600080fd5b34801561009757600080fd5b506100a061023c565b6040516100ad91906113fd565b60405180910390f35b3480156100c257600080fd5b506100dd60048036038101906100d89190611453565b610246565b6040516100ea919061149b565b60405180910390f35b3480156100ff57600080fd5b5061011a600480360381019061011591906114e2565b6102e8565b6040516101299392919061158b565b60405180910390f35b34801561013e57600080fd5b506101476103e6565b60405161015491906115d1565b60405180910390f35b34801561016957600080fd5b506101726103ec565b60405161017f919061160d565b60405180910390f35b34801561019457600080fd5b506101af60048036038101906101aa9190611654565b610412565b6040516101bc919061170b565b60405180910390f35b6101df60048036038101906101da9190611726565b610b07565b6040516101ec919061149b565b60405180910390f35b34801561020157600080fd5b5061020a610b24565b005b61022660048036038101906102219190611726565b610f83565b604051610233919061149b565b60405180910390f35b6000600454905090565b6000600360009054906101000a900473ffffffffffffffffffffffffffffffffffffffff1673ffffffffffffffffffffffffffffffffffffffff163373ffffffffffffffffffffffffffffffffffffffff16146102d8576040517f08c379a00000000000000000000000000000000000000000000000000000000081526004016102cf906117d6565b60405180910390fd5b8160068190555060019050919050565b60008060008060026000868152602001908152602001600020604051806060016040529081600082015481526020016001820160009054906101000a900473ffffffffffffffffffffffffffffffffffffffff1673ffffffffffffffffffffffffffffffffffffffff1673ffffffffffffffffffffffffffffffffffffffff1681526020016001820160149054906101000a900460f81b7effffffffffffffffffffffffffffffffffffffffffffffffffffffffffffff19167effffffffffffffffffffffffffffffffffffffffffffffffffffffffffffff1916815250509050806000015193508060200151925080604001519150509193909250565b60065481565b600360009054906101000a900473ffffffffffffffffffffffffffffffffffffffff1681565b600080600267ffffffffffffffff8111156104305761042f6117f6565b5b6040519080825280601f01601f1916602001820160405280156104625781602001600182028036833780820191505090505b50905060048460006001811061047b5761047a611825565b5b1a60f81b7effffffffffffffffffffffffffffffffffffffffffffffffffffffffffffff1916901c816000815181106104b7576104b6611825565b5b60200101907effffffffffffffffffffffffffffffffffffffffffffffffffffffffffffff1916908160001a9053506004846000600181106104fc576104fb611825565b5b1a60f81b7effffffffffffffffffffffffffffffffffffffffffffffffffffffffffffff1916901b8160008151811061053857610537611825565b5b60200101907effffffffffffffffffffffffffffffffffffffffffffffffffffffffffffff1916908160001a90535060048460006001811061057d5761057c611825565b5b1a60f81b7effffffffffffffffffffffffffffffffffffffffffffffffffffffffffffff1916901b816001815181106105b9576105b8611825565b5b60200101907effffffffffffffffffffffffffffffffffffffffffffffffffffffffffffff1916908160001a9053506004846000600181106105fe576105fd611825565b5b1a60f81b7effffffffffffffffffffffffffffffffffffffffffffffffffffffffffffff1916901c8160018151811061063a57610639611825565b5b60200101907effffffffffffffffffffffffffffffffffffffffffffffffffffffffffffff1916908160001a9053506000600267ffffffffffffffff811115610686576106856117f6565b5b6040519080825280601f01601f1916602001820160405280156106b85781602001600182028036833780820191505090505b5090506004846000602081106106d1576106d0611825565b5b1a60f81b7effffffffffffffffffffffffffffffffffffffffffffffffffffffffffffff1916901c8160008151811061070d5761070c611825565b5b60200101907effffffffffffffffffffffffffffffffffffffffffffffffffffffffffffff1916908160001a90535060048460006020811061075257610751611825565b5b1a60f81b7effffffffffffffffffffffffffffffffffffffffffffffffffffffffffffff1916901b8160008151811061078e5761078d611825565b5b60200101907effffffffffffffffffffffffffffffffffffffffffffffffffffffffffffff1916908160001a9053506004846000602081106107d3576107d2611825565b5b1a60f81b7effffffffffffffffffffffffffffffffffffffffffffffffffffffffffffff1916901b8160018151811061080f5761080e611825565b5b60200101907effffffffffffffffffffffffffffffffffffffffffffffffffffffffffffff1916908160001a90535060048460006020811061085457610853611825565b5b1a60f81b7effffffffffffffffffffffffffffffffffffffffffffffffffffffffffffff1916901c816001815181106108905761088f611825565b5b60200101907effffffffffffffffffffffffffffffffffffffffffffffffffffffffffffff1916908160001a905350816000815181106108d3576108d2611825565b5b602001015160f81c60f81b7effffffffffffffffffffffffffffffffffffffffffffffffffffffffffffff19168160008151811061091457610913611825565b5b602001015160f81c60f81b7effffffffffffffffffffffffffffffffffffffffffffffffffffffffffffff19161480156109cd57508160018151811061095d5761095c611825565b5b602001015160f81c60f81b7effffffffffffffffffffffffffffffffffffffffffffffffffffffffffffff19168160018151811061099e5761099d611825565b5b602001015160f81c60f81b7effffffffffffffffffffffffffffffffffffffffffffffffffffffffffffff1916145b156109dd57600192505050610b01565b816000815181106109f1576109f0611825565b5b602001015160f81c60f81b7effffffffffffffffffffffffffffffffffffffffffffffffffffffffffffff191681600081518110610a3257610a31611825565b5b602001015160f81c60f81b7effffffffffffffffffffffffffffffffffffffffffffffffffffffffffffff19161480610aea575081600181518110610a7a57610a79611825565b5b602001015160f81c60f81b7effffffffffffffffffffffffffffffffffffffffffffffffffffffffffffff191681600181518110610abb57610aba611825565b5b602001015160f81c60f81b7effffffffffffffffffffffffffffffffffffffffffffffffffffffffffffff1916145b15610afa57600292505050610b01565b6000925050505b92915050565b6000610b1282610f83565b50610b1b610b24565b60019050919050565b600080610b2f61138b565b60008060015494505b600054851015610f755760026000868152602001908152602001600020604051806060016040529081600082015481526020016001820160009054906101000a900473ffffffffffffffffffffffffffffffffffffffff1673ffffffffffffffffffffffffffffffffffffffff1673ffffffffffffffffffffffffffffffffffffffff1681526020016001820160149054906101000a900460f81b7effffffffffffffffffffffffffffffffffffffffffffffffffffffffffffff19167effffffffffffffffffffffffffffffffffffffffffffffffffffffffffffff1916815250509250610c2a8360000151611078565b915060006002811115610c4057610c3f611694565b5b826002811115610c5357610c52611694565b5b03610e9d576000610c6784600001516110da565b9050610c838460400151610c7e86600001516110da565b610412565b915060016002811115610c9957610c98611694565b5b826002811115610cac57610cab611694565b5b03610d4157610cd384602001516611c37937e08000600454610cce9190611883565b611102565b5060006004819055507f49e11ebc60d9fc823bbe051618524f52ab69499742227b148f9f05b6f81a70f586856020015187876040015185600060208110610d1d57610d1c611825565b5b1a60f81b8960000151604051610d3896959493929190611937565b60405180910390a15b60006002811115610d5557610d54611694565b5b826002811115610d6857610d67611694565b5b03610df3576611c37937e0800060046000828254610d869190611883565b925050819055507fbd6da38a406f7b4bead722d88ea3380fd77a678afe56109221cea5aa3dac876c8685602001516000876040015185600060208110610dcf57610dce611825565b5b1a60f81b8960000151604051610dea969594939291906119d3565b60405180910390a15b60006002811115610e0757610e06611694565b5b826002811115610e1a57610e19611694565b5b03610e9b57610e3484602001516611c37937e08000611102565b94507f24c7ccff6d37d4e2dc338b88a6bb7378adb9974435bb07841cc8163319ac052586856020015187876040015185600060208110610e7757610e76611825565b5b1a60f81b8960000151604051610e9296959493929190611937565b60405180910390a15b505b60016002811115610eb157610eb0611694565b5b826002811115610ec457610ec3611694565b5b0315610f7557600280811115610edd57610edc611694565b5b826002811115610ef057610eef611694565b5b03610f5857610f0a83602001516611c37937e08000611102565b93507f59c0185881271a0f53d43e6ab9310091408f9e0ff9ae2512613de800f26b8de48584602001518686604001518760000151604051610f4f959493929190611a34565b60405180910390a15b610f61856111d4565b508480610f6d90611a87565b955050610b38565b846001819055505050505050565b60006611c37937e080003414610fce576040517f08c379a0000000000000000000000000000000000000000000000000000000008152600401610fc590611b1b565b60405180910390fd5b610fd782611238565b611016576040517f08c379a000000000000000000000000000000000000000000000000000000000815260040161100d90611b87565b60405180910390fd5b7f100791de9f40bf2d56ffa6dc5597d2fd0b2703ea70bc7548cd74c04f5d215ab760016000546110469190611ba7565b3334856003436110569190611883565b604051611067959493929190611bdb565b60405180910390a160019050919050565b60008143118015611095575081610100436110939190611ba7565b105b156110a357600090506110d5565b8143116110b357600190506110d5565b610100826110c19190611883565b43106110d057600290506110d5565b600290505b919050565b6000600560009054906101000a900460ff166110f8576006546110fb565b81405b9050919050565b60008060009050600081846111179190611ba7565b90508473ffffffffffffffffffffffffffffffffffffffff166108fc829081150290604051600060405180830381858888f1935050505015801561115f573d6000803e3d6000fd5b50600360009054906101000a900473ffffffffffffffffffffffffffffffffffffffff1673ffffffffffffffffffffffffffffffffffffffff166108fc839081150290604051600060405180830381858888f193505050501580156111c8573d6000803e3d6000fd5b50809250505092915050565b6000600260008381526020019081526020016000206000808201600090556001820160006101000a81549073ffffffffffffffffffffffffffffffffffffffff02191690556001820160146101000a81549060ff0219169055505060019050919050565b600061124261138b565b33816020019073ffffffffffffffffffffffffffffffffffffffff16908173ffffffffffffffffffffffffffffffffffffffff16815250506003436112879190611883565b8160000181815250508281604001907effffffffffffffffffffffffffffffffffffffffffffffffffffffffffffff191690817effffffffffffffffffffffffffffffffffffffffffffffffffffffffffffff1916815250508060026000805481526020019081526020016000206000820151816000015560208201518160010160006101000a81548173ffffffffffffffffffffffffffffffffffffffff021916908373ffffffffffffffffffffffffffffffffffffffff16021790555060408201518160010160146101000a81548160ff021916908360f81c021790555090505060008081548092919061137c90611a87565b91905055506001915050919050565b604051806060016040528060008152602001600073ffffffffffffffffffffffffffffffffffffffff16815260200160007effffffffffffffffffffffffffffffffffffffffffffffffffffffffffffff191681525090565b6000819050919050565b6113f7816113e4565b82525050565b600060208201905061141260008301846113ee565b92915050565b600080fd5b6000819050919050565b6114308161141d565b811461143b57600080fd5b50565b60008135905061144d81611427565b92915050565b60006020828403121561146957611468611418565b5b60006114778482850161143e565b91505092915050565b60008115159050919050565b61149581611480565b82525050565b60006020820190506114b0600083018461148c565b92915050565b6114bf816113e4565b81146114ca57600080fd5b50565b6000813590506114dc816114b6565b92915050565b6000602082840312156114f8576114f7611418565b5b6000611506848285016114cd565b91505092915050565b600073ffffffffffffffffffffffffffffffffffffffff82169050919050565b600061153a8261150f565b9050919050565b61154a8161152f565b82525050565b60007fff0000000000000000000000000000000000000000000000000000000000000082169050919050565b61158581611550565b82525050565b60006060820190506115a060008301866113ee565b6115ad6020830185611541565b6115ba604083018461157c565b949350505050565b6115cb8161141d565b82525050565b60006020820190506115e660008301846115c2565b92915050565b60006115f78261150f565b9050919050565b611607816115ec565b82525050565b600060208201905061162260008301846115fe565b92915050565b61163181611550565b811461163c57600080fd5b50565b60008135905061164e81611628565b92915050565b6000806040838503121561166b5761166a611418565b5b60006116798582860161163f565b925050602061168a8582860161143e565b9150509250929050565b7f4e487b7100000000000000000000000000000000000000000000000000000000600052602160045260246000fd5b600381106116d4576116d3611694565b5b50565b60008190506116e5826116c3565b919050565b60006116f5826116d7565b9050919050565b611705816116ea565b82525050565b600060208201905061172060008301846116fc565b92915050565b60006020828403121561173c5761173b611418565b5b600061174a8482850161163f565b91505092915050565b600082825260208201905092915050565b7f4f6e6c79206f776e65722063616e2073657420616e7377657220666f7220746560008201527f7374206d6f646500000000000000000000000000000000000000000000000000602082015250565b60006117c0602783611753565b91506117cb82611764565b604082019050919050565b600060208201905081810360008301526117ef816117b3565b9050919050565b7f4e487b7100000000000000000000000000000000000000000000000000000000600052604160045260246000fd5b7f4e487b7100000000000000000000000000000000000000000000000000000000600052603260045260246000fd5b7f4e487b7100000000000000000000000000000000000000000000000000000000600052601160045260246000fd5b600061188e826113e4565b9150611899836113e4565b92508282019050808211156118b1576118b0611854565b5b92915050565b6000819050919050565b60006118dc6118d76118d28461150f565b6118b7565b61150f565b9050919050565b60006118ee826118c1565b9050919050565b6000611900826118e3565b9050919050565b611910816118f5565b82525050565b600061192182611550565b9050919050565b61193181611916565b82525050565b600060c08201905061194c60008301896113ee565b6119596020830188611907565b61196660408301876113ee565b611973606083018661157c565b6119806080830185611928565b61198d60a08301846113ee565b979650505050505050565b6000819050919050565b60006119bd6119b86119b384611998565b6118b7565b6113e4565b9050919050565b6119cd816119a2565b82525050565b600060c0820190506119e860008301896113ee565b6119f56020830188611907565b611a0260408301876119c4565b611a0f606083018661157c565b611a1c6080830185611928565b611a2960a08301846113ee565b979650505050505050565b600060a082019050611a4960008301886113ee565b611a566020830187611907565b611a6360408301866113ee565b611a70606083018561157c565b611a7d60808301846113ee565b9695505050505050565b6000611a92826113e4565b91507fffffffffffffffffffffffffffffffffffffffffffffffffffffffffffffffff8203611ac457611ac3611854565b5b600182019050919050565b7f4e6f7420656e6f75676820455448000000000000000000000000000000000000600082015250565b6000611b05600e83611753565b9150611b1082611acf565b602082019050919050565b60006020820190508181036000830152611b3481611af8565b9050919050565b7f4661696c20746f20616464206164206e65772062657420496e666f0000000000600082015250565b6000611b71601b83611753565b9150611b7c82611b3b565b602082019050919050565b60006020820190508181036000830152611ba081611b64565b9050919050565b6000611bb2826113e4565b9150611bbd836113e4565b9250828203905081811115611bd557611bd4611854565b5b92915050565b600060a082019050611bf060008301886113ee565b611bfd6020830187611541565b611c0a60408301866113ee565b611c17606083018561157c565b611c2460808301846113ee565b969550505050505056fea2646970667358221220b553ab7a7aee2888e6cf8d1e579798fbe6288b7133a20a068c30e178b35135b164736f6c63430008120033",
  "immutableReferences": {},
  "source": "//SPDX-License-Identifier: MIT\npragma solidity ^0.8.0 ;\n\ncontract Lottery {\n\n    struct BetInfo {\n        uint256 answerBlockNumber;\n        address payable bettor;\n        bytes1 challenges;\n    }\n\n    uint256 private _tail;\n    uint256 private _head;\n    mapping (uint256 => BetInfo) private _bets;\n    address payable public owner;\n\n    uint256 constant internal BLOCK_LIMIT = 256;\n    uint256 constant internal BET_BLOCK_INTERVAL = 3;\n    uint256 constant internal BET_AMOUNT = 5 * 10 ** 15; // 0.005\n    uint256 private _pot=1;\n    bool private mode = false; // false : testmode\n    bytes32 public answerForTest;\n\n    enum BlockStatus {Checkable, NotRevealed, BlockLimitPassed}\n    enum BettingResult {Fail, Win, Draw}\n    event BET(uint256 index, address bettor, uint256 amount, bytes1 challenges, uint256 answerBlockNumber);\n    event WIN(uint256 index, address bettor, uint256 amount, bytes1 challenges, bytes32 answer, uint256 answerBlockNumber);\n    event FAIL(uint256 index, address bettor, uint256 amount, bytes1 challenges, bytes32 answer, uint256 answerBlockNumber);\n    event DRAW(uint256 index, address bettor, uint256 amount, bytes1 challenges, bytes32 answer, uint256 answerBlockNumber);\n    event REFUND(uint256 index, address bettor, uint256 amount, bytes1 challenges, uint256 answerBlockNumber);\n\n    constructor() {\n        owner = payable(msg.sender);// solidity    \n    }\n\n    function getPot() public view returns(uint256 pot){\n        return _pot;\n    }\n    \n\n     /**\n     * @dev   .  0.005 ETH  ,  1byte  .\n     *      distribute  .\n     * @param challenges -   .\n     * @return result      bool \n     */\n\n    function betAndDistribute(bytes1 challenges) public payable returns(bool result){\n        bet(challenges);\n        destribute();\n        return true;\n    }\n\n    /**\n     * @dev  .  0.005 ETH  ,  1byte  .\n     *      distribute  .\n     * @param challenges -   .\n     * @return result      bool \n     */\n    //Bet :save the bet \n    function bet (bytes1 challenges) public payable returns (bool result){\n        //check the proper ether is sent\n        require(msg.value == BET_AMOUNT, \"Not enough ETH\");\n        //push bet to the queue\n        require(pushBet(challenges), \"Fail to add ad new bet Info\");\n        // emit event\n        emit BET(_tail - 1, msg.sender, msg.value, challenges, block.number + BET_BLOCK_INTERVAL);\n        return true;\n    } \n\n\n    /**\n     * @dev     .\n     *   :  ,   :  ,  or  :  \n     */\n    //Distribute :  \n    function destribute () public {\n        uint256 cur;\n        uint256 transferAmount;\n\n        BetInfo memory b;\n        BlockStatus currentBlockStatus;\n        BettingResult currentBettingResult;\n        for (cur=_head; cur < _tail; cur++){\n            b = _bets[cur];\n            currentBlockStatus = getBlockStatus(b.answerBlockNumber);\n            // checkalbe : block.number > AnswerBlockNumber &&  block.number - BLOCK_LIMIT <  AnswerBlockNumber\n            if(currentBlockStatus == BlockStatus.Checkable){\n                bytes32 answerBlockHash = getAnswerBlockHash(b.answerBlockNumber);\n                currentBettingResult = isMatch(b.challenges, getAnswerBlockHash(b.answerBlockNumber));\n                // if win: bettor gets pot\n                if(currentBettingResult == BettingResult.Win){\n                    //transfer pot\n                    transferAfterPayingFee(b.bettor, _pot + BET_AMOUNT);\n                    //pot=0\n                    _pot = 0;\n                    //emit event WiN\n                    emit WIN(cur, b.bettor, transferAmount, b.challenges, answerBlockHash[0], b.answerBlockNumber);\n\n                }\n\n                // if fail: bettor's money goes pot\n                if(currentBettingResult == BettingResult.Fail){\n                    //pot = pot + BET_AMOUNT\n                    _pot += BET_AMOUNT;\n                    //emit event Fail\n                    emit FAIL(cur, b.bettor, 0, b.challenges,  answerBlockHash[0], b.answerBlockNumber);\n                }\n\n                // if draw: refund bettor's money\n                if(currentBettingResult == BettingResult.Fail){\n                    //transfer only BET_AMOUNT\n                    transferAmount = transferAfterPayingFee(b.bettor, BET_AMOUNT);\n                    //emit event Draw\n                    emit DRAW(cur, b.bettor, transferAmount, b.challenges,  answerBlockHash[0], b.answerBlockNumber);\n                }\n            }\n            // not revealed : block.number <= AnswerBlockNumber\n            if(currentBlockStatus == BlockStatus.NotRevealed){\n                break;\n            }\n            // Block Limit Passed : block.number >= AnswerBlockNumber + BLOCK_LIMIT\n            if(currentBlockStatus == BlockStatus.BlockLimitPassed){\n                // refund\n                transferAmount = transferAfterPayingFee(b.bettor, BET_AMOUNT);\n                // emit refund\n                emit REFUND(cur, b.bettor, transferAmount, b.challenges, b.answerBlockNumber);\n            }\n            popBet(cur);\n        }\n        _head =  cur;\n    }\n\n    function transferAfterPayingFee(address payable addr, uint256 amount) internal returns (uint256){\n        // uint256 fee =  amount/100;\n        uint256 fee = 0;\n        uint256 amountWithFee = amount - fee;\n\n        //transfer to addr\n        addr.transfer(amountWithFee);\n        //transfer to owner\n        owner.transfer(fee);\n        return amountWithFee;\n    }\n    function setAnswerForTest (bytes32 answer) public returns(bool result){\n        require(msg.sender == owner, \"Only owner can set answer for test mode\");\n        answerForTest = answer;\n        return true;\n    }\n    function getAnswerBlockHash(uint256 answerBlockNumber) internal view returns(bytes32 answer){\n        return mode ? blockhash(answerBlockNumber) : answerForTest;\n    }\n\n    /**\n     * @dev   .\n     * @param challenges   \n     * @param answer   \n     * @return \n     */\n    function isMatch (bytes1 challenges, bytes32 answer) public pure returns (BettingResult){\n        // challenges 0xab\n        // answer 0xab ... ff 32bytes\n        bytes memory C = new bytes(2);\n        \n        C[0] = challenges[0] >> 4;\n        C[0] = challenges[0] << 4;\n        C[1] = challenges[0] << 4;\n        C[1] = challenges[0] >> 4;\n\n        bytes memory A = new bytes(2);\n\n        A[0] = answer[0] >> 4;\n        A[0] = answer[0] << 4;\n        A[1] = answer[0] << 4;\n        A[1] = answer[0] >> 4;\n        \n         if (A[0] == C[0] && A[1] == C[1]) {\n            return BettingResult.Win;\n        }\n        if (A[0] == C[0] || A[1] == C[1]) {\n            return BettingResult.Draw;\n        }\n        return BettingResult.Fail;\n    }\n\n    function getBlockStatus(uint256 answerBlockNumber) internal view returns(BlockStatus) {\n        if(block.number > answerBlockNumber &&  block.number - BLOCK_LIMIT <  answerBlockNumber){\n            return BlockStatus.Checkable;\n        }\n        if(block.number <= answerBlockNumber){\n            return BlockStatus.NotRevealed;\n        }\n        if(block.number >= answerBlockNumber + BLOCK_LIMIT){\n            return BlockStatus.BlockLimitPassed;\n        }\n        return BlockStatus.BlockLimitPassed;\n    }\n\n\n    function getBetInfo ( uint256 index) public view returns (uint256 answerBlockNumber, address bettor, bytes1 challenges){\n        BetInfo memory b = _bets[index];\n        answerBlockNumber = b.answerBlockNumber;\n        bettor = b.bettor;\n        challenges = b.challenges;\n    }\n\n    function pushBet (bytes1 challenges) internal returns(bool){\n        BetInfo memory b;\n        b.bettor = payable(msg.sender);\n        b.answerBlockNumber = block.number + BET_BLOCK_INTERVAL;\n        b.challenges = challenges;\n\n        _bets[_tail] = b;\n        _tail ++;\n        return true;\n    }\n\n    function popBet(uint256 index) internal returns (bool){\n        //  .\n        delete _bets[index];\n        return true;\n    }\n} ",
  "sourcePath": "/Users/baek/workspace/2304/0529_inflearn/contracts/lottery.sol",
  "compiler": {
    "name": "solc",
    "version": "0.8.18+commit.87f61d96.Emscripten.clang"
  },
  "schemaVersion": "3.4.14",
  "updatedAt": "2023-06-04T06:52:37.998Z",
  "networkType": "ethereum",
  "devdoc": {
    "kind": "dev",
    "methods": {
      "bet(bytes1)": {
        "details": " .  0.005 ETH  ,  1byte  .      distribute  .",
        "params": {
          "challenges": "-   ."
        },
        "returns": {
          "result": "     bool "
        }
      },
      "betAndDistribute(bytes1)": {
        "details": "  .  0.005 ETH  ,  1byte  .      distribute  .",
        "params": {
          "challenges": "-   ."
        },
        "returns": {
          "result": "     bool "
        }
      },
      "destribute()": {
        "details": "    .   :  ,   :  ,  or  :  "
      },
      "isMatch(bytes1,bytes32)": {
        "details": "  .",
        "params": {
          "answer": "  ",
          "challenges": "  "
        },
        "returns": {
          "_0": ""
        }
      }
    },
    "version": 1
  },
  "userdoc": {
    "kind": "user",
    "methods": {},
    "version": 1
  }
}