{
  "contractName": "EthSwap",
  "abi": [
    {
      "inputs": [
        {
          "internalType": "contract ERC20",
          "name": "_token",
          "type": "address"
        }
      ],
      "stateMutability": "nonpayable",
      "type": "constructor"
    },
    {
      "inputs": [],
      "name": "token",
      "outputs": [
        {
          "internalType": "contract ERC20",
          "name": "",
          "type": "address"
        }
      ],
      "stateMutability": "view",
      "type": "function",
      "constant": true
    },
    {
      "inputs": [],
      "name": "get",
      "outputs": [
        {
          "internalType": "uint256",
          "name": "",
          "type": "uint256"
        }
      ],
      "stateMutability": "view",
      "type": "function",
      "constant": true
    }
  ],
  "bytecode": "0x608060405234801561001057600080fd5b5060405161038e38038061038e8339818101604052810190610032919061008d565b806000806101000a81548173ffffffffffffffffffffffffffffffffffffffff021916908373ffffffffffffffffffffffffffffffffffffffff16021790555050610111565b600081519050610087816100fa565b92915050565b60006020828403121561009f57600080fd5b60006100ad84828501610078565b91505092915050565b60006100c1826100da565b9050919050565b60006100d3826100b6565b9050919050565b600073ffffffffffffffffffffffffffffffffffffffff82169050919050565b610103816100c8565b811461010e57600080fd5b50565b61026e806101206000396000f3fe608060405234801561001057600080fd5b50600436106100365760003560e01c80636d4ce63c1461003b578063fc0c546a14610059575b600080fd5b610043610077565b60405161005091906101b8565b60405180910390f35b61006161011d565b60405161006e919061019d565b60405180910390f35b60008060009054906101000a900473ffffffffffffffffffffffffffffffffffffffff1673ffffffffffffffffffffffffffffffffffffffff166318160ddd6040518163ffffffff1660e01b815260040160206040518083038186803b1580156100e057600080fd5b505afa1580156100f4573d6000803e3d6000fd5b505050506040513d601f19601f820116820180604052508101906101189190610156565b905090565b60008054906101000a900473ffffffffffffffffffffffffffffffffffffffff1681565b60008151905061015081610221565b92915050565b60006020828403121561016857600080fd5b600061017684828501610141565b91505092915050565b610188816101fd565b82525050565b610197816101f3565b82525050565b60006020820190506101b2600083018461017f565b92915050565b60006020820190506101cd600083018461018e565b92915050565b600073ffffffffffffffffffffffffffffffffffffffff82169050919050565b6000819050919050565b60006102088261020f565b9050919050565b600061021a826101d3565b9050919050565b61022a816101f3565b811461023557600080fd5b5056fea2646970667358221220f6c22edb2ca7c6af41abeeb0204126e43e1632cb5244db2899a428f1f291385564736f6c63430008000033",
  "immutableReferences": {},
  "source": "//SPDX-License-Identifier: MIT\npragma solidity ^0.8.0 ;\nimport \"../node_modules/@openzeppelin/contracts/token/ERC20/ERC20.sol\";\n\ncontract EthSwap {\n    //_token :IngToken  CA\n    // ERC20       .\n    ERC20 public token;\n    constructor(ERC20 _token){\n        token = _token;\n    }   \n    function get() public view returns(uint256){\n        return token.totalSupply();\n    }\n}",
  "sourcePath": "/Users/baek/workspace/2304/0531/contracts/EthSwap.sol",
  "compiler": {
    "name": "solc",
    "version": "0.8.0+commit.c7dfd78e.Emscripten.clang"
  },
  "schemaVersion": "3.4.14",
  "updatedAt": "2023-05-31T05:37:31.187Z",
  "networkType": "ethereum",
  "devdoc": {
    "kind": "dev",
    "methods": {},
    "version": 1
  },
  "userdoc": {
    "kind": "user",
    "methods": {},
    "version": 1
  }
}