{
  "contractName": "Lottery",
  "abi": [
    {
      "inputs": [],
      "stateMutability": "nonpayable",
      "type": "constructor"
    },
    {
      "inputs": [],
      "name": "owner",
      "outputs": [
        {
          "internalType": "address",
          "name": "",
          "type": "address"
        }
      ],
      "stateMutability": "view",
      "type": "function",
      "constant": true
    },
    {
      "inputs": [],
      "name": "getSomValue",
      "outputs": [
        {
          "internalType": "uint256",
          "name": "value",
          "type": "uint256"
        }
      ],
      "stateMutability": "pure",
      "type": "function",
      "constant": true
    }
  ],
  "bytecode": "0x608060405234801561001057600080fd5b50336000806101000a81548173ffffffffffffffffffffffffffffffffffffffff021916908373ffffffffffffffffffffffffffffffffffffffff16021790555061016a806100606000396000f3fe608060405234801561001057600080fd5b50600436106100365760003560e01c806326303bfc1461003b5780638da5cb5b14610059575b600080fd5b610043610077565b60405161005091906100bd565b60405180910390f35b610061610080565b60405161006e9190610119565b60405180910390f35b60006005905090565b60008054906101000a900473ffffffffffffffffffffffffffffffffffffffff1681565b6000819050919050565b6100b7816100a4565b82525050565b60006020820190506100d260008301846100ae565b92915050565b600073ffffffffffffffffffffffffffffffffffffffff82169050919050565b6000610103826100d8565b9050919050565b610113816100f8565b82525050565b600060208201905061012e600083018461010a565b9291505056fea26469706673582212201fb925cf7d6e41e3794cfd65d19a98e5dde549160442d3ce9a7611827b0d528b64736f6c63430008120033",
  "immutableReferences": {},
  "source": "//SPDX-License-Identifier: MIT\npragma solidity ^0.8.0 ;\n\ncontract Lottery {\n    address public owner;\n\n    constructor() public {\n        owner = msg.sender;// solidity에서 기본적으로 제공하는 전역변수 \n    }\n    function getSomValue() public pure returns(uint256 value){\n        return 5;\n    }\n}",
  "sourcePath": "/Users/baek/workspace/2304/0529_inflearn/contracts/lottery.sol",
  "compiler": {
    "name": "solc",
    "version": "0.8.18+commit.87f61d96.Emscripten.clang"
  },
  "schemaVersion": "3.4.14",
  "updatedAt": "2023-05-30T15:28:59.775Z",
  "networkType": "ethereum",
  "devdoc": {
    "kind": "dev",
    "methods": {},
    "version": 1
  },
  "userdoc": {
    "kind": "user",
    "methods": {},
    "version": 1
  }
}