{
  "contractName": "Lottery",
  "abi": [
    {
      "inputs": [],
      "stateMutability": "nonpayable",
      "type": "constructor"
    },
    {
      "inputs": [],
      "name": "owner",
      "outputs": [
        {
          "internalType": "address",
          "name": "",
          "type": "address"
        }
      ],
      "stateMutability": "view",
      "type": "function",
      "constant": true
    },
    {
      "inputs": [],
      "name": "getSomValue",
      "outputs": [
        {
          "internalType": "uint256",
          "name": "value",
          "type": "uint256"
        }
      ],
      "stateMutability": "pure",
      "type": "function",
      "constant": true
    }
  ],
  "bytecode": "0x608060405234801561001057600080fd5b50336000806101000a81548173ffffffffffffffffffffffffffffffffffffffff021916908373ffffffffffffffffffffffffffffffffffffffff160217905550610166806100606000396000f3fe608060405234801561001057600080fd5b50600436106100365760003560e01c806326303bfc1461003b5780638da5cb5b14610059575b600080fd5b610043610077565b60405161005091906100b9565b60405180910390f35b61006161007c565b60405161006e9190610115565b60405180910390f35b600090565b60008054906101000a900473ffffffffffffffffffffffffffffffffffffffff1681565b6000819050919050565b6100b3816100a0565b82525050565b60006020820190506100ce60008301846100aa565b92915050565b600073ffffffffffffffffffffffffffffffffffffffff82169050919050565b60006100ff826100d4565b9050919050565b61010f816100f4565b82525050565b600060208201905061012a6000830184610106565b9291505056fea26469706673582212202fe60927f8ed2558c04eb602a216bf53da011a714fbde4e4e479c5dee027fa7364736f6c63430008120033",
  "immutableReferences": {},
  "source": "//SPDX-License-Identifier: MIT\npragma solidity ^0.8.0 ;\n\ncontract Lottery {\n    address public owner;\n\n    constructor() public {\n        owner = msg.sender;\n    }\n    function getSomValue() public pure returns(uint256 value){\n\n    }\n}",
  "sourcePath": "/Users/baek/workspace/2304/0530/contracts/lottery.sol",
  "compiler": {
    "name": "solc",
    "version": "0.8.18+commit.87f61d96.Emscripten.clang"
  },
  "schemaVersion": "3.4.14",
  "updatedAt": "2023-05-29T07:59:48.299Z",
  "networkType": "ethereum",
  "devdoc": {
    "kind": "dev",
    "methods": {},
    "version": 1
  },
  "userdoc": {
    "kind": "user",
    "methods": {},
    "version": 1
  }
}