{
  "contractName": "Lottery",
  "abi": [
    {
      "inputs": [],
      "stateMutability": "nonpayable",
      "type": "constructor"
    },
    {
      "anonymous": false,
      "inputs": [
        {
          "indexed": false,
          "internalType": "uint256",
          "name": "index",
          "type": "uint256"
        },
        {
          "indexed": false,
          "internalType": "address",
          "name": "bettor",
          "type": "address"
        },
        {
          "indexed": false,
          "internalType": "uint256",
          "name": "amount",
          "type": "uint256"
        },
        {
          "indexed": false,
          "internalType": "bytes",
          "name": "challenges",
          "type": "bytes"
        },
        {
          "indexed": false,
          "internalType": "uint256",
          "name": "answerBlockNumber",
          "type": "uint256"
        }
      ],
      "name": "BET",
      "type": "event"
    },
    {
      "inputs": [],
      "name": "owner",
      "outputs": [
        {
          "internalType": "address",
          "name": "",
          "type": "address"
        }
      ],
      "stateMutability": "view",
      "type": "function",
      "constant": true
    },
    {
      "inputs": [],
      "name": "getPot",
      "outputs": [
        {
          "internalType": "uint256",
          "name": "pot",
          "type": "uint256"
        }
      ],
      "stateMutability": "view",
      "type": "function",
      "constant": true
    },
    {
      "inputs": [
        {
          "internalType": "bytes",
          "name": "challenges",
          "type": "bytes"
        }
      ],
      "name": "bet",
      "outputs": [
        {
          "internalType": "bool",
          "name": "result",
          "type": "bool"
        }
      ],
      "stateMutability": "payable",
      "type": "function",
      "payable": true
    },
    {
      "inputs": [
        {
          "internalType": "uint256",
          "name": "index",
          "type": "uint256"
        }
      ],
      "name": "getBetInfo",
      "outputs": [
        {
          "internalType": "uint256",
          "name": "answerBlockNumber",
          "type": "uint256"
        },
        {
          "internalType": "address",
          "name": "bettor",
          "type": "address"
        },
        {
          "internalType": "bytes",
          "name": "challenges",
          "type": "bytes"
        }
      ],
      "stateMutability": "view",
      "type": "function",
      "constant": true
    }
  ],
  "bytecode": "0x608060405234801561001057600080fd5b5033600360006101000a81548173ffffffffffffffffffffffffffffffffffffffff021916908373ffffffffffffffffffffffffffffffffffffffff160217905550610d51806100616000396000f3fe60806040526004361061003f5760003560e01c8063403c9fa814610044578063599eac8a1461006f57806379141f801461009f5780638da5cb5b146100de575b600080fd5b34801561005057600080fd5b50610059610109565b60405161006691906104b5565b60405180910390f35b6100896004803603810190610084919061062a565b610113565b604051610096919061068e565b60405180910390f35b3480156100ab57600080fd5b506100c660048036038101906100c191906106d5565b610208565b6040516100d5939291906107c2565b60405180910390f35b3480156100ea57600080fd5b506100f361033e565b6040516101009190610800565b60405180910390f35b6000600454905090565b60006611c37937e08000341461015e576040517f08c379a000000000000000000000000000000000000000000000000000000000815260040161015590610878565b60405180910390fd5b61016782610364565b6101a6576040517f08c379a000000000000000000000000000000000000000000000000000000000815260040161019d906108e4565b60405180910390fd5b7f2fd14896e96d250bb5049b83d0198fc7663c624bc855bd734f54a2d56cab236b60016000546101d69190610933565b3334856003436101e69190610967565b6040516101f795949392919061099b565b60405180910390a160019050919050565b6000806060600060026000868152602001908152602001600020604051806060016040529081600082015481526020016001820160009054906101000a900473ffffffffffffffffffffffffffffffffffffffff1673ffffffffffffffffffffffffffffffffffffffff1673ffffffffffffffffffffffffffffffffffffffff16815260200160028201805461029d90610a24565b80601f01602080910402602001604051908101604052809291908181526020018280546102c990610a24565b80156103165780601f106102eb57610100808354040283529160200191610316565b820191906000526020600020905b8154815290600101906020018083116102f957829003601f168201915b5050505050815250509050806000015193508060200151925080604001519150509193909250565b600360009054906101000a900473ffffffffffffffffffffffffffffffffffffffff1681565b600061036e610465565b33816020019073ffffffffffffffffffffffffffffffffffffffff16908173ffffffffffffffffffffffffffffffffffffffff16815250506003436103b39190610967565b8160000181815250508281604001819052508060026000805481526020019081526020016000206000820151816000015560208201518160010160006101000a81548173ffffffffffffffffffffffffffffffffffffffff021916908373ffffffffffffffffffffffffffffffffffffffff16021790555060408201518160020190816104409190610c01565b5090505060008081548092919061045690610cd3565b91905055506001915050919050565b604051806060016040528060008152602001600073ffffffffffffffffffffffffffffffffffffffff168152602001606081525090565b6000819050919050565b6104af8161049c565b82525050565b60006020820190506104ca60008301846104a6565b92915050565b6000604051905090565b600080fd5b600080fd5b600080fd5b600080fd5b6000601f19601f8301169050919050565b7f4e487b7100000000000000000000000000000000000000000000000000000000600052604160045260246000fd5b610537826104ee565b810181811067ffffffffffffffff82111715610556576105556104ff565b5b80604052505050565b60006105696104d0565b9050610575828261052e565b919050565b600067ffffffffffffffff821115610595576105946104ff565b5b61059e826104ee565b9050602081019050919050565b82818337600083830152505050565b60006105cd6105c88461057a565b61055f565b9050828152602081018484840111156105e9576105e86104e9565b5b6105f48482856105ab565b509392505050565b600082601f830112610611576106106104e4565b5b81356106218482602086016105ba565b91505092915050565b6000602082840312156106405761063f6104da565b5b600082013567ffffffffffffffff81111561065e5761065d6104df565b5b61066a848285016105fc565b91505092915050565b60008115159050919050565b61068881610673565b82525050565b60006020820190506106a3600083018461067f565b92915050565b6106b28161049c565b81146106bd57600080fd5b50565b6000813590506106cf816106a9565b92915050565b6000602082840312156106eb576106ea6104da565b5b60006106f9848285016106c0565b91505092915050565b600073ffffffffffffffffffffffffffffffffffffffff82169050919050565b600061072d82610702565b9050919050565b61073d81610722565b82525050565b600081519050919050565b600082825260208201905092915050565b60005b8381101561077d578082015181840152602081019050610762565b60008484015250505050565b600061079482610743565b61079e818561074e565b93506107ae81856020860161075f565b6107b7816104ee565b840191505092915050565b60006060820190506107d760008301866104a6565b6107e46020830185610734565b81810360408301526107f68184610789565b9050949350505050565b60006020820190506108156000830184610734565b92915050565b600082825260208201905092915050565b7f4e6f7420656e6f75676820455448000000000000000000000000000000000000600082015250565b6000610862600e8361081b565b915061086d8261082c565b602082019050919050565b6000602082019050818103600083015261089181610855565b9050919050565b7f4661696c20746f20616464206164206e65772062657420496e666f0000000000600082015250565b60006108ce601b8361081b565b91506108d982610898565b602082019050919050565b600060208201905081810360008301526108fd816108c1565b9050919050565b7f4e487b7100000000000000000000000000000000000000000000000000000000600052601160045260246000fd5b600061093e8261049c565b91506109498361049c565b925082820390508181111561096157610960610904565b5b92915050565b60006109728261049c565b915061097d8361049c565b925082820190508082111561099557610994610904565b5b92915050565b600060a0820190506109b060008301886104a6565b6109bd6020830187610734565b6109ca60408301866104a6565b81810360608301526109dc8185610789565b90506109eb60808301846104a6565b9695505050505050565b7f4e487b7100000000000000000000000000000000000000000000000000000000600052602260045260246000fd5b60006002820490506001821680610a3c57607f821691505b602082108103610a4f57610a4e6109f5565b5b50919050565b60008190508160005260206000209050919050565b60006020601f8301049050919050565b600082821b905092915050565b600060088302610ab77fffffffffffffffffffffffffffffffffffffffffffffffffffffffffffffffff82610a7a565b610ac18683610a7a565b95508019841693508086168417925050509392505050565b6000819050919050565b6000610afe610af9610af48461049c565b610ad9565b61049c565b9050919050565b6000819050919050565b610b1883610ae3565b610b2c610b2482610b05565b848454610a87565b825550505050565b600090565b610b41610b34565b610b4c818484610b0f565b505050565b5b81811015610b7057610b65600082610b39565b600181019050610b52565b5050565b601f821115610bb557610b8681610a55565b610b8f84610a6a565b81016020851015610b9e578190505b610bb2610baa85610a6a565b830182610b51565b50505b505050565b600082821c905092915050565b6000610bd860001984600802610bba565b1980831691505092915050565b6000610bf18383610bc7565b9150826002028217905092915050565b610c0a82610743565b67ffffffffffffffff811115610c2357610c226104ff565b5b610c2d8254610a24565b610c38828285610b74565b600060209050601f831160018114610c6b5760008415610c59578287015190505b610c638582610be5565b865550610ccb565b601f198416610c7986610a55565b60005b82811015610ca157848901518255600182019150602085019450602081019050610c7c565b86831015610cbe5784890151610cba601f891682610bc7565b8355505b6001600288020188555050505b505050505050565b6000610cde8261049c565b91507fffffffffffffffffffffffffffffffffffffffffffffffffffffffffffffffff8203610d1057610d0f610904565b5b60018201905091905056fea264697066735822122051a4dcb568dd261587106e0b06179734317f030b889954f31ce1c5d31957ac9764736f6c63430008120033",
  "immutableReferences": {},
  "source": "//SPDX-License-Identifier: MIT\npragma solidity ^0.8.0 ;\n\ncontract Lottery {\n\n    struct BetInfo {\n        uint256 answerBlockNumber;\n        address payable bettor;\n        bytes challenges;\n    }\n\n    uint256 private _tail;\n    uint256 private _head;\n    mapping (uint256 => BetInfo) private _bets;\n    address public owner;\n\n    uint256 constant internal BLOCK_LIMIT = 256;\n    uint256 constant internal BET_BLOCK_INTERVAL = 3;\n    uint256 constant internal BET_AMOUNT = 5 * 10 ** 15; // 0.005\n    uint256 private _pot;\n    \n    event BET(uint256 index, address bettor, uint256 amount, bytes challenges, uint256 answerBlockNumber);\n\n    constructor() {\n        owner = msg.sender;// solidity    \n    }\n\n    function getPot() public view returns(uint256 pot){\n        return _pot;\n    }\n    /**\n     * @dev  .  0.005 ETH  ,  1byte  .\n     *      distribute  .\n     * @param challenges -   .\n     * @return result      bool \n     */\n    //Bet :save the bet \n    function bet (bytes memory challenges) public payable returns (bool result){\n        //check the proper ether is sent\n        require(msg.value == BET_AMOUNT, \"Not enough ETH\");\n        //push bet to the queue\n        require(pushBet(challenges), \"Fail to add ad new bet Info\");\n        // emit event\n        emit BET(_tail - 1, msg.sender, msg.value, challenges, block.number + BET_BLOCK_INTERVAL);\n        return true;\n    } \n    //Distribute :  \n\n    function getBetInfo ( uint256 index) public view returns (uint256 answerBlockNumber, address bettor, bytes memory challenges){\n        BetInfo memory b = _bets[index];\n        answerBlockNumber = b.answerBlockNumber;\n        bettor = b.bettor;\n        challenges = b.challenges;\n    }\n\n    function pushBet (bytes memory challenges) internal returns(bool){\n        BetInfo memory b;\n        b.bettor = payable(msg.sender);\n        b.answerBlockNumber = block.number + BET_BLOCK_INTERVAL;\n        b.challenges = challenges;\n\n        _bets[_tail] = b;\n        _tail ++;\n        return true;\n    }\n\n    function popBet(uint256 index) internal returns (bool){\n        //  .\n        delete _bets[index];\n        return true;\n    }\n} ",
  "sourcePath": "/Users/baek/workspace/2304/0529_inflearn/contracts/lottery.sol",
  "compiler": {
    "name": "solc",
    "version": "0.8.18+commit.87f61d96.Emscripten.clang"
  },
  "schemaVersion": "3.4.14",
  "updatedAt": "2023-06-01T02:54:45.128Z",
  "networkType": "ethereum",
  "devdoc": {
    "kind": "dev",
    "methods": {
      "bet(bytes)": {
        "details": " .  0.005 ETH  ,  1byte  .      distribute  .",
        "params": {
          "challenges": "-   ."
        },
        "returns": {
          "result": "     bool "
        }
      }
    },
    "version": 1
  },
  "userdoc": {
    "kind": "user",
    "methods": {},
    "version": 1
  }
}