{
  "contractName": "AppleShop",
  "abi": [
    {
      "inputs": [
        {
          "internalType": "address",
          "name": "",
          "type": "address"
        }
      ],
      "name": "myApple",
      "outputs": [
        {
          "internalType": "uint256",
          "name": "",
          "type": "uint256"
        }
      ],
      "stateMutability": "view",
      "type": "function",
      "constant": true
    },
    {
      "inputs": [],
      "name": "buy",
      "outputs": [],
      "stateMutability": "payable",
      "type": "function",
      "payable": true
    },
    {
      "inputs": [],
      "name": "get",
      "outputs": [
        {
          "internalType": "uint256",
          "name": "",
          "type": "uint256"
        }
      ],
      "stateMutability": "view",
      "type": "function",
      "constant": true
    },
    {
      "inputs": [],
      "name": "sell",
      "outputs": [],
      "stateMutability": "payable",
      "type": "function",
      "payable": true
    }
  ],
  "bytecode": "0x608060405234801561001057600080fd5b506103f9806100206000396000f3fe60806040526004361061003f5760003560e01c80634571007414610044578063481a45211461004e5780636d4ce63c1461008b578063a6f2ae3a146100b6575b600080fd5b61004c6100c0565b005b34801561005a57600080fd5b50610075600480360381019061007091906102bd565b6101a4565b6040516100829190610303565b60405180910390f35b34801561009757600080fd5b506100a06101bc565b6040516100ad9190610303565b60405180910390f35b6100be610202565b005b6000670de0b6b3a76400006000803373ffffffffffffffffffffffffffffffffffffffff1673ffffffffffffffffffffffffffffffffffffffff16815260200190815260200160002054610114919061034d565b905060008060003373ffffffffffffffffffffffffffffffffffffffff1673ffffffffffffffffffffffffffffffffffffffff168152602001908152602001600020819055503373ffffffffffffffffffffffffffffffffffffffff166108fc829081150290604051600060405180830381858888f193505050501580156101a0573d6000803e3d6000fd5b5050565b60006020528060005260406000206000915090505481565b60008060003373ffffffffffffffffffffffffffffffffffffffff1673ffffffffffffffffffffffffffffffffffffffff16815260200190815260200160002054905090565b60016000803373ffffffffffffffffffffffffffffffffffffffff1673ffffffffffffffffffffffffffffffffffffffff1681526020019081526020016000206000828254610251919061038f565b92505081905550565b600080fd5b600073ffffffffffffffffffffffffffffffffffffffff82169050919050565b600061028a8261025f565b9050919050565b61029a8161027f565b81146102a557600080fd5b50565b6000813590506102b781610291565b92915050565b6000602082840312156102d3576102d261025a565b5b60006102e1848285016102a8565b91505092915050565b6000819050919050565b6102fd816102ea565b82525050565b600060208201905061031860008301846102f4565b92915050565b7f4e487b7100000000000000000000000000000000000000000000000000000000600052601160045260246000fd5b6000610358826102ea565b9150610363836102ea565b9250828202610371816102ea565b915082820484148315176103885761038761031e565b5b5092915050565b600061039a826102ea565b91506103a5836102ea565b92508282019050808211156103bd576103bc61031e565b5b9291505056fea26469706673582212204a51017b64714bed7b2c96d8dc818602e5f8a2e89c38730669251fa567c1993564736f6c63430008120033",
  "immutableReferences": {},
  "source": "//SPDX-License-Identifier: MIT\npragma solidity ^0.8.0;\n\ncontract AppleShop {\n    //            .\n    mapping (address=>uint256) public myApple;\n\n    function buy() public payable {\n        myApple[msg.sender] += 1;\n    }\n\n    function get() public view returns(uint256){\n        return myApple[msg.sender];\n    }\n\n    // \n    function sell() public payable {\n        uint256 refund = myApple[msg.sender] * 10 ** 18; //1\n        myApple[msg.sender] = 0;\n\n        //payalbe(msg.sender) : account   ( nonce, account, storage, ...)\n        payable(msg.sender).transfer(refund); // CA   ETH .\n\n        // transfer : solidity  \n        // CA payable   ,   ETH .\n\n    }\n}\n\n",
  "sourcePath": "/Users/baek/workspace/2304/0530/contracts/appleShop.sol",
  "compiler": {
    "name": "solc",
    "version": "0.8.18+commit.87f61d96.Emscripten.clang"
  },
  "schemaVersion": "3.4.14",
  "updatedAt": "2023-05-30T12:09:59.835Z",
  "networkType": "ethereum",
  "devdoc": {
    "kind": "dev",
    "methods": {},
    "version": 1
  },
  "userdoc": {
    "kind": "user",
    "methods": {},
    "version": 1
  }
}