{
	"contracts/Auction.sol": {
		"Auction": {
			"abi": [
				{
					"inputs": [
						{
							"internalType": "contract ERC721",
							"name": "_NFT",
							"type": "address"
						}
					],
					"stateMutability": "nonpayable",
					"type": "constructor"
				},
				{
					"inputs": [],
					"name": "NFT",
					"outputs": [
						{
							"internalType": "contract ERC721",
							"name": "",
							"type": "address"
						}
					],
					"stateMutability": "view",
					"type": "function"
				},
				{
					"inputs": [
						{
							"internalType": "uint256",
							"name": "_tokenId",
							"type": "uint256"
						}
					],
					"name": "PurchaseToken",
					"outputs": [],
					"stateMutability": "payable",
					"type": "function"
				},
				{
					"inputs": [
						{
							"internalType": "uint256",
							"name": "",
							"type": "uint256"
						}
					],
					"name": "SaleTokenList",
					"outputs": [
						{
							"internalType": "uint256",
							"name": "",
							"type": "uint256"
						}
					],
					"stateMutability": "view",
					"type": "function"
				},
				{
					"inputs": [
						{
							"internalType": "uint256",
							"name": "_tokenId",
							"type": "uint256"
						},
						{
							"internalType": "uint256",
							"name": "_price",
							"type": "uint256"
						}
					],
					"name": "SalesToken",
					"outputs": [],
					"stateMutability": "nonpayable",
					"type": "function"
				},
				{
					"inputs": [],
					"name": "getSaleTokenList",
					"outputs": [
						{
							"components": [
								{
									"internalType": "uint256",
									"name": "tokenId",
									"type": "uint256"
								},
								{
									"internalType": "uint256",
									"name": "price",
									"type": "uint256"
								},
								{
									"internalType": "string",
									"name": "tokenURI",
									"type": "string"
								}
							],
							"internalType": "struct Auction.TokenInfo[]",
							"name": "",
							"type": "tuple[]"
						}
					],
					"stateMutability": "view",
					"type": "function"
				},
				{
					"inputs": [
						{
							"internalType": "uint256",
							"name": "",
							"type": "uint256"
						}
					],
					"name": "tokenPrices",
					"outputs": [
						{
							"internalType": "uint256",
							"name": "",
							"type": "uint256"
						}
					],
					"stateMutability": "view",
					"type": "function"
				}
			],
			"devdoc": {
				"kind": "dev",
				"methods": {},
				"version": 1
			},
			"evm": {
				"assembly": "    /* \"contracts/Auction.sol\":132:2474  contract Auction  {... */\n  mstore(0x40, 0x80)\n    /* \"contracts/Auction.sol\":498:549  constructor(ERC721 _NFT){... */\n  callvalue\n  dup1\n  iszero\n  tag_1\n  jumpi\n  0x00\n  dup1\n  revert\ntag_1:\n  pop\n  mload(0x40)\n  sub(codesize, bytecodeSize)\n  dup1\n  bytecodeSize\n  dup4\n  codecopy\n  dup2\n  dup2\n  add\n  0x40\n  mstore\n  dup2\n  add\n  swap1\n  tag_2\n  swap2\n  swap1\n  tag_3\n  jump\t// in\ntag_2:\n    /* \"contracts/Auction.sol\":538:542  _NFT */\n  dup1\n    /* \"contracts/Auction.sol\":532:535  NFT */\n  0x00\n  dup1\n    /* \"contracts/Auction.sol\":532:542  NFT = _NFT */\n  0x0100\n  exp\n  dup2\n  sload\n  dup2\n  0xffffffffffffffffffffffffffffffffffffffff\n  mul\n  not\n  and\n  swap1\n  dup4\n  0xffffffffffffffffffffffffffffffffffffffff\n  and\n  mul\n  or\n  swap1\n  sstore\n  pop\n    /* \"contracts/Auction.sol\":498:549  constructor(ERC721 _NFT){... */\n  pop\n    /* \"contracts/Auction.sol\":132:2474  contract Auction  {... */\n  jump(tag_6)\n    /* \"#utility.yul\":88:205   */\ntag_8:\n    /* \"#utility.yul\":197:198   */\n  0x00\n    /* \"#utility.yul\":194:195   */\n  dup1\n    /* \"#utility.yul\":187:199   */\n  revert\n    /* \"#utility.yul\":334:460   */\ntag_10:\n    /* \"#utility.yul\":371:378   */\n  0x00\n    /* \"#utility.yul\":411:453   */\n  0xffffffffffffffffffffffffffffffffffffffff\n    /* \"#utility.yul\":404:409   */\n  dup3\n    /* \"#utility.yul\":400:454   */\n  and\n    /* \"#utility.yul\":389:454   */\n  swap1\n  pop\n    /* \"#utility.yul\":334:460   */\n  swap2\n  swap1\n  pop\n  jump\t// out\n    /* \"#utility.yul\":466:562   */\ntag_11:\n    /* \"#utility.yul\":503:510   */\n  0x00\n    /* \"#utility.yul\":532:556   */\n  tag_21\n    /* \"#utility.yul\":550:555   */\n  dup3\n    /* \"#utility.yul\":532:556   */\n  tag_10\n  jump\t// in\ntag_21:\n    /* \"#utility.yul\":521:556   */\n  swap1\n  pop\n    /* \"#utility.yul\":466:562   */\n  swap2\n  swap1\n  pop\n  jump\t// out\n    /* \"#utility.yul\":568:679   */\ntag_12:\n    /* \"#utility.yul\":620:627   */\n  0x00\n    /* \"#utility.yul\":649:673   */\n  tag_23\n    /* \"#utility.yul\":667:672   */\n  dup3\n    /* \"#utility.yul\":649:673   */\n  tag_11\n  jump\t// in\ntag_23:\n    /* \"#utility.yul\":638:673   */\n  swap1\n  pop\n    /* \"#utility.yul\":568:679   */\n  swap2\n  swap1\n  pop\n  jump\t// out\n    /* \"#utility.yul\":685:837   */\ntag_13:\n    /* \"#utility.yul\":773:812   */\n  tag_25\n    /* \"#utility.yul\":806:811   */\n  dup2\n    /* \"#utility.yul\":773:812   */\n  tag_12\n  jump\t// in\ntag_25:\n    /* \"#utility.yul\":766:771   */\n  dup2\n    /* \"#utility.yul\":763:813   */\n  eq\n    /* \"#utility.yul\":753:831   */\n  tag_26\n  jumpi\n    /* \"#utility.yul\":827:828   */\n  0x00\n    /* \"#utility.yul\":824:825   */\n  dup1\n    /* \"#utility.yul\":817:829   */\n  revert\n    /* \"#utility.yul\":753:831   */\ntag_26:\n    /* \"#utility.yul\":685:837   */\n  pop\n  jump\t// out\n    /* \"#utility.yul\":843:1016   */\ntag_14:\n    /* \"#utility.yul\":915:920   */\n  0x00\n    /* \"#utility.yul\":946:952   */\n  dup2\n    /* \"#utility.yul\":940:953   */\n  mload\n    /* \"#utility.yul\":931:953   */\n  swap1\n  pop\n    /* \"#utility.yul\":962:1010   */\n  tag_28\n    /* \"#utility.yul\":1004:1009   */\n  dup2\n    /* \"#utility.yul\":962:1010   */\n  tag_13\n  jump\t// in\ntag_28:\n    /* \"#utility.yul\":843:1016   */\n  swap3\n  swap2\n  pop\n  pop\n  jump\t// out\n    /* \"#utility.yul\":1022:1403   */\ntag_3:\n    /* \"#utility.yul\":1107:1113   */\n  0x00\n    /* \"#utility.yul\":1156:1158   */\n  0x20\n    /* \"#utility.yul\":1144:1153   */\n  dup3\n    /* \"#utility.yul\":1135:1142   */\n  dup5\n    /* \"#utility.yul\":1131:1154   */\n  sub\n    /* \"#utility.yul\":1127:1159   */\n  slt\n    /* \"#utility.yul\":1124:1243   */\n  iszero\n  tag_30\n  jumpi\n    /* \"#utility.yul\":1162:1241   */\n  tag_31\n  tag_8\n  jump\t// in\ntag_31:\n    /* \"#utility.yul\":1124:1243   */\ntag_30:\n    /* \"#utility.yul\":1282:1283   */\n  0x00\n    /* \"#utility.yul\":1307:1386   */\n  tag_32\n    /* \"#utility.yul\":1378:1385   */\n  dup5\n    /* \"#utility.yul\":1369:1375   */\n  dup3\n    /* \"#utility.yul\":1358:1367   */\n  dup6\n    /* \"#utility.yul\":1354:1376   */\n  add\n    /* \"#utility.yul\":1307:1386   */\n  tag_14\n  jump\t// in\ntag_32:\n    /* \"#utility.yul\":1297:1386   */\n  swap2\n  pop\n    /* \"#utility.yul\":1253:1396   */\n  pop\n    /* \"#utility.yul\":1022:1403   */\n  swap3\n  swap2\n  pop\n  pop\n  jump\t// out\n    /* \"contracts/Auction.sol\":132:2474  contract Auction  {... */\ntag_6:\n  dataSize(sub_0)\n  dup1\n  dataOffset(sub_0)\n  0x00\n  codecopy\n  0x00\n  return\nstop\n\nsub_0: assembly {\n        /* \"contracts/Auction.sol\":132:2474  contract Auction  {... */\n      mstore(0x40, 0x80)\n      jumpi(tag_1, lt(calldatasize, 0x04))\n      shr(0xe0, calldataload(0x00))\n      dup1\n      0x0c8cc569\n      eq\n      tag_2\n      jumpi\n      dup1\n      0x3048f512\n      eq\n      tag_3\n      jumpi\n      dup1\n      0x4e4dc988\n      eq\n      tag_4\n      jumpi\n      dup1\n      0x7c0b8de2\n      eq\n      tag_5\n      jumpi\n      dup1\n      0x921e033b\n      eq\n      tag_6\n      jumpi\n      dup1\n      0xe5afe3e6\n      eq\n      tag_7\n      jumpi\n    tag_1:\n      0x00\n      dup1\n      revert\n        /* \"contracts/Auction.sol\":461:491  uint256[] public SaleTokenList */\n    tag_2:\n      callvalue\n      dup1\n      iszero\n      tag_8\n      jumpi\n      0x00\n      dup1\n      revert\n    tag_8:\n      pop\n      tag_9\n      0x04\n      dup1\n      calldatasize\n      sub\n      dup2\n      add\n      swap1\n      tag_10\n      swap2\n      swap1\n      tag_11\n      jump\t// in\n    tag_10:\n      tag_12\n      jump\t// in\n    tag_9:\n      mload(0x40)\n      tag_13\n      swap2\n      swap1\n      tag_14\n      jump\t// in\n    tag_13:\n      mload(0x40)\n      dup1\n      swap2\n      sub\n      swap1\n      return\n        /* \"contracts/Auction.sol\":1093:1487  function PurchaseToken(uint256 _tokenId) public payable {... */\n    tag_3:\n      tag_15\n      0x04\n      dup1\n      calldatasize\n      sub\n      dup2\n      add\n      swap1\n      tag_16\n      swap2\n      swap1\n      tag_11\n      jump\t// in\n    tag_16:\n      tag_17\n      jump\t// in\n    tag_15:\n      stop\n        /* \"contracts/Auction.sol\":1957:2472  function getSaleTokenList() public view returns (TokenInfo[] memory) {... */\n    tag_4:\n      callvalue\n      dup1\n      iszero\n      tag_18\n      jumpi\n      0x00\n      dup1\n      revert\n    tag_18:\n      pop\n      tag_19\n      tag_20\n      jump\t// in\n    tag_19:\n      mload(0x40)\n      tag_21\n      swap2\n      swap1\n      tag_22\n      jump\t// in\n    tag_21:\n      mload(0x40)\n      dup1\n      swap2\n      sub\n      swap1\n      return\n        /* \"contracts/Auction.sol\":156:173  ERC721 public NFT */\n    tag_5:\n      callvalue\n      dup1\n      iszero\n      tag_23\n      jumpi\n      0x00\n      dup1\n      revert\n    tag_23:\n      pop\n      tag_24\n      tag_25\n      jump\t// in\n    tag_24:\n      mload(0x40)\n      tag_26\n      swap2\n      swap1\n      tag_27\n      jump\t// in\n    tag_26:\n      mload(0x40)\n      dup1\n      swap2\n      sub\n      swap1\n      return\n        /* \"contracts/Auction.sol\":573:1073  function SalesToken(uint256 _tokenId, uint256 _price) public {... */\n    tag_6:\n      callvalue\n      dup1\n      iszero\n      tag_28\n      jumpi\n      0x00\n      dup1\n      revert\n    tag_28:\n      pop\n      tag_29\n      0x04\n      dup1\n      calldatasize\n      sub\n      dup2\n      add\n      swap1\n      tag_30\n      swap2\n      swap1\n      tag_31\n      jump\t// in\n    tag_30:\n      tag_32\n      jump\t// in\n    tag_29:\n      stop\n        /* \"contracts/Auction.sol\":324:370  mapping(uint256 => uint256) public tokenPrices */\n    tag_7:\n      callvalue\n      dup1\n      iszero\n      tag_33\n      jumpi\n      0x00\n      dup1\n      revert\n    tag_33:\n      pop\n      tag_34\n      0x04\n      dup1\n      calldatasize\n      sub\n      dup2\n      add\n      swap1\n      tag_35\n      swap2\n      swap1\n      tag_11\n      jump\t// in\n    tag_35:\n      tag_36\n      jump\t// in\n    tag_34:\n      mload(0x40)\n      tag_37\n      swap2\n      swap1\n      tag_14\n      jump\t// in\n    tag_37:\n      mload(0x40)\n      dup1\n      swap2\n      sub\n      swap1\n      return\n        /* \"contracts/Auction.sol\":461:491  uint256[] public SaleTokenList */\n    tag_12:\n      0x02\n      dup2\n      dup2\n      sload\n      dup2\n      lt\n      tag_38\n      jumpi\n      0x00\n      dup1\n      revert\n    tag_38:\n      swap1\n      0x00\n      mstore\n      keccak256(0x00, 0x20)\n      add\n      0x00\n      swap2\n      pop\n      swap1\n      pop\n      sload\n      dup2\n      jump\t// out\n        /* \"contracts/Auction.sol\":1093:1487  function PurchaseToken(uint256 _tokenId) public payable {... */\n    tag_17:\n        /* \"contracts/Auction.sol\":1159:1177  address tokenOwner */\n      0x00\n        /* \"contracts/Auction.sol\":1180:1183  NFT */\n      dup1\n      0x00\n      swap1\n      sload\n      swap1\n      0x0100\n      exp\n      swap1\n      div\n      0xffffffffffffffffffffffffffffffffffffffff\n      and\n        /* \"contracts/Auction.sol\":1180:1191  NFT.ownerOf */\n      0xffffffffffffffffffffffffffffffffffffffff\n      and\n      0x6352211e\n        /* \"contracts/Auction.sol\":1192:1200  _tokenId */\n      dup4\n        /* \"contracts/Auction.sol\":1180:1201  NFT.ownerOf(_tokenId) */\n      mload(0x40)\n      dup3\n      0xffffffff\n      and\n      0xe0\n      shl\n      dup2\n      mstore\n      0x04\n      add\n      tag_41\n      swap2\n      swap1\n      tag_14\n      jump\t// in\n    tag_41:\n      0x20\n      mload(0x40)\n      dup1\n      dup4\n      sub\n      dup2\n      dup7\n      gas\n      staticcall\n      iszero\n      dup1\n      iszero\n      tag_43\n      jumpi\n      returndatasize\n      0x00\n      dup1\n      returndatacopy\n      revert(0x00, returndatasize)\n    tag_43:\n      pop\n      pop\n      pop\n      pop\n      mload(0x40)\n      returndatasize\n      not(0x1f)\n      0x1f\n      dup3\n      add\n      and\n      dup3\n      add\n      dup1\n      0x40\n      mstore\n      pop\n      dup2\n      add\n      swap1\n      tag_44\n      swap2\n      swap1\n      tag_45\n      jump\t// in\n    tag_44:\n        /* \"contracts/Auction.sol\":1159:1201  address tokenOwner = NFT.ownerOf(_tokenId) */\n      swap1\n      pop\n        /* \"contracts/Auction.sol\":1233:1243  msg.sender */\n      caller\n        /* \"contracts/Auction.sol\":1219:1243  tokenOwner != msg.sender */\n      0xffffffffffffffffffffffffffffffffffffffff\n      and\n        /* \"contracts/Auction.sol\":1219:1229  tokenOwner */\n      dup2\n        /* \"contracts/Auction.sol\":1219:1243  tokenOwner != msg.sender */\n      0xffffffffffffffffffffffffffffffffffffffff\n      and\n      sub\n        /* \"contracts/Auction.sol\":1211:1245  require(tokenOwner != msg.sender ) */\n      tag_46\n      jumpi\n      0x00\n      dup1\n      revert\n    tag_46:\n        /* \"contracts/Auction.sol\":1288:1297  msg.value */\n      callvalue\n        /* \"contracts/Auction.sol\":1263:1274  tokenPrices */\n      0x01\n        /* \"contracts/Auction.sol\":1263:1284  tokenPrices[_tokenId] */\n      0x00\n        /* \"contracts/Auction.sol\":1275:1283  _tokenId */\n      dup5\n        /* \"contracts/Auction.sol\":1263:1284  tokenPrices[_tokenId] */\n      dup2\n      mstore\n      0x20\n      add\n      swap1\n      dup2\n      mstore\n      0x20\n      add\n      0x00\n      keccak256\n      sload\n        /* \"contracts/Auction.sol\":1263:1297  tokenPrices[_tokenId] == msg.value */\n      eq\n        /* \"contracts/Auction.sol\":1255:1298  require(tokenPrices[_tokenId] == msg.value) */\n      tag_47\n      jumpi\n      0x00\n      dup1\n      revert\n    tag_47:\n        /* \"contracts/Auction.sol\":1317:1327  tokenOwner */\n      dup1\n        /* \"contracts/Auction.sol\":1309:1337  payable(tokenOwner).transfer */\n      0xffffffffffffffffffffffffffffffffffffffff\n      and\n        /* \"contracts/Auction.sol\":1309:1348  payable(tokenOwner).transfer(msg.value) */\n      0x08fc\n        /* \"contracts/Auction.sol\":1338:1347  msg.value */\n      callvalue\n        /* \"contracts/Auction.sol\":1309:1348  payable(tokenOwner).transfer(msg.value) */\n      swap1\n      dup2\n      iszero\n      mul\n      swap1\n      mload(0x40)\n      0x00\n      mload(0x40)\n      dup1\n      dup4\n      sub\n      dup2\n      dup6\n      dup9\n      dup9\n      call\n      swap4\n      pop\n      pop\n      pop\n      pop\n      iszero\n      dup1\n      iszero\n      tag_49\n      jumpi\n      returndatasize\n      0x00\n      dup1\n      returndatacopy\n      revert(0x00, returndatasize)\n    tag_49:\n      pop\n        /* \"contracts/Auction.sol\":1362:1365  NFT */\n      0x00\n      dup1\n      sload\n      swap1\n      0x0100\n      exp\n      swap1\n      div\n      0xffffffffffffffffffffffffffffffffffffffff\n      and\n        /* \"contracts/Auction.sol\":1362:1378  NFT.transferFrom */\n      0xffffffffffffffffffffffffffffffffffffffff\n      and\n      0x23b872dd\n        /* \"contracts/Auction.sol\":1379:1389  tokenOwner */\n      dup3\n        /* \"contracts/Auction.sol\":1391:1401  msg.sender */\n      caller\n        /* \"contracts/Auction.sol\":1403:1411  _tokenId */\n      dup6\n        /* \"contracts/Auction.sol\":1362:1412  NFT.transferFrom(tokenOwner, msg.sender, _tokenId) */\n      mload(0x40)\n      dup5\n      0xffffffff\n      and\n      0xe0\n      shl\n      dup2\n      mstore\n      0x04\n      add\n      tag_50\n      swap4\n      swap3\n      swap2\n      swap1\n      tag_51\n      jump\t// in\n    tag_50:\n      0x00\n      mload(0x40)\n      dup1\n      dup4\n      sub\n      dup2\n      0x00\n      dup8\n      dup1\n      extcodesize\n      iszero\n      dup1\n      iszero\n      tag_52\n      jumpi\n      0x00\n      dup1\n      revert\n    tag_52:\n      pop\n      gas\n      call\n      iszero\n      dup1\n      iszero\n      tag_54\n      jumpi\n      returndatasize\n      0x00\n      dup1\n      returndatacopy\n      revert(0x00, returndatasize)\n    tag_54:\n      pop\n      pop\n      pop\n      pop\n        /* \"contracts/Auction.sol\":1447:1448  0 */\n      0x00\n        /* \"contracts/Auction.sol\":1423:1434  tokenPrices */\n      0x01\n        /* \"contracts/Auction.sol\":1423:1444  tokenPrices[_tokenId] */\n      0x00\n        /* \"contracts/Auction.sol\":1435:1443  _tokenId */\n      dup5\n        /* \"contracts/Auction.sol\":1423:1444  tokenPrices[_tokenId] */\n      dup2\n      mstore\n      0x20\n      add\n      swap1\n      dup2\n      mstore\n      0x20\n      add\n      0x00\n      keccak256\n        /* \"contracts/Auction.sol\":1423:1448  tokenPrices[_tokenId] = 0 */\n      dup2\n      swap1\n      sstore\n      pop\n        /* \"contracts/Auction.sol\":1458:1480  popSaleToken(_tokenId) */\n      tag_55\n        /* \"contracts/Auction.sol\":1471:1479  _tokenId */\n      dup3\n        /* \"contracts/Auction.sol\":1458:1470  popSaleToken */\n      tag_56\n        /* \"contracts/Auction.sol\":1458:1480  popSaleToken(_tokenId) */\n      jump\t// in\n    tag_55:\n      pop\n        /* \"contracts/Auction.sol\":1149:1487  {... */\n      pop\n        /* \"contracts/Auction.sol\":1093:1487  function PurchaseToken(uint256 _tokenId) public payable {... */\n      pop\n      jump\t// out\n        /* \"contracts/Auction.sol\":1957:2472  function getSaleTokenList() public view returns (TokenInfo[] memory) {... */\n    tag_20:\n        /* \"contracts/Auction.sol\":2006:2024  TokenInfo[] memory */\n      0x60\n        /* \"contracts/Auction.sol\":2067:2068  0 */\n      0x00\n        /* \"contracts/Auction.sol\":2044:2057  SaleTokenList */\n      0x02\n        /* \"contracts/Auction.sol\":2044:2064  SaleTokenList.length */\n      dup1\n      sload\n      swap1\n      pop\n        /* \"contracts/Auction.sol\":2044:2068  SaleTokenList.length > 0 */\n      gt\n        /* \"contracts/Auction.sol\":2036:2069  require(SaleTokenList.length > 0) */\n      tag_58\n      jumpi\n      0x00\n      dup1\n      revert\n    tag_58:\n        /* \"contracts/Auction.sol\":2079:2102  TokenInfo[] memory list */\n      0x00\n        /* \"contracts/Auction.sol\":2121:2134  SaleTokenList */\n      0x02\n        /* \"contracts/Auction.sol\":2121:2141  SaleTokenList.length */\n      dup1\n      sload\n      swap1\n      pop\n        /* \"contracts/Auction.sol\":2105:2142  new TokenInfo[](SaleTokenList.length) */\n      0xffffffffffffffff\n      dup2\n      gt\n      iszero\n      tag_59\n      jumpi\n      tag_60\n      tag_61\n      jump\t// in\n    tag_60:\n    tag_59:\n      mload(0x40)\n      swap1\n      dup1\n      dup3\n      mstore\n      dup1\n      0x20\n      mul\n      0x20\n      add\n      dup3\n      add\n      0x40\n      mstore\n      dup1\n      iszero\n      tag_62\n      jumpi\n      dup2\n      0x20\n      add\n    tag_63:\n      tag_64\n      tag_65\n      jump\t// in\n    tag_64:\n      dup2\n      mstore\n      0x20\n      add\n      swap1\n      0x01\n      swap1\n      sub\n      swap1\n      dup2\n      tag_63\n      jumpi\n      swap1\n      pop\n    tag_62:\n      pop\n        /* \"contracts/Auction.sol\":2079:2142  TokenInfo[] memory list = new TokenInfo[](SaleTokenList.length) */\n      swap1\n      pop\n        /* \"contracts/Auction.sol\":2157:2166  uint256 i */\n      0x00\n        /* \"contracts/Auction.sol\":2153:2443  for(uint256 i = 0; i < SaleTokenList.length; i++){... */\n    tag_66:\n        /* \"contracts/Auction.sol\":2176:2189  SaleTokenList */\n      0x02\n        /* \"contracts/Auction.sol\":2176:2196  SaleTokenList.length */\n      dup1\n      sload\n      swap1\n      pop\n        /* \"contracts/Auction.sol\":2172:2173  i */\n      dup2\n        /* \"contracts/Auction.sol\":2172:2196  i < SaleTokenList.length */\n      lt\n        /* \"contracts/Auction.sol\":2153:2443  for(uint256 i = 0; i < SaleTokenList.length; i++){... */\n      iszero\n      tag_67\n      jumpi\n        /* \"contracts/Auction.sol\":2216:2231  uint256 tokenId */\n      0x00\n        /* \"contracts/Auction.sol\":2234:2247  SaleTokenList */\n      0x02\n        /* \"contracts/Auction.sol\":2248:2249  i */\n      dup3\n        /* \"contracts/Auction.sol\":2234:2250  SaleTokenList[i] */\n      dup2\n      sload\n      dup2\n      lt\n      tag_69\n      jumpi\n      tag_70\n      tag_71\n      jump\t// in\n    tag_70:\n    tag_69:\n      swap1\n      0x00\n      mstore\n      keccak256(0x00, 0x20)\n      add\n      sload\n        /* \"contracts/Auction.sol\":2216:2250  uint256 tokenId = SaleTokenList[i] */\n      swap1\n      pop\n        /* \"contracts/Auction.sol\":2264:2277  uint256 price */\n      0x00\n        /* \"contracts/Auction.sol\":2280:2291  tokenPrices */\n      0x01\n        /* \"contracts/Auction.sol\":2280:2300  tokenPrices[tokenId] */\n      0x00\n        /* \"contracts/Auction.sol\":2292:2299  tokenId */\n      dup4\n        /* \"contracts/Auction.sol\":2280:2300  tokenPrices[tokenId] */\n      dup2\n      mstore\n      0x20\n      add\n      swap1\n      dup2\n      mstore\n      0x20\n      add\n      0x00\n      keccak256\n      sload\n        /* \"contracts/Auction.sol\":2264:2300  uint256 price = tokenPrices[tokenId] */\n      swap1\n      pop\n        /* \"contracts/Auction.sol\":2314:2336  string memory tokenURI */\n      0x00\n        /* \"contracts/Auction.sol\":2339:2342  NFT */\n      dup1\n      0x00\n      swap1\n      sload\n      swap1\n      0x0100\n      exp\n      swap1\n      div\n      0xffffffffffffffffffffffffffffffffffffffff\n      and\n        /* \"contracts/Auction.sol\":2339:2351  NFT.tokenURI */\n      0xffffffffffffffffffffffffffffffffffffffff\n      and\n      0xc87b56dd\n        /* \"contracts/Auction.sol\":2352:2359  tokenId */\n      dup5\n        /* \"contracts/Auction.sol\":2339:2360  NFT.tokenURI(tokenId) */\n      mload(0x40)\n      dup3\n      0xffffffff\n      and\n      0xe0\n      shl\n      dup2\n      mstore\n      0x04\n      add\n      tag_73\n      swap2\n      swap1\n      tag_14\n      jump\t// in\n    tag_73:\n      0x00\n      mload(0x40)\n      dup1\n      dup4\n      sub\n      dup2\n      dup7\n      gas\n      staticcall\n      iszero\n      dup1\n      iszero\n      tag_75\n      jumpi\n      returndatasize\n      0x00\n      dup1\n      returndatacopy\n      revert(0x00, returndatasize)\n    tag_75:\n      pop\n      pop\n      pop\n      pop\n      mload(0x40)\n      returndatasize\n      0x00\n      dup3\n      returndatacopy\n      returndatasize\n      not(0x1f)\n      0x1f\n      dup3\n      add\n      and\n      dup3\n      add\n      dup1\n      0x40\n      mstore\n      pop\n      dup2\n      add\n      swap1\n      tag_76\n      swap2\n      swap1\n      tag_77\n      jump\t// in\n    tag_76:\n        /* \"contracts/Auction.sol\":2314:2360  string memory tokenURI = NFT.tokenURI(tokenId) */\n      swap1\n      pop\n        /* \"contracts/Auction.sol\":2397:2432  TokenInfo(tokenId, price, tokenURI) */\n      mload(0x40)\n      dup1\n      0x60\n      add\n      0x40\n      mstore\n      dup1\n        /* \"contracts/Auction.sol\":2407:2414  tokenId */\n      dup5\n        /* \"contracts/Auction.sol\":2397:2432  TokenInfo(tokenId, price, tokenURI) */\n      dup2\n      mstore\n      0x20\n      add\n        /* \"contracts/Auction.sol\":2416:2421  price */\n      dup4\n        /* \"contracts/Auction.sol\":2397:2432  TokenInfo(tokenId, price, tokenURI) */\n      dup2\n      mstore\n      0x20\n      add\n        /* \"contracts/Auction.sol\":2423:2431  tokenURI */\n      dup3\n        /* \"contracts/Auction.sol\":2397:2432  TokenInfo(tokenId, price, tokenURI) */\n      dup2\n      mstore\n      pop\n        /* \"contracts/Auction.sol\":2387:2391  list */\n      dup6\n        /* \"contracts/Auction.sol\":2392:2393  i */\n      dup6\n        /* \"contracts/Auction.sol\":2387:2394  list[i] */\n      dup2\n      mload\n      dup2\n      lt\n      tag_78\n      jumpi\n      tag_79\n      tag_71\n      jump\t// in\n    tag_79:\n    tag_78:\n      0x20\n      mul\n      0x20\n      add\n      add\n        /* \"contracts/Auction.sol\":2387:2432  list[i] = TokenInfo(tokenId, price, tokenURI) */\n      dup2\n      swap1\n      mstore\n      pop\n        /* \"contracts/Auction.sol\":2202:2443  {... */\n      pop\n      pop\n      pop\n        /* \"contracts/Auction.sol\":2198:2201  i++ */\n      dup1\n      dup1\n      tag_80\n      swap1\n      tag_81\n      jump\t// in\n    tag_80:\n      swap2\n      pop\n      pop\n        /* \"contracts/Auction.sol\":2153:2443  for(uint256 i = 0; i < SaleTokenList.length; i++){... */\n      jump(tag_66)\n    tag_67:\n      pop\n        /* \"contracts/Auction.sol\":2461:2465  list */\n      dup1\n        /* \"contracts/Auction.sol\":2454:2465  return list */\n      swap2\n      pop\n      pop\n        /* \"contracts/Auction.sol\":1957:2472  function getSaleTokenList() public view returns (TokenInfo[] memory) {... */\n      swap1\n      jump\t// out\n        /* \"contracts/Auction.sol\":156:173  ERC721 public NFT */\n    tag_25:\n      0x00\n      dup1\n      sload\n      swap1\n      0x0100\n      exp\n      swap1\n      div\n      0xffffffffffffffffffffffffffffffffffffffff\n      and\n      dup2\n      jump\t// out\n        /* \"contracts/Auction.sol\":573:1073  function SalesToken(uint256 _tokenId, uint256 _price) public {... */\n    tag_32:\n        /* \"contracts/Auction.sol\":644:662  address tokenOwner */\n      0x00\n        /* \"contracts/Auction.sol\":665:668  NFT */\n      dup1\n      0x00\n      swap1\n      sload\n      swap1\n      0x0100\n      exp\n      swap1\n      div\n      0xffffffffffffffffffffffffffffffffffffffff\n      and\n        /* \"contracts/Auction.sol\":665:676  NFT.ownerOf */\n      0xffffffffffffffffffffffffffffffffffffffff\n      and\n      0x6352211e\n        /* \"contracts/Auction.sol\":677:685  _tokenId */\n      dup5\n        /* \"contracts/Auction.sol\":665:686  NFT.ownerOf(_tokenId) */\n      mload(0x40)\n      dup3\n      0xffffffff\n      and\n      0xe0\n      shl\n      dup2\n      mstore\n      0x04\n      add\n      tag_83\n      swap2\n      swap1\n      tag_14\n      jump\t// in\n    tag_83:\n      0x20\n      mload(0x40)\n      dup1\n      dup4\n      sub\n      dup2\n      dup7\n      gas\n      staticcall\n      iszero\n      dup1\n      iszero\n      tag_85\n      jumpi\n      returndatasize\n      0x00\n      dup1\n      returndatacopy\n      revert(0x00, returndatasize)\n    tag_85:\n      pop\n      pop\n      pop\n      pop\n      mload(0x40)\n      returndatasize\n      not(0x1f)\n      0x1f\n      dup3\n      add\n      and\n      dup3\n      add\n      dup1\n      0x40\n      mstore\n      pop\n      dup2\n      add\n      swap1\n      tag_86\n      swap2\n      swap1\n      tag_45\n      jump\t// in\n    tag_86:\n        /* \"contracts/Auction.sol\":644:686  address tokenOwner = NFT.ownerOf(_tokenId) */\n      swap1\n      pop\n        /* \"contracts/Auction.sol\":718:728  msg.sender */\n      caller\n        /* \"contracts/Auction.sol\":704:728  tokenOwner == msg.sender */\n      0xffffffffffffffffffffffffffffffffffffffff\n      and\n        /* \"contracts/Auction.sol\":704:714  tokenOwner */\n      dup2\n        /* \"contracts/Auction.sol\":704:728  tokenOwner == msg.sender */\n      0xffffffffffffffffffffffffffffffffffffffff\n      and\n      eq\n        /* \"contracts/Auction.sol\":696:754  require(tokenOwner == msg.sender, \"you are not NFT owner\") */\n      tag_87\n      jumpi\n      mload(0x40)\n      0x08c379a000000000000000000000000000000000000000000000000000000000\n      dup2\n      mstore\n      0x04\n      add\n      tag_88\n      swap1\n      tag_89\n      jump\t// in\n    tag_88:\n      mload(0x40)\n      dup1\n      swap2\n      sub\n      swap1\n      revert\n    tag_87:\n        /* \"contracts/Auction.sol\":781:782  0 */\n      0x00\n        /* \"contracts/Auction.sol\":772:778  _price */\n      dup3\n        /* \"contracts/Auction.sol\":772:782  _price > 0 */\n      gt\n        /* \"contracts/Auction.sol\":764:784  require(_price > 0 ) */\n      tag_90\n      jumpi\n      0x00\n      dup1\n      revert\n    tag_90:\n        /* \"contracts/Auction.sol\":825:826  0 */\n      0x00\n        /* \"contracts/Auction.sol\":802:813  tokenPrices */\n      0x01\n        /* \"contracts/Auction.sol\":802:823  tokenPrices[_tokenId] */\n      0x00\n        /* \"contracts/Auction.sol\":814:822  _tokenId */\n      dup6\n        /* \"contracts/Auction.sol\":802:823  tokenPrices[_tokenId] */\n      dup2\n      mstore\n      0x20\n      add\n      swap1\n      dup2\n      mstore\n      0x20\n      add\n      0x00\n      keccak256\n      sload\n        /* \"contracts/Auction.sol\":802:826  tokenPrices[_tokenId]==0 */\n      eq\n        /* \"contracts/Auction.sol\":794:844  require(tokenPrices[_tokenId]==0, \"Already sale\" ) */\n      tag_91\n      jumpi\n      mload(0x40)\n      0x08c379a000000000000000000000000000000000000000000000000000000000\n      dup2\n      mstore\n      0x04\n      add\n      tag_92\n      swap1\n      tag_93\n      jump\t// in\n    tag_92:\n      mload(0x40)\n      dup1\n      swap2\n      sub\n      swap1\n      revert\n    tag_91:\n        /* \"contracts/Auction.sol\":888:891  NFT */\n      0x00\n      dup1\n      sload\n      swap1\n      0x0100\n      exp\n      swap1\n      div\n      0xffffffffffffffffffffffffffffffffffffffff\n      and\n        /* \"contracts/Auction.sol\":888:908  NFT.isApprovedForAll */\n      0xffffffffffffffffffffffffffffffffffffffff\n      and\n      0xe985e9c5\n        /* \"contracts/Auction.sol\":909:919  msg.sender */\n      caller\n        /* \"contracts/Auction.sol\":929:933  this */\n      address\n        /* \"contracts/Auction.sol\":888:935  NFT.isApprovedForAll(msg.sender, address(this)) */\n      mload(0x40)\n      dup4\n      0xffffffff\n      and\n      0xe0\n      shl\n      dup2\n      mstore\n      0x04\n      add\n      tag_94\n      swap3\n      swap2\n      swap1\n      tag_95\n      jump\t// in\n    tag_94:\n      0x20\n      mload(0x40)\n      dup1\n      dup4\n      sub\n      dup2\n      dup7\n      gas\n      staticcall\n      iszero\n      dup1\n      iszero\n      tag_97\n      jumpi\n      returndatasize\n      0x00\n      dup1\n      returndatacopy\n      revert(0x00, returndatasize)\n    tag_97:\n      pop\n      pop\n      pop\n      pop\n      mload(0x40)\n      returndatasize\n      not(0x1f)\n      0x1f\n      dup3\n      add\n      and\n      dup3\n      add\n      dup1\n      0x40\n      mstore\n      pop\n      dup2\n      add\n      swap1\n      tag_98\n      swap2\n      swap1\n      tag_99\n      jump\t// in\n    tag_98:\n        /* \"contracts/Auction.sol\":880:936  require(NFT.isApprovedForAll(msg.sender, address(this))) */\n      tag_100\n      jumpi\n      0x00\n      dup1\n      revert\n    tag_100:\n        /* \"contracts/Auction.sol\":1022:1028  _price */\n      dup2\n        /* \"contracts/Auction.sol\":998:1009  tokenPrices */\n      0x01\n        /* \"contracts/Auction.sol\":998:1019  tokenPrices[_tokenId] */\n      0x00\n        /* \"contracts/Auction.sol\":1010:1018  _tokenId */\n      dup6\n        /* \"contracts/Auction.sol\":998:1019  tokenPrices[_tokenId] */\n      dup2\n      mstore\n      0x20\n      add\n      swap1\n      dup2\n      mstore\n      0x20\n      add\n      0x00\n      keccak256\n        /* \"contracts/Auction.sol\":998:1028  tokenPrices[_tokenId] = _price */\n      dup2\n      swap1\n      sstore\n      pop\n        /* \"contracts/Auction.sol\":1038:1051  SaleTokenList */\n      0x02\n        /* \"contracts/Auction.sol\":1057:1065  _tokenId */\n      dup4\n        /* \"contracts/Auction.sol\":1038:1066  SaleTokenList.push(_tokenId) */\n      swap1\n      dup1\n      0x01\n      dup2\n      sload\n      add\n      dup1\n      dup3\n      sstore\n      dup1\n      swap2\n      pop\n      pop\n      0x01\n      swap1\n      sub\n      swap1\n      0x00\n      mstore\n      keccak256(0x00, 0x20)\n      add\n      0x00\n      swap1\n      swap2\n      swap1\n      swap2\n      swap1\n      swap2\n      pop\n      sstore\n        /* \"contracts/Auction.sol\":634:1073  {... */\n      pop\n        /* \"contracts/Auction.sol\":573:1073  function SalesToken(uint256 _tokenId, uint256 _price) public {... */\n      pop\n      pop\n      jump\t// out\n        /* \"contracts/Auction.sol\":324:370  mapping(uint256 => uint256) public tokenPrices */\n    tag_36:\n      mstore(0x20, 0x01)\n      dup1\n      0x00\n      mstore\n      keccak256(0x00, 0x40)\n      0x00\n      swap2\n      pop\n      swap1\n      pop\n      sload\n      dup2\n      jump\t// out\n        /* \"contracts/Auction.sol\":1493:1856  function popSaleToken(uint256 _tokenId) private returns (bool){... */\n    tag_56:\n        /* \"contracts/Auction.sol\":1550:1554  bool */\n      0x00\n        /* \"contracts/Auction.sol\":1569:1578  uint256 i */\n      dup1\n        /* \"contracts/Auction.sol\":1581:1582  0 */\n      0x00\n        /* \"contracts/Auction.sol\":1569:1582  uint256 i = 0 */\n      swap1\n      pop\n        /* \"contracts/Auction.sol\":1565:1828  for(uint256 i = 0; i < SaleTokenList.length; i++){... */\n    tag_103:\n        /* \"contracts/Auction.sol\":1588:1601  SaleTokenList */\n      0x02\n        /* \"contracts/Auction.sol\":1588:1608  SaleTokenList.length */\n      dup1\n      sload\n      swap1\n      pop\n        /* \"contracts/Auction.sol\":1584:1585  i */\n      dup2\n        /* \"contracts/Auction.sol\":1584:1608  i < SaleTokenList.length */\n      lt\n        /* \"contracts/Auction.sol\":1565:1828  for(uint256 i = 0; i < SaleTokenList.length; i++){... */\n      iszero\n      tag_104\n      jumpi\n        /* \"contracts/Auction.sol\":1651:1659  _tokenId */\n      dup3\n        /* \"contracts/Auction.sol\":1631:1644  SaleTokenList */\n      0x02\n        /* \"contracts/Auction.sol\":1645:1646  i */\n      dup3\n        /* \"contracts/Auction.sol\":1631:1647  SaleTokenList[i] */\n      dup2\n      sload\n      dup2\n      lt\n      tag_106\n      jumpi\n      tag_107\n      tag_71\n      jump\t// in\n    tag_107:\n    tag_106:\n      swap1\n      0x00\n      mstore\n      keccak256(0x00, 0x20)\n      add\n      sload\n        /* \"contracts/Auction.sol\":1631:1659  SaleTokenList[i] == _tokenId */\n      sub\n        /* \"contracts/Auction.sol\":1628:1818  if(SaleTokenList[i] == _tokenId) {... */\n      tag_109\n      jumpi\n        /* \"contracts/Auction.sol\":1698:1711  SaleTokenList */\n      0x02\n        /* \"contracts/Auction.sol\":1735:1736  1 */\n      0x01\n        /* \"contracts/Auction.sol\":1712:1725  SaleTokenList */\n      0x02\n        /* \"contracts/Auction.sol\":1712:1732  SaleTokenList.length */\n      dup1\n      sload\n      swap1\n      pop\n        /* \"contracts/Auction.sol\":1712:1736  SaleTokenList.length - 1 */\n      tag_110\n      swap2\n      swap1\n      tag_111\n      jump\t// in\n    tag_110:\n        /* \"contracts/Auction.sol\":1698:1737  SaleTokenList[SaleTokenList.length - 1] */\n      dup2\n      sload\n      dup2\n      lt\n      tag_112\n      jumpi\n      tag_113\n      tag_71\n      jump\t// in\n    tag_113:\n    tag_112:\n      swap1\n      0x00\n      mstore\n      keccak256(0x00, 0x20)\n      add\n      sload\n        /* \"contracts/Auction.sol\":1679:1692  SaleTokenList */\n      0x02\n        /* \"contracts/Auction.sol\":1693:1694  i */\n      dup3\n        /* \"contracts/Auction.sol\":1679:1695  SaleTokenList[i] */\n      dup2\n      sload\n      dup2\n      lt\n      tag_115\n      jumpi\n      tag_116\n      tag_71\n      jump\t// in\n    tag_116:\n    tag_115:\n      swap1\n      0x00\n      mstore\n      keccak256(0x00, 0x20)\n      add\n        /* \"contracts/Auction.sol\":1679:1737  SaleTokenList[i] = SaleTokenList[SaleTokenList.length - 1] */\n      dup2\n      swap1\n      sstore\n      pop\n        /* \"contracts/Auction.sol\":1755:1768  SaleTokenList */\n      0x02\n        /* \"contracts/Auction.sol\":1755:1774  SaleTokenList.pop() */\n      dup1\n      sload\n      dup1\n      tag_118\n      jumpi\n      tag_119\n      tag_120\n      jump\t// in\n    tag_119:\n    tag_118:\n      0x01\n      swap1\n      sub\n      dup2\n      dup2\n      swap1\n      0x00\n      mstore\n      keccak256(0x00, 0x20)\n      add\n      0x00\n      swap1\n      sstore\n      swap1\n      sstore\n        /* \"contracts/Auction.sol\":1799:1803  true */\n      0x01\n        /* \"contracts/Auction.sol\":1792:1803  return true */\n      swap2\n      pop\n      pop\n      jump(tag_102)\n        /* \"contracts/Auction.sol\":1628:1818  if(SaleTokenList[i] == _tokenId) {... */\n    tag_109:\n        /* \"contracts/Auction.sol\":1610:1613  i++ */\n      dup1\n      dup1\n      tag_122\n      swap1\n      tag_81\n      jump\t// in\n    tag_122:\n      swap2\n      pop\n      pop\n        /* \"contracts/Auction.sol\":1565:1828  for(uint256 i = 0; i < SaleTokenList.length; i++){... */\n      jump(tag_103)\n    tag_104:\n      pop\n        /* \"contracts/Auction.sol\":1844:1849  false */\n      0x00\n        /* \"contracts/Auction.sol\":1837:1849  return false */\n      swap1\n      pop\n        /* \"contracts/Auction.sol\":1493:1856  function popSaleToken(uint256 _tokenId) private returns (bool){... */\n    tag_102:\n      swap2\n      swap1\n      pop\n      jump\t// out\n    tag_65:\n      mload(0x40)\n      dup1\n      0x60\n      add\n      0x40\n      mstore\n      dup1\n      0x00\n      dup2\n      mstore\n      0x20\n      add\n      0x00\n      dup2\n      mstore\n      0x20\n      add\n      0x60\n      dup2\n      mstore\n      pop\n      swap1\n      jump\t// out\n        /* \"#utility.yul\":7:82   */\n    tag_123:\n        /* \"#utility.yul\":40:46   */\n      0x00\n        /* \"#utility.yul\":73:75   */\n      0x40\n        /* \"#utility.yul\":67:76   */\n      mload\n        /* \"#utility.yul\":57:76   */\n      swap1\n      pop\n        /* \"#utility.yul\":7:82   */\n      swap1\n      jump\t// out\n        /* \"#utility.yul\":88:205   */\n    tag_124:\n        /* \"#utility.yul\":197:198   */\n      0x00\n        /* \"#utility.yul\":194:195   */\n      dup1\n        /* \"#utility.yul\":187:199   */\n      revert\n        /* \"#utility.yul\":211:328   */\n    tag_125:\n        /* \"#utility.yul\":320:321   */\n      0x00\n        /* \"#utility.yul\":317:318   */\n      dup1\n        /* \"#utility.yul\":310:322   */\n      revert\n        /* \"#utility.yul\":334:411   */\n    tag_126:\n        /* \"#utility.yul\":371:378   */\n      0x00\n        /* \"#utility.yul\":400:405   */\n      dup2\n        /* \"#utility.yul\":389:405   */\n      swap1\n      pop\n        /* \"#utility.yul\":334:411   */\n      swap2\n      swap1\n      pop\n      jump\t// out\n        /* \"#utility.yul\":417:539   */\n    tag_127:\n        /* \"#utility.yul\":490:514   */\n      tag_175\n        /* \"#utility.yul\":508:513   */\n      dup2\n        /* \"#utility.yul\":490:514   */\n      tag_126\n      jump\t// in\n    tag_175:\n        /* \"#utility.yul\":483:488   */\n      dup2\n        /* \"#utility.yul\":480:515   */\n      eq\n        /* \"#utility.yul\":470:533   */\n      tag_176\n      jumpi\n        /* \"#utility.yul\":529:530   */\n      0x00\n        /* \"#utility.yul\":526:527   */\n      dup1\n        /* \"#utility.yul\":519:531   */\n      revert\n        /* \"#utility.yul\":470:533   */\n    tag_176:\n        /* \"#utility.yul\":417:539   */\n      pop\n      jump\t// out\n        /* \"#utility.yul\":545:684   */\n    tag_128:\n        /* \"#utility.yul\":591:596   */\n      0x00\n        /* \"#utility.yul\":629:635   */\n      dup2\n        /* \"#utility.yul\":616:636   */\n      calldataload\n        /* \"#utility.yul\":607:636   */\n      swap1\n      pop\n        /* \"#utility.yul\":645:678   */\n      tag_178\n        /* \"#utility.yul\":672:677   */\n      dup2\n        /* \"#utility.yul\":645:678   */\n      tag_127\n      jump\t// in\n    tag_178:\n        /* \"#utility.yul\":545:684   */\n      swap3\n      swap2\n      pop\n      pop\n      jump\t// out\n        /* \"#utility.yul\":690:1019   */\n    tag_11:\n        /* \"#utility.yul\":749:755   */\n      0x00\n        /* \"#utility.yul\":798:800   */\n      0x20\n        /* \"#utility.yul\":786:795   */\n      dup3\n        /* \"#utility.yul\":777:784   */\n      dup5\n        /* \"#utility.yul\":773:796   */\n      sub\n        /* \"#utility.yul\":769:801   */\n      slt\n        /* \"#utility.yul\":766:885   */\n      iszero\n      tag_180\n      jumpi\n        /* \"#utility.yul\":804:883   */\n      tag_181\n      tag_124\n      jump\t// in\n    tag_181:\n        /* \"#utility.yul\":766:885   */\n    tag_180:\n        /* \"#utility.yul\":924:925   */\n      0x00\n        /* \"#utility.yul\":949:1002   */\n      tag_182\n        /* \"#utility.yul\":994:1001   */\n      dup5\n        /* \"#utility.yul\":985:991   */\n      dup3\n        /* \"#utility.yul\":974:983   */\n      dup6\n        /* \"#utility.yul\":970:992   */\n      add\n        /* \"#utility.yul\":949:1002   */\n      tag_128\n      jump\t// in\n    tag_182:\n        /* \"#utility.yul\":939:1002   */\n      swap2\n      pop\n        /* \"#utility.yul\":895:1012   */\n      pop\n        /* \"#utility.yul\":690:1019   */\n      swap3\n      swap2\n      pop\n      pop\n      jump\t// out\n        /* \"#utility.yul\":1025:1143   */\n    tag_129:\n        /* \"#utility.yul\":1112:1136   */\n      tag_184\n        /* \"#utility.yul\":1130:1135   */\n      dup2\n        /* \"#utility.yul\":1112:1136   */\n      tag_126\n      jump\t// in\n    tag_184:\n        /* \"#utility.yul\":1107:1110   */\n      dup3\n        /* \"#utility.yul\":1100:1137   */\n      mstore\n        /* \"#utility.yul\":1025:1143   */\n      pop\n      pop\n      jump\t// out\n        /* \"#utility.yul\":1149:1371   */\n    tag_14:\n        /* \"#utility.yul\":1242:1246   */\n      0x00\n        /* \"#utility.yul\":1280:1282   */\n      0x20\n        /* \"#utility.yul\":1269:1278   */\n      dup3\n        /* \"#utility.yul\":1265:1283   */\n      add\n        /* \"#utility.yul\":1257:1283   */\n      swap1\n      pop\n        /* \"#utility.yul\":1293:1364   */\n      tag_186\n        /* \"#utility.yul\":1361:1362   */\n      0x00\n        /* \"#utility.yul\":1350:1359   */\n      dup4\n        /* \"#utility.yul\":1346:1363   */\n      add\n        /* \"#utility.yul\":1337:1343   */\n      dup5\n        /* \"#utility.yul\":1293:1364   */\n      tag_129\n      jump\t// in\n    tag_186:\n        /* \"#utility.yul\":1149:1371   */\n      swap3\n      swap2\n      pop\n      pop\n      jump\t// out\n        /* \"#utility.yul\":1377:1516   */\n    tag_130:\n        /* \"#utility.yul\":1469:1475   */\n      0x00\n        /* \"#utility.yul\":1503:1508   */\n      dup2\n        /* \"#utility.yul\":1497:1509   */\n      mload\n        /* \"#utility.yul\":1487:1509   */\n      swap1\n      pop\n        /* \"#utility.yul\":1377:1516   */\n      swap2\n      swap1\n      pop\n      jump\t// out\n        /* \"#utility.yul\":1522:1731   */\n    tag_131:\n        /* \"#utility.yul\":1646:1657   */\n      0x00\n        /* \"#utility.yul\":1680:1686   */\n      dup3\n        /* \"#utility.yul\":1675:1678   */\n      dup3\n        /* \"#utility.yul\":1668:1687   */\n      mstore\n        /* \"#utility.yul\":1720:1724   */\n      0x20\n        /* \"#utility.yul\":1715:1718   */\n      dup3\n        /* \"#utility.yul\":1711:1725   */\n      add\n        /* \"#utility.yul\":1696:1725   */\n      swap1\n      pop\n        /* \"#utility.yul\":1522:1731   */\n      swap3\n      swap2\n      pop\n      pop\n      jump\t// out\n        /* \"#utility.yul\":1737:1894   */\n    tag_132:\n        /* \"#utility.yul\":1829:1833   */\n      0x00\n        /* \"#utility.yul\":1852:1855   */\n      dup2\n        /* \"#utility.yul\":1844:1855   */\n      swap1\n      pop\n        /* \"#utility.yul\":1882:1886   */\n      0x20\n        /* \"#utility.yul\":1877:1880   */\n      dup3\n        /* \"#utility.yul\":1873:1887   */\n      add\n        /* \"#utility.yul\":1865:1887   */\n      swap1\n      pop\n        /* \"#utility.yul\":1737:1894   */\n      swap2\n      swap1\n      pop\n      jump\t// out\n        /* \"#utility.yul\":1900:2008   */\n    tag_133:\n        /* \"#utility.yul\":1977:2001   */\n      tag_191\n        /* \"#utility.yul\":1995:2000   */\n      dup2\n        /* \"#utility.yul\":1977:2001   */\n      tag_126\n      jump\t// in\n    tag_191:\n        /* \"#utility.yul\":1972:1975   */\n      dup3\n        /* \"#utility.yul\":1965:2002   */\n      mstore\n        /* \"#utility.yul\":1900:2008   */\n      pop\n      pop\n      jump\t// out\n        /* \"#utility.yul\":2014:2113   */\n    tag_134:\n        /* \"#utility.yul\":2066:2072   */\n      0x00\n        /* \"#utility.yul\":2100:2105   */\n      dup2\n        /* \"#utility.yul\":2094:2106   */\n      mload\n        /* \"#utility.yul\":2084:2106   */\n      swap1\n      pop\n        /* \"#utility.yul\":2014:2113   */\n      swap2\n      swap1\n      pop\n      jump\t// out\n        /* \"#utility.yul\":2119:2278   */\n    tag_135:\n        /* \"#utility.yul\":2193:2204   */\n      0x00\n        /* \"#utility.yul\":2227:2233   */\n      dup3\n        /* \"#utility.yul\":2222:2225   */\n      dup3\n        /* \"#utility.yul\":2215:2234   */\n      mstore\n        /* \"#utility.yul\":2267:2271   */\n      0x20\n        /* \"#utility.yul\":2262:2265   */\n      dup3\n        /* \"#utility.yul\":2258:2272   */\n      add\n        /* \"#utility.yul\":2243:2272   */\n      swap1\n      pop\n        /* \"#utility.yul\":2119:2278   */\n      swap3\n      swap2\n      pop\n      pop\n      jump\t// out\n        /* \"#utility.yul\":2284:2530   */\n    tag_136:\n        /* \"#utility.yul\":2365:2366   */\n      0x00\n        /* \"#utility.yul\":2375:2488   */\n    tag_195:\n        /* \"#utility.yul\":2389:2395   */\n      dup4\n        /* \"#utility.yul\":2386:2387   */\n      dup2\n        /* \"#utility.yul\":2383:2396   */\n      lt\n        /* \"#utility.yul\":2375:2488   */\n      iszero\n      tag_197\n      jumpi\n        /* \"#utility.yul\":2474:2475   */\n      dup1\n        /* \"#utility.yul\":2469:2472   */\n      dup3\n        /* \"#utility.yul\":2465:2476   */\n      add\n        /* \"#utility.yul\":2459:2477   */\n      mload\n        /* \"#utility.yul\":2455:2456   */\n      dup2\n        /* \"#utility.yul\":2450:2453   */\n      dup5\n        /* \"#utility.yul\":2446:2457   */\n      add\n        /* \"#utility.yul\":2439:2478   */\n      mstore\n        /* \"#utility.yul\":2411:2413   */\n      0x20\n        /* \"#utility.yul\":2408:2409   */\n      dup2\n        /* \"#utility.yul\":2404:2414   */\n      add\n        /* \"#utility.yul\":2399:2414   */\n      swap1\n      pop\n        /* \"#utility.yul\":2375:2488   */\n      jump(tag_195)\n    tag_197:\n        /* \"#utility.yul\":2522:2523   */\n      0x00\n        /* \"#utility.yul\":2513:2519   */\n      dup5\n        /* \"#utility.yul\":2508:2511   */\n      dup5\n        /* \"#utility.yul\":2504:2520   */\n      add\n        /* \"#utility.yul\":2497:2524   */\n      mstore\n        /* \"#utility.yul\":2346:2530   */\n      pop\n        /* \"#utility.yul\":2284:2530   */\n      pop\n      pop\n      pop\n      jump\t// out\n        /* \"#utility.yul\":2536:2638   */\n    tag_137:\n        /* \"#utility.yul\":2577:2583   */\n      0x00\n        /* \"#utility.yul\":2628:2630   */\n      0x1f\n        /* \"#utility.yul\":2624:2631   */\n      not\n        /* \"#utility.yul\":2619:2621   */\n      0x1f\n        /* \"#utility.yul\":2612:2617   */\n      dup4\n        /* \"#utility.yul\":2608:2622   */\n      add\n        /* \"#utility.yul\":2604:2632   */\n      and\n        /* \"#utility.yul\":2594:2632   */\n      swap1\n      pop\n        /* \"#utility.yul\":2536:2638   */\n      swap2\n      swap1\n      pop\n      jump\t// out\n        /* \"#utility.yul\":2644:3001   */\n    tag_138:\n        /* \"#utility.yul\":2722:2725   */\n      0x00\n        /* \"#utility.yul\":2750:2789   */\n      tag_200\n        /* \"#utility.yul\":2783:2788   */\n      dup3\n        /* \"#utility.yul\":2750:2789   */\n      tag_134\n      jump\t// in\n    tag_200:\n        /* \"#utility.yul\":2805:2866   */\n      tag_201\n        /* \"#utility.yul\":2859:2865   */\n      dup2\n        /* \"#utility.yul\":2854:2857   */\n      dup6\n        /* \"#utility.yul\":2805:2866   */\n      tag_135\n      jump\t// in\n    tag_201:\n        /* \"#utility.yul\":2798:2866   */\n      swap4\n      pop\n        /* \"#utility.yul\":2875:2940   */\n      tag_202\n        /* \"#utility.yul\":2933:2939   */\n      dup2\n        /* \"#utility.yul\":2928:2931   */\n      dup6\n        /* \"#utility.yul\":2921:2925   */\n      0x20\n        /* \"#utility.yul\":2914:2919   */\n      dup7\n        /* \"#utility.yul\":2910:2926   */\n      add\n        /* \"#utility.yul\":2875:2940   */\n      tag_136\n      jump\t// in\n    tag_202:\n        /* \"#utility.yul\":2965:2994   */\n      tag_203\n        /* \"#utility.yul\":2987:2993   */\n      dup2\n        /* \"#utility.yul\":2965:2994   */\n      tag_137\n      jump\t// in\n    tag_203:\n        /* \"#utility.yul\":2960:2963   */\n      dup5\n        /* \"#utility.yul\":2956:2995   */\n      add\n        /* \"#utility.yul\":2949:2995   */\n      swap2\n      pop\n        /* \"#utility.yul\":2726:3001   */\n      pop\n        /* \"#utility.yul\":2644:3001   */\n      swap3\n      swap2\n      pop\n      pop\n      jump\t// out\n        /* \"#utility.yul\":3067:3845   */\n    tag_139:\n        /* \"#utility.yul\":3176:3179   */\n      0x00\n        /* \"#utility.yul\":3212:3216   */\n      0x60\n        /* \"#utility.yul\":3207:3210   */\n      dup4\n        /* \"#utility.yul\":3203:3217   */\n      add\n        /* \"#utility.yul\":3302:3306   */\n      0x00\n        /* \"#utility.yul\":3295:3300   */\n      dup4\n        /* \"#utility.yul\":3291:3307   */\n      add\n        /* \"#utility.yul\":3285:3308   */\n      mload\n        /* \"#utility.yul\":3321:3384   */\n      tag_205\n        /* \"#utility.yul\":3378:3382   */\n      0x00\n        /* \"#utility.yul\":3373:3376   */\n      dup7\n        /* \"#utility.yul\":3369:3383   */\n      add\n        /* \"#utility.yul\":3355:3367   */\n      dup3\n        /* \"#utility.yul\":3321:3384   */\n      tag_133\n      jump\t// in\n    tag_205:\n        /* \"#utility.yul\":3227:3394   */\n      pop\n        /* \"#utility.yul\":3477:3481   */\n      0x20\n        /* \"#utility.yul\":3470:3475   */\n      dup4\n        /* \"#utility.yul\":3466:3482   */\n      add\n        /* \"#utility.yul\":3460:3483   */\n      mload\n        /* \"#utility.yul\":3496:3559   */\n      tag_206\n        /* \"#utility.yul\":3553:3557   */\n      0x20\n        /* \"#utility.yul\":3548:3551   */\n      dup7\n        /* \"#utility.yul\":3544:3558   */\n      add\n        /* \"#utility.yul\":3530:3542   */\n      dup3\n        /* \"#utility.yul\":3496:3559   */\n      tag_133\n      jump\t// in\n    tag_206:\n        /* \"#utility.yul\":3404:3569   */\n      pop\n        /* \"#utility.yul\":3655:3659   */\n      0x40\n        /* \"#utility.yul\":3648:3653   */\n      dup4\n        /* \"#utility.yul\":3644:3660   */\n      add\n        /* \"#utility.yul\":3638:3661   */\n      mload\n        /* \"#utility.yul\":3708:3711   */\n      dup5\n        /* \"#utility.yul\":3702:3706   */\n      dup3\n        /* \"#utility.yul\":3698:3712   */\n      sub\n        /* \"#utility.yul\":3691:3695   */\n      0x40\n        /* \"#utility.yul\":3686:3689   */\n      dup7\n        /* \"#utility.yul\":3682:3696   */\n      add\n        /* \"#utility.yul\":3675:3713   */\n      mstore\n        /* \"#utility.yul\":3734:3807   */\n      tag_207\n        /* \"#utility.yul\":3802:3806   */\n      dup3\n        /* \"#utility.yul\":3788:3800   */\n      dup3\n        /* \"#utility.yul\":3734:3807   */\n      tag_138\n      jump\t// in\n    tag_207:\n        /* \"#utility.yul\":3726:3807   */\n      swap2\n      pop\n        /* \"#utility.yul\":3579:3818   */\n      pop\n        /* \"#utility.yul\":3835:3839   */\n      dup1\n        /* \"#utility.yul\":3828:3839   */\n      swap2\n      pop\n        /* \"#utility.yul\":3181:3845   */\n      pop\n        /* \"#utility.yul\":3067:3845   */\n      swap3\n      swap2\n      pop\n      pop\n      jump\t// out\n        /* \"#utility.yul\":3851:4107   */\n    tag_140:\n        /* \"#utility.yul\":3970:3980   */\n      0x00\n        /* \"#utility.yul\":4005:4101   */\n      tag_209\n        /* \"#utility.yul\":4097:4100   */\n      dup4\n        /* \"#utility.yul\":4089:4095   */\n      dup4\n        /* \"#utility.yul\":4005:4101   */\n      tag_139\n      jump\t// in\n    tag_209:\n        /* \"#utility.yul\":3991:4101   */\n      swap1\n      pop\n        /* \"#utility.yul\":3851:4107   */\n      swap3\n      swap2\n      pop\n      pop\n      jump\t// out\n        /* \"#utility.yul\":4113:4251   */\n    tag_141:\n        /* \"#utility.yul\":4208:4212   */\n      0x00\n        /* \"#utility.yul\":4240:4244   */\n      0x20\n        /* \"#utility.yul\":4235:4238   */\n      dup3\n        /* \"#utility.yul\":4231:4245   */\n      add\n        /* \"#utility.yul\":4223:4245   */\n      swap1\n      pop\n        /* \"#utility.yul\":4113:4251   */\n      swap2\n      swap1\n      pop\n      jump\t// out\n        /* \"#utility.yul\":4321:5432   */\n    tag_142:\n        /* \"#utility.yul\":4490:4493   */\n      0x00\n        /* \"#utility.yul\":4519:4598   */\n      tag_212\n        /* \"#utility.yul\":4592:4597   */\n      dup3\n        /* \"#utility.yul\":4519:4598   */\n      tag_130\n      jump\t// in\n    tag_212:\n        /* \"#utility.yul\":4614:4725   */\n      tag_213\n        /* \"#utility.yul\":4718:4724   */\n      dup2\n        /* \"#utility.yul\":4713:4716   */\n      dup6\n        /* \"#utility.yul\":4614:4725   */\n      tag_131\n      jump\t// in\n    tag_213:\n        /* \"#utility.yul\":4607:4725   */\n      swap4\n      pop\n        /* \"#utility.yul\":4751:4754   */\n      dup4\n        /* \"#utility.yul\":4796:4800   */\n      0x20\n        /* \"#utility.yul\":4788:4794   */\n      dup3\n        /* \"#utility.yul\":4784:4801   */\n      mul\n        /* \"#utility.yul\":4779:4782   */\n      dup6\n        /* \"#utility.yul\":4775:4802   */\n      add\n        /* \"#utility.yul\":4826:4907   */\n      tag_214\n        /* \"#utility.yul\":4901:4906   */\n      dup6\n        /* \"#utility.yul\":4826:4907   */\n      tag_132\n      jump\t// in\n    tag_214:\n        /* \"#utility.yul\":4930:4937   */\n      dup1\n        /* \"#utility.yul\":4961:4962   */\n      0x00\n        /* \"#utility.yul\":4946:5387   */\n    tag_215:\n        /* \"#utility.yul\":4971:4977   */\n      dup6\n        /* \"#utility.yul\":4968:4969   */\n      dup2\n        /* \"#utility.yul\":4965:4978   */\n      lt\n        /* \"#utility.yul\":4946:5387   */\n      iszero\n      tag_217\n      jumpi\n        /* \"#utility.yul\":5042:5051   */\n      dup5\n        /* \"#utility.yul\":5036:5040   */\n      dup5\n        /* \"#utility.yul\":5032:5052   */\n      sub\n        /* \"#utility.yul\":5027:5030   */\n      dup10\n        /* \"#utility.yul\":5020:5053   */\n      mstore\n        /* \"#utility.yul\":5093:5099   */\n      dup2\n        /* \"#utility.yul\":5087:5100   */\n      mload\n        /* \"#utility.yul\":5121:5235   */\n      tag_218\n        /* \"#utility.yul\":5230:5234   */\n      dup6\n        /* \"#utility.yul\":5215:5228   */\n      dup3\n        /* \"#utility.yul\":5121:5235   */\n      tag_140\n      jump\t// in\n    tag_218:\n        /* \"#utility.yul\":5113:5235   */\n      swap5\n      pop\n        /* \"#utility.yul\":5258:5343   */\n      tag_219\n        /* \"#utility.yul\":5336:5342   */\n      dup4\n        /* \"#utility.yul\":5258:5343   */\n      tag_141\n      jump\t// in\n    tag_219:\n        /* \"#utility.yul\":5248:5343   */\n      swap3\n      pop\n        /* \"#utility.yul\":5372:5376   */\n      0x20\n        /* \"#utility.yul\":5367:5370   */\n      dup11\n        /* \"#utility.yul\":5363:5377   */\n      add\n        /* \"#utility.yul\":5356:5377   */\n      swap10\n      pop\n        /* \"#utility.yul\":5006:5387   */\n      pop\n        /* \"#utility.yul\":4993:4994   */\n      0x01\n        /* \"#utility.yul\":4990:4991   */\n      dup2\n        /* \"#utility.yul\":4986:4995   */\n      add\n        /* \"#utility.yul\":4981:4995   */\n      swap1\n      pop\n        /* \"#utility.yul\":4946:5387   */\n      jump(tag_215)\n    tag_217:\n        /* \"#utility.yul\":4950:4964   */\n      pop\n        /* \"#utility.yul\":5403:5407   */\n      dup3\n        /* \"#utility.yul\":5396:5407   */\n      swap8\n      pop\n        /* \"#utility.yul\":5423:5426   */\n      dup8\n        /* \"#utility.yul\":5416:5426   */\n      swap6\n      pop\n        /* \"#utility.yul\":4495:5432   */\n      pop\n      pop\n      pop\n      pop\n      pop\n        /* \"#utility.yul\":4321:5432   */\n      swap3\n      swap2\n      pop\n      pop\n      jump\t// out\n        /* \"#utility.yul\":5438:5911   */\n    tag_22:\n        /* \"#utility.yul\":5631:5635   */\n      0x00\n        /* \"#utility.yul\":5669:5671   */\n      0x20\n        /* \"#utility.yul\":5658:5667   */\n      dup3\n        /* \"#utility.yul\":5654:5672   */\n      add\n        /* \"#utility.yul\":5646:5672   */\n      swap1\n      pop\n        /* \"#utility.yul\":5718:5727   */\n      dup2\n        /* \"#utility.yul\":5712:5716   */\n      dup2\n        /* \"#utility.yul\":5708:5728   */\n      sub\n        /* \"#utility.yul\":5704:5705   */\n      0x00\n        /* \"#utility.yul\":5693:5702   */\n      dup4\n        /* \"#utility.yul\":5689:5706   */\n      add\n        /* \"#utility.yul\":5682:5729   */\n      mstore\n        /* \"#utility.yul\":5746:5904   */\n      tag_221\n        /* \"#utility.yul\":5899:5903   */\n      dup2\n        /* \"#utility.yul\":5890:5896   */\n      dup5\n        /* \"#utility.yul\":5746:5904   */\n      tag_142\n      jump\t// in\n    tag_221:\n        /* \"#utility.yul\":5738:5904   */\n      swap1\n      pop\n        /* \"#utility.yul\":5438:5911   */\n      swap3\n      swap2\n      pop\n      pop\n      jump\t// out\n        /* \"#utility.yul\":5917:6043   */\n    tag_143:\n        /* \"#utility.yul\":5954:5961   */\n      0x00\n        /* \"#utility.yul\":5994:6036   */\n      0xffffffffffffffffffffffffffffffffffffffff\n        /* \"#utility.yul\":5987:5992   */\n      dup3\n        /* \"#utility.yul\":5983:6037   */\n      and\n        /* \"#utility.yul\":5972:6037   */\n      swap1\n      pop\n        /* \"#utility.yul\":5917:6043   */\n      swap2\n      swap1\n      pop\n      jump\t// out\n        /* \"#utility.yul\":6049:6109   */\n    tag_144:\n        /* \"#utility.yul\":6077:6080   */\n      0x00\n        /* \"#utility.yul\":6098:6103   */\n      dup2\n        /* \"#utility.yul\":6091:6103   */\n      swap1\n      pop\n        /* \"#utility.yul\":6049:6109   */\n      swap2\n      swap1\n      pop\n      jump\t// out\n        /* \"#utility.yul\":6115:6257   */\n    tag_145:\n        /* \"#utility.yul\":6165:6174   */\n      0x00\n        /* \"#utility.yul\":6198:6251   */\n      tag_225\n        /* \"#utility.yul\":6216:6250   */\n      tag_226\n        /* \"#utility.yul\":6225:6249   */\n      tag_227\n        /* \"#utility.yul\":6243:6248   */\n      dup5\n        /* \"#utility.yul\":6225:6249   */\n      tag_143\n      jump\t// in\n    tag_227:\n        /* \"#utility.yul\":6216:6250   */\n      tag_144\n      jump\t// in\n    tag_226:\n        /* \"#utility.yul\":6198:6251   */\n      tag_143\n      jump\t// in\n    tag_225:\n        /* \"#utility.yul\":6185:6251   */\n      swap1\n      pop\n        /* \"#utility.yul\":6115:6257   */\n      swap2\n      swap1\n      pop\n      jump\t// out\n        /* \"#utility.yul\":6263:6389   */\n    tag_146:\n        /* \"#utility.yul\":6313:6322   */\n      0x00\n        /* \"#utility.yul\":6346:6383   */\n      tag_229\n        /* \"#utility.yul\":6377:6382   */\n      dup3\n        /* \"#utility.yul\":6346:6383   */\n      tag_145\n      jump\t// in\n    tag_229:\n        /* \"#utility.yul\":6333:6383   */\n      swap1\n      pop\n        /* \"#utility.yul\":6263:6389   */\n      swap2\n      swap1\n      pop\n      jump\t// out\n        /* \"#utility.yul\":6395:6536   */\n    tag_147:\n        /* \"#utility.yul\":6460:6469   */\n      0x00\n        /* \"#utility.yul\":6493:6530   */\n      tag_231\n        /* \"#utility.yul\":6524:6529   */\n      dup3\n        /* \"#utility.yul\":6493:6530   */\n      tag_146\n      jump\t// in\n    tag_231:\n        /* \"#utility.yul\":6480:6530   */\n      swap1\n      pop\n        /* \"#utility.yul\":6395:6536   */\n      swap2\n      swap1\n      pop\n      jump\t// out\n        /* \"#utility.yul\":6542:6703   */\n    tag_148:\n        /* \"#utility.yul\":6644:6696   */\n      tag_233\n        /* \"#utility.yul\":6690:6695   */\n      dup2\n        /* \"#utility.yul\":6644:6696   */\n      tag_147\n      jump\t// in\n    tag_233:\n        /* \"#utility.yul\":6639:6642   */\n      dup3\n        /* \"#utility.yul\":6632:6697   */\n      mstore\n        /* \"#utility.yul\":6542:6703   */\n      pop\n      pop\n      jump\t// out\n        /* \"#utility.yul\":6709:6961   */\n    tag_27:\n        /* \"#utility.yul\":6817:6821   */\n      0x00\n        /* \"#utility.yul\":6855:6857   */\n      0x20\n        /* \"#utility.yul\":6844:6853   */\n      dup3\n        /* \"#utility.yul\":6840:6858   */\n      add\n        /* \"#utility.yul\":6832:6858   */\n      swap1\n      pop\n        /* \"#utility.yul\":6868:6954   */\n      tag_235\n        /* \"#utility.yul\":6951:6952   */\n      0x00\n        /* \"#utility.yul\":6940:6949   */\n      dup4\n        /* \"#utility.yul\":6936:6953   */\n      add\n        /* \"#utility.yul\":6927:6933   */\n      dup5\n        /* \"#utility.yul\":6868:6954   */\n      tag_148\n      jump\t// in\n    tag_235:\n        /* \"#utility.yul\":6709:6961   */\n      swap3\n      swap2\n      pop\n      pop\n      jump\t// out\n        /* \"#utility.yul\":6967:7441   */\n    tag_31:\n        /* \"#utility.yul\":7035:7041   */\n      0x00\n        /* \"#utility.yul\":7043:7049   */\n      dup1\n        /* \"#utility.yul\":7092:7094   */\n      0x40\n        /* \"#utility.yul\":7080:7089   */\n      dup4\n        /* \"#utility.yul\":7071:7078   */\n      dup6\n        /* \"#utility.yul\":7067:7090   */\n      sub\n        /* \"#utility.yul\":7063:7095   */\n      slt\n        /* \"#utility.yul\":7060:7179   */\n      iszero\n      tag_237\n      jumpi\n        /* \"#utility.yul\":7098:7177   */\n      tag_238\n      tag_124\n      jump\t// in\n    tag_238:\n        /* \"#utility.yul\":7060:7179   */\n    tag_237:\n        /* \"#utility.yul\":7218:7219   */\n      0x00\n        /* \"#utility.yul\":7243:7296   */\n      tag_239\n        /* \"#utility.yul\":7288:7295   */\n      dup6\n        /* \"#utility.yul\":7279:7285   */\n      dup3\n        /* \"#utility.yul\":7268:7277   */\n      dup7\n        /* \"#utility.yul\":7264:7286   */\n      add\n        /* \"#utility.yul\":7243:7296   */\n      tag_128\n      jump\t// in\n    tag_239:\n        /* \"#utility.yul\":7233:7296   */\n      swap3\n      pop\n        /* \"#utility.yul\":7189:7306   */\n      pop\n        /* \"#utility.yul\":7345:7347   */\n      0x20\n        /* \"#utility.yul\":7371:7424   */\n      tag_240\n        /* \"#utility.yul\":7416:7423   */\n      dup6\n        /* \"#utility.yul\":7407:7413   */\n      dup3\n        /* \"#utility.yul\":7396:7405   */\n      dup7\n        /* \"#utility.yul\":7392:7414   */\n      add\n        /* \"#utility.yul\":7371:7424   */\n      tag_128\n      jump\t// in\n    tag_240:\n        /* \"#utility.yul\":7361:7424   */\n      swap2\n      pop\n        /* \"#utility.yul\":7316:7434   */\n      pop\n        /* \"#utility.yul\":6967:7441   */\n      swap3\n      pop\n      swap3\n      swap1\n      pop\n      jump\t// out\n        /* \"#utility.yul\":7447:7543   */\n    tag_149:\n        /* \"#utility.yul\":7484:7491   */\n      0x00\n        /* \"#utility.yul\":7513:7537   */\n      tag_242\n        /* \"#utility.yul\":7531:7536   */\n      dup3\n        /* \"#utility.yul\":7513:7537   */\n      tag_143\n      jump\t// in\n    tag_242:\n        /* \"#utility.yul\":7502:7537   */\n      swap1\n      pop\n        /* \"#utility.yul\":7447:7543   */\n      swap2\n      swap1\n      pop\n      jump\t// out\n        /* \"#utility.yul\":7549:7671   */\n    tag_150:\n        /* \"#utility.yul\":7622:7646   */\n      tag_244\n        /* \"#utility.yul\":7640:7645   */\n      dup2\n        /* \"#utility.yul\":7622:7646   */\n      tag_149\n      jump\t// in\n    tag_244:\n        /* \"#utility.yul\":7615:7620   */\n      dup2\n        /* \"#utility.yul\":7612:7647   */\n      eq\n        /* \"#utility.yul\":7602:7665   */\n      tag_245\n      jumpi\n        /* \"#utility.yul\":7661:7662   */\n      0x00\n        /* \"#utility.yul\":7658:7659   */\n      dup1\n        /* \"#utility.yul\":7651:7663   */\n      revert\n        /* \"#utility.yul\":7602:7665   */\n    tag_245:\n        /* \"#utility.yul\":7549:7671   */\n      pop\n      jump\t// out\n        /* \"#utility.yul\":7677:7820   */\n    tag_151:\n        /* \"#utility.yul\":7734:7739   */\n      0x00\n        /* \"#utility.yul\":7765:7771   */\n      dup2\n        /* \"#utility.yul\":7759:7772   */\n      mload\n        /* \"#utility.yul\":7750:7772   */\n      swap1\n      pop\n        /* \"#utility.yul\":7781:7814   */\n      tag_247\n        /* \"#utility.yul\":7808:7813   */\n      dup2\n        /* \"#utility.yul\":7781:7814   */\n      tag_150\n      jump\t// in\n    tag_247:\n        /* \"#utility.yul\":7677:7820   */\n      swap3\n      swap2\n      pop\n      pop\n      jump\t// out\n        /* \"#utility.yul\":7826:8177   */\n    tag_45:\n        /* \"#utility.yul\":7896:7902   */\n      0x00\n        /* \"#utility.yul\":7945:7947   */\n      0x20\n        /* \"#utility.yul\":7933:7942   */\n      dup3\n        /* \"#utility.yul\":7924:7931   */\n      dup5\n        /* \"#utility.yul\":7920:7943   */\n      sub\n        /* \"#utility.yul\":7916:7948   */\n      slt\n        /* \"#utility.yul\":7913:8032   */\n      iszero\n      tag_249\n      jumpi\n        /* \"#utility.yul\":7951:8030   */\n      tag_250\n      tag_124\n      jump\t// in\n    tag_250:\n        /* \"#utility.yul\":7913:8032   */\n    tag_249:\n        /* \"#utility.yul\":8071:8072   */\n      0x00\n        /* \"#utility.yul\":8096:8160   */\n      tag_251\n        /* \"#utility.yul\":8152:8159   */\n      dup5\n        /* \"#utility.yul\":8143:8149   */\n      dup3\n        /* \"#utility.yul\":8132:8141   */\n      dup6\n        /* \"#utility.yul\":8128:8150   */\n      add\n        /* \"#utility.yul\":8096:8160   */\n      tag_151\n      jump\t// in\n    tag_251:\n        /* \"#utility.yul\":8086:8160   */\n      swap2\n      pop\n        /* \"#utility.yul\":8042:8170   */\n      pop\n        /* \"#utility.yul\":7826:8177   */\n      swap3\n      swap2\n      pop\n      pop\n      jump\t// out\n        /* \"#utility.yul\":8183:8301   */\n    tag_152:\n        /* \"#utility.yul\":8270:8294   */\n      tag_253\n        /* \"#utility.yul\":8288:8293   */\n      dup2\n        /* \"#utility.yul\":8270:8294   */\n      tag_149\n      jump\t// in\n    tag_253:\n        /* \"#utility.yul\":8265:8268   */\n      dup3\n        /* \"#utility.yul\":8258:8295   */\n      mstore\n        /* \"#utility.yul\":8183:8301   */\n      pop\n      pop\n      jump\t// out\n        /* \"#utility.yul\":8307:8749   */\n    tag_51:\n        /* \"#utility.yul\":8456:8460   */\n      0x00\n        /* \"#utility.yul\":8494:8496   */\n      0x60\n        /* \"#utility.yul\":8483:8492   */\n      dup3\n        /* \"#utility.yul\":8479:8497   */\n      add\n        /* \"#utility.yul\":8471:8497   */\n      swap1\n      pop\n        /* \"#utility.yul\":8507:8578   */\n      tag_255\n        /* \"#utility.yul\":8575:8576   */\n      0x00\n        /* \"#utility.yul\":8564:8573   */\n      dup4\n        /* \"#utility.yul\":8560:8577   */\n      add\n        /* \"#utility.yul\":8551:8557   */\n      dup7\n        /* \"#utility.yul\":8507:8578   */\n      tag_152\n      jump\t// in\n    tag_255:\n        /* \"#utility.yul\":8588:8660   */\n      tag_256\n        /* \"#utility.yul\":8656:8658   */\n      0x20\n        /* \"#utility.yul\":8645:8654   */\n      dup4\n        /* \"#utility.yul\":8641:8659   */\n      add\n        /* \"#utility.yul\":8632:8638   */\n      dup6\n        /* \"#utility.yul\":8588:8660   */\n      tag_152\n      jump\t// in\n    tag_256:\n        /* \"#utility.yul\":8670:8742   */\n      tag_257\n        /* \"#utility.yul\":8738:8740   */\n      0x40\n        /* \"#utility.yul\":8727:8736   */\n      dup4\n        /* \"#utility.yul\":8723:8741   */\n      add\n        /* \"#utility.yul\":8714:8720   */\n      dup5\n        /* \"#utility.yul\":8670:8742   */\n      tag_129\n      jump\t// in\n    tag_257:\n        /* \"#utility.yul\":8307:8749   */\n      swap5\n      swap4\n      pop\n      pop\n      pop\n      pop\n      jump\t// out\n        /* \"#utility.yul\":8755:8935   */\n    tag_61:\n        /* \"#utility.yul\":8803:8880   */\n      0x4e487b7100000000000000000000000000000000000000000000000000000000\n        /* \"#utility.yul\":8800:8801   */\n      0x00\n        /* \"#utility.yul\":8793:8881   */\n      mstore\n        /* \"#utility.yul\":8900:8904   */\n      0x41\n        /* \"#utility.yul\":8897:8898   */\n      0x04\n        /* \"#utility.yul\":8890:8905   */\n      mstore\n        /* \"#utility.yul\":8924:8928   */\n      0x24\n        /* \"#utility.yul\":8921:8922   */\n      0x00\n        /* \"#utility.yul\":8914:8929   */\n      revert\n        /* \"#utility.yul\":8941:9121   */\n    tag_71:\n        /* \"#utility.yul\":8989:9066   */\n      0x4e487b7100000000000000000000000000000000000000000000000000000000\n        /* \"#utility.yul\":8986:8987   */\n      0x00\n        /* \"#utility.yul\":8979:9067   */\n      mstore\n        /* \"#utility.yul\":9086:9090   */\n      0x32\n        /* \"#utility.yul\":9083:9084   */\n      0x04\n        /* \"#utility.yul\":9076:9091   */\n      mstore\n        /* \"#utility.yul\":9110:9114   */\n      0x24\n        /* \"#utility.yul\":9107:9108   */\n      0x00\n        /* \"#utility.yul\":9100:9115   */\n      revert\n        /* \"#utility.yul\":9127:9244   */\n    tag_153:\n        /* \"#utility.yul\":9236:9237   */\n      0x00\n        /* \"#utility.yul\":9233:9234   */\n      dup1\n        /* \"#utility.yul\":9226:9238   */\n      revert\n        /* \"#utility.yul\":9250:9367   */\n    tag_154:\n        /* \"#utility.yul\":9359:9360   */\n      0x00\n        /* \"#utility.yul\":9356:9357   */\n      dup1\n        /* \"#utility.yul\":9349:9361   */\n      revert\n        /* \"#utility.yul\":9373:9654   */\n    tag_155:\n        /* \"#utility.yul\":9456:9483   */\n      tag_263\n        /* \"#utility.yul\":9478:9482   */\n      dup3\n        /* \"#utility.yul\":9456:9483   */\n      tag_137\n      jump\t// in\n    tag_263:\n        /* \"#utility.yul\":9448:9454   */\n      dup2\n        /* \"#utility.yul\":9444:9484   */\n      add\n        /* \"#utility.yul\":9586:9592   */\n      dup2\n        /* \"#utility.yul\":9574:9584   */\n      dup2\n        /* \"#utility.yul\":9571:9593   */\n      lt\n        /* \"#utility.yul\":9550:9568   */\n      0xffffffffffffffff\n        /* \"#utility.yul\":9538:9548   */\n      dup3\n        /* \"#utility.yul\":9535:9569   */\n      gt\n        /* \"#utility.yul\":9532:9594   */\n      or\n        /* \"#utility.yul\":9529:9617   */\n      iszero\n      tag_264\n      jumpi\n        /* \"#utility.yul\":9597:9615   */\n      tag_265\n      tag_61\n      jump\t// in\n    tag_265:\n        /* \"#utility.yul\":9529:9617   */\n    tag_264:\n        /* \"#utility.yul\":9637:9647   */\n      dup1\n        /* \"#utility.yul\":9633:9635   */\n      0x40\n        /* \"#utility.yul\":9626:9648   */\n      mstore\n        /* \"#utility.yul\":9416:9654   */\n      pop\n        /* \"#utility.yul\":9373:9654   */\n      pop\n      pop\n      jump\t// out\n        /* \"#utility.yul\":9660:9789   */\n    tag_156:\n        /* \"#utility.yul\":9694:9700   */\n      0x00\n        /* \"#utility.yul\":9721:9741   */\n      tag_267\n      tag_123\n      jump\t// in\n    tag_267:\n        /* \"#utility.yul\":9711:9741   */\n      swap1\n      pop\n        /* \"#utility.yul\":9750:9783   */\n      tag_268\n        /* \"#utility.yul\":9778:9782   */\n      dup3\n        /* \"#utility.yul\":9770:9776   */\n      dup3\n        /* \"#utility.yul\":9750:9783   */\n      tag_155\n      jump\t// in\n    tag_268:\n        /* \"#utility.yul\":9660:9789   */\n      swap2\n      swap1\n      pop\n      jump\t// out\n        /* \"#utility.yul\":9795:10103   */\n    tag_157:\n        /* \"#utility.yul\":9857:9861   */\n      0x00\n        /* \"#utility.yul\":9947:9965   */\n      0xffffffffffffffff\n        /* \"#utility.yul\":9939:9945   */\n      dup3\n        /* \"#utility.yul\":9936:9966   */\n      gt\n        /* \"#utility.yul\":9933:9989   */\n      iszero\n      tag_270\n      jumpi\n        /* \"#utility.yul\":9969:9987   */\n      tag_271\n      tag_61\n      jump\t// in\n    tag_271:\n        /* \"#utility.yul\":9933:9989   */\n    tag_270:\n        /* \"#utility.yul\":10007:10036   */\n      tag_272\n        /* \"#utility.yul\":10029:10035   */\n      dup3\n        /* \"#utility.yul\":10007:10036   */\n      tag_137\n      jump\t// in\n    tag_272:\n        /* \"#utility.yul\":9999:10036   */\n      swap1\n      pop\n        /* \"#utility.yul\":10091:10095   */\n      0x20\n        /* \"#utility.yul\":10085:10089   */\n      dup2\n        /* \"#utility.yul\":10081:10096   */\n      add\n        /* \"#utility.yul\":10073:10096   */\n      swap1\n      pop\n        /* \"#utility.yul\":9795:10103   */\n      swap2\n      swap1\n      pop\n      jump\t// out\n        /* \"#utility.yul\":10109:10543   */\n    tag_158:\n        /* \"#utility.yul\":10198:10203   */\n      0x00\n        /* \"#utility.yul\":10223:10289   */\n      tag_274\n        /* \"#utility.yul\":10239:10288   */\n      tag_275\n        /* \"#utility.yul\":10281:10287   */\n      dup5\n        /* \"#utility.yul\":10239:10288   */\n      tag_157\n      jump\t// in\n    tag_275:\n        /* \"#utility.yul\":10223:10289   */\n      tag_156\n      jump\t// in\n    tag_274:\n        /* \"#utility.yul\":10214:10289   */\n      swap1\n      pop\n        /* \"#utility.yul\":10312:10318   */\n      dup3\n        /* \"#utility.yul\":10305:10310   */\n      dup2\n        /* \"#utility.yul\":10298:10319   */\n      mstore\n        /* \"#utility.yul\":10350:10354   */\n      0x20\n        /* \"#utility.yul\":10343:10348   */\n      dup2\n        /* \"#utility.yul\":10339:10355   */\n      add\n        /* \"#utility.yul\":10388:10391   */\n      dup5\n        /* \"#utility.yul\":10379:10385   */\n      dup5\n        /* \"#utility.yul\":10374:10377   */\n      dup5\n        /* \"#utility.yul\":10370:10386   */\n      add\n        /* \"#utility.yul\":10367:10392   */\n      gt\n        /* \"#utility.yul\":10364:10476   */\n      iszero\n      tag_276\n      jumpi\n        /* \"#utility.yul\":10395:10474   */\n      tag_277\n      tag_154\n      jump\t// in\n    tag_277:\n        /* \"#utility.yul\":10364:10476   */\n    tag_276:\n        /* \"#utility.yul\":10485:10537   */\n      tag_278\n        /* \"#utility.yul\":10530:10536   */\n      dup5\n        /* \"#utility.yul\":10525:10528   */\n      dup3\n        /* \"#utility.yul\":10520:10523   */\n      dup6\n        /* \"#utility.yul\":10485:10537   */\n      tag_136\n      jump\t// in\n    tag_278:\n        /* \"#utility.yul\":10204:10543   */\n      pop\n        /* \"#utility.yul\":10109:10543   */\n      swap4\n      swap3\n      pop\n      pop\n      pop\n      jump\t// out\n        /* \"#utility.yul\":10563:10918   */\n    tag_159:\n        /* \"#utility.yul\":10630:10635   */\n      0x00\n        /* \"#utility.yul\":10679:10682   */\n      dup3\n        /* \"#utility.yul\":10672:10676   */\n      0x1f\n        /* \"#utility.yul\":10664:10670   */\n      dup4\n        /* \"#utility.yul\":10660:10677   */\n      add\n        /* \"#utility.yul\":10656:10683   */\n      slt\n        /* \"#utility.yul\":10646:10768   */\n      tag_280\n      jumpi\n        /* \"#utility.yul\":10687:10766   */\n      tag_281\n      tag_153\n      jump\t// in\n    tag_281:\n        /* \"#utility.yul\":10646:10768   */\n    tag_280:\n        /* \"#utility.yul\":10797:10803   */\n      dup2\n        /* \"#utility.yul\":10791:10804   */\n      mload\n        /* \"#utility.yul\":10822:10912   */\n      tag_282\n        /* \"#utility.yul\":10908:10911   */\n      dup5\n        /* \"#utility.yul\":10900:10906   */\n      dup3\n        /* \"#utility.yul\":10893:10897   */\n      0x20\n        /* \"#utility.yul\":10885:10891   */\n      dup7\n        /* \"#utility.yul\":10881:10898   */\n      add\n        /* \"#utility.yul\":10822:10912   */\n      tag_158\n      jump\t// in\n    tag_282:\n        /* \"#utility.yul\":10813:10912   */\n      swap2\n      pop\n        /* \"#utility.yul\":10636:10918   */\n      pop\n        /* \"#utility.yul\":10563:10918   */\n      swap3\n      swap2\n      pop\n      pop\n      jump\t// out\n        /* \"#utility.yul\":10924:11448   */\n    tag_77:\n        /* \"#utility.yul\":11004:11010   */\n      0x00\n        /* \"#utility.yul\":11053:11055   */\n      0x20\n        /* \"#utility.yul\":11041:11050   */\n      dup3\n        /* \"#utility.yul\":11032:11039   */\n      dup5\n        /* \"#utility.yul\":11028:11051   */\n      sub\n        /* \"#utility.yul\":11024:11056   */\n      slt\n        /* \"#utility.yul\":11021:11140   */\n      iszero\n      tag_284\n      jumpi\n        /* \"#utility.yul\":11059:11138   */\n      tag_285\n      tag_124\n      jump\t// in\n    tag_285:\n        /* \"#utility.yul\":11021:11140   */\n    tag_284:\n        /* \"#utility.yul\":11200:11201   */\n      0x00\n        /* \"#utility.yul\":11189:11198   */\n      dup3\n        /* \"#utility.yul\":11185:11202   */\n      add\n        /* \"#utility.yul\":11179:11203   */\n      mload\n        /* \"#utility.yul\":11230:11248   */\n      0xffffffffffffffff\n        /* \"#utility.yul\":11222:11228   */\n      dup2\n        /* \"#utility.yul\":11219:11249   */\n      gt\n        /* \"#utility.yul\":11216:11333   */\n      iszero\n      tag_286\n      jumpi\n        /* \"#utility.yul\":11252:11331   */\n      tag_287\n      tag_125\n      jump\t// in\n    tag_287:\n        /* \"#utility.yul\":11216:11333   */\n    tag_286:\n        /* \"#utility.yul\":11357:11431   */\n      tag_288\n        /* \"#utility.yul\":11423:11430   */\n      dup5\n        /* \"#utility.yul\":11414:11420   */\n      dup3\n        /* \"#utility.yul\":11403:11412   */\n      dup6\n        /* \"#utility.yul\":11399:11421   */\n      add\n        /* \"#utility.yul\":11357:11431   */\n      tag_159\n      jump\t// in\n    tag_288:\n        /* \"#utility.yul\":11347:11431   */\n      swap2\n      pop\n        /* \"#utility.yul\":11150:11441   */\n      pop\n        /* \"#utility.yul\":10924:11448   */\n      swap3\n      swap2\n      pop\n      pop\n      jump\t// out\n        /* \"#utility.yul\":11454:11634   */\n    tag_160:\n        /* \"#utility.yul\":11502:11579   */\n      0x4e487b7100000000000000000000000000000000000000000000000000000000\n        /* \"#utility.yul\":11499:11500   */\n      0x00\n        /* \"#utility.yul\":11492:11580   */\n      mstore\n        /* \"#utility.yul\":11599:11603   */\n      0x11\n        /* \"#utility.yul\":11596:11597   */\n      0x04\n        /* \"#utility.yul\":11589:11604   */\n      mstore\n        /* \"#utility.yul\":11623:11627   */\n      0x24\n        /* \"#utility.yul\":11620:11621   */\n      0x00\n        /* \"#utility.yul\":11613:11628   */\n      revert\n        /* \"#utility.yul\":11640:11873   */\n    tag_81:\n        /* \"#utility.yul\":11679:11682   */\n      0x00\n        /* \"#utility.yul\":11702:11726   */\n      tag_291\n        /* \"#utility.yul\":11720:11725   */\n      dup3\n        /* \"#utility.yul\":11702:11726   */\n      tag_126\n      jump\t// in\n    tag_291:\n        /* \"#utility.yul\":11693:11726   */\n      swap2\n      pop\n        /* \"#utility.yul\":11748:11814   */\n      0xffffffffffffffffffffffffffffffffffffffffffffffffffffffffffffffff\n        /* \"#utility.yul\":11741:11746   */\n      dup3\n        /* \"#utility.yul\":11738:11815   */\n      sub\n        /* \"#utility.yul\":11735:11838   */\n      tag_292\n      jumpi\n        /* \"#utility.yul\":11818:11836   */\n      tag_293\n      tag_160\n      jump\t// in\n    tag_293:\n        /* \"#utility.yul\":11735:11838   */\n    tag_292:\n        /* \"#utility.yul\":11865:11866   */\n      0x01\n        /* \"#utility.yul\":11858:11863   */\n      dup3\n        /* \"#utility.yul\":11854:11867   */\n      add\n        /* \"#utility.yul\":11847:11867   */\n      swap1\n      pop\n        /* \"#utility.yul\":11640:11873   */\n      swap2\n      swap1\n      pop\n      jump\t// out\n        /* \"#utility.yul\":11879:12048   */\n    tag_161:\n        /* \"#utility.yul\":11963:11974   */\n      0x00\n        /* \"#utility.yul\":11997:12003   */\n      dup3\n        /* \"#utility.yul\":11992:11995   */\n      dup3\n        /* \"#utility.yul\":11985:12004   */\n      mstore\n        /* \"#utility.yul\":12037:12041   */\n      0x20\n        /* \"#utility.yul\":12032:12035   */\n      dup3\n        /* \"#utility.yul\":12028:12042   */\n      add\n        /* \"#utility.yul\":12013:12042   */\n      swap1\n      pop\n        /* \"#utility.yul\":11879:12048   */\n      swap3\n      swap2\n      pop\n      pop\n      jump\t// out\n        /* \"#utility.yul\":12054:12225   */\n    tag_162:\n        /* \"#utility.yul\":12194:12217   */\n      0x796f7520617265206e6f74204e4654206f776e65720000000000000000000000\n        /* \"#utility.yul\":12190:12191   */\n      0x00\n        /* \"#utility.yul\":12182:12188   */\n      dup3\n        /* \"#utility.yul\":12178:12192   */\n      add\n        /* \"#utility.yul\":12171:12218   */\n      mstore\n        /* \"#utility.yul\":12054:12225   */\n      pop\n      jump\t// out\n        /* \"#utility.yul\":12231:12597   */\n    tag_163:\n        /* \"#utility.yul\":12373:12376   */\n      0x00\n        /* \"#utility.yul\":12394:12461   */\n      tag_297\n        /* \"#utility.yul\":12458:12460   */\n      0x15\n        /* \"#utility.yul\":12453:12456   */\n      dup4\n        /* \"#utility.yul\":12394:12461   */\n      tag_161\n      jump\t// in\n    tag_297:\n        /* \"#utility.yul\":12387:12461   */\n      swap2\n      pop\n        /* \"#utility.yul\":12470:12563   */\n      tag_298\n        /* \"#utility.yul\":12559:12562   */\n      dup3\n        /* \"#utility.yul\":12470:12563   */\n      tag_162\n      jump\t// in\n    tag_298:\n        /* \"#utility.yul\":12588:12590   */\n      0x20\n        /* \"#utility.yul\":12583:12586   */\n      dup3\n        /* \"#utility.yul\":12579:12591   */\n      add\n        /* \"#utility.yul\":12572:12591   */\n      swap1\n      pop\n        /* \"#utility.yul\":12231:12597   */\n      swap2\n      swap1\n      pop\n      jump\t// out\n        /* \"#utility.yul\":12603:13022   */\n    tag_89:\n        /* \"#utility.yul\":12769:12773   */\n      0x00\n        /* \"#utility.yul\":12807:12809   */\n      0x20\n        /* \"#utility.yul\":12796:12805   */\n      dup3\n        /* \"#utility.yul\":12792:12810   */\n      add\n        /* \"#utility.yul\":12784:12810   */\n      swap1\n      pop\n        /* \"#utility.yul\":12856:12865   */\n      dup2\n        /* \"#utility.yul\":12850:12854   */\n      dup2\n        /* \"#utility.yul\":12846:12866   */\n      sub\n        /* \"#utility.yul\":12842:12843   */\n      0x00\n        /* \"#utility.yul\":12831:12840   */\n      dup4\n        /* \"#utility.yul\":12827:12844   */\n      add\n        /* \"#utility.yul\":12820:12867   */\n      mstore\n        /* \"#utility.yul\":12884:13015   */\n      tag_300\n        /* \"#utility.yul\":13010:13014   */\n      dup2\n        /* \"#utility.yul\":12884:13015   */\n      tag_163\n      jump\t// in\n    tag_300:\n        /* \"#utility.yul\":12876:13015   */\n      swap1\n      pop\n        /* \"#utility.yul\":12603:13022   */\n      swap2\n      swap1\n      pop\n      jump\t// out\n        /* \"#utility.yul\":13028:13190   */\n    tag_164:\n        /* \"#utility.yul\":13168:13182   */\n      0x416c72656164792073616c650000000000000000000000000000000000000000\n        /* \"#utility.yul\":13164:13165   */\n      0x00\n        /* \"#utility.yul\":13156:13162   */\n      dup3\n        /* \"#utility.yul\":13152:13166   */\n      add\n        /* \"#utility.yul\":13145:13183   */\n      mstore\n        /* \"#utility.yul\":13028:13190   */\n      pop\n      jump\t// out\n        /* \"#utility.yul\":13196:13562   */\n    tag_165:\n        /* \"#utility.yul\":13338:13341   */\n      0x00\n        /* \"#utility.yul\":13359:13426   */\n      tag_303\n        /* \"#utility.yul\":13423:13425   */\n      0x0c\n        /* \"#utility.yul\":13418:13421   */\n      dup4\n        /* \"#utility.yul\":13359:13426   */\n      tag_161\n      jump\t// in\n    tag_303:\n        /* \"#utility.yul\":13352:13426   */\n      swap2\n      pop\n        /* \"#utility.yul\":13435:13528   */\n      tag_304\n        /* \"#utility.yul\":13524:13527   */\n      dup3\n        /* \"#utility.yul\":13435:13528   */\n      tag_164\n      jump\t// in\n    tag_304:\n        /* \"#utility.yul\":13553:13555   */\n      0x20\n        /* \"#utility.yul\":13548:13551   */\n      dup3\n        /* \"#utility.yul\":13544:13556   */\n      add\n        /* \"#utility.yul\":13537:13556   */\n      swap1\n      pop\n        /* \"#utility.yul\":13196:13562   */\n      swap2\n      swap1\n      pop\n      jump\t// out\n        /* \"#utility.yul\":13568:13987   */\n    tag_93:\n        /* \"#utility.yul\":13734:13738   */\n      0x00\n        /* \"#utility.yul\":13772:13774   */\n      0x20\n        /* \"#utility.yul\":13761:13770   */\n      dup3\n        /* \"#utility.yul\":13757:13775   */\n      add\n        /* \"#utility.yul\":13749:13775   */\n      swap1\n      pop\n        /* \"#utility.yul\":13821:13830   */\n      dup2\n        /* \"#utility.yul\":13815:13819   */\n      dup2\n        /* \"#utility.yul\":13811:13831   */\n      sub\n        /* \"#utility.yul\":13807:13808   */\n      0x00\n        /* \"#utility.yul\":13796:13805   */\n      dup4\n        /* \"#utility.yul\":13792:13809   */\n      add\n        /* \"#utility.yul\":13785:13832   */\n      mstore\n        /* \"#utility.yul\":13849:13980   */\n      tag_306\n        /* \"#utility.yul\":13975:13979   */\n      dup2\n        /* \"#utility.yul\":13849:13980   */\n      tag_165\n      jump\t// in\n    tag_306:\n        /* \"#utility.yul\":13841:13980   */\n      swap1\n      pop\n        /* \"#utility.yul\":13568:13987   */\n      swap2\n      swap1\n      pop\n      jump\t// out\n        /* \"#utility.yul\":13993:14325   */\n    tag_95:\n        /* \"#utility.yul\":14114:14118   */\n      0x00\n        /* \"#utility.yul\":14152:14154   */\n      0x40\n        /* \"#utility.yul\":14141:14150   */\n      dup3\n        /* \"#utility.yul\":14137:14155   */\n      add\n        /* \"#utility.yul\":14129:14155   */\n      swap1\n      pop\n        /* \"#utility.yul\":14165:14236   */\n      tag_308\n        /* \"#utility.yul\":14233:14234   */\n      0x00\n        /* \"#utility.yul\":14222:14231   */\n      dup4\n        /* \"#utility.yul\":14218:14235   */\n      add\n        /* \"#utility.yul\":14209:14215   */\n      dup6\n        /* \"#utility.yul\":14165:14236   */\n      tag_152\n      jump\t// in\n    tag_308:\n        /* \"#utility.yul\":14246:14318   */\n      tag_309\n        /* \"#utility.yul\":14314:14316   */\n      0x20\n        /* \"#utility.yul\":14303:14312   */\n      dup4\n        /* \"#utility.yul\":14299:14317   */\n      add\n        /* \"#utility.yul\":14290:14296   */\n      dup5\n        /* \"#utility.yul\":14246:14318   */\n      tag_152\n      jump\t// in\n    tag_309:\n        /* \"#utility.yul\":13993:14325   */\n      swap4\n      swap3\n      pop\n      pop\n      pop\n      jump\t// out\n        /* \"#utility.yul\":14331:14421   */\n    tag_166:\n        /* \"#utility.yul\":14365:14372   */\n      0x00\n        /* \"#utility.yul\":14408:14413   */\n      dup2\n        /* \"#utility.yul\":14401:14414   */\n      iszero\n        /* \"#utility.yul\":14394:14415   */\n      iszero\n        /* \"#utility.yul\":14383:14415   */\n      swap1\n      pop\n        /* \"#utility.yul\":14331:14421   */\n      swap2\n      swap1\n      pop\n      jump\t// out\n        /* \"#utility.yul\":14427:14543   */\n    tag_167:\n        /* \"#utility.yul\":14497:14518   */\n      tag_312\n        /* \"#utility.yul\":14512:14517   */\n      dup2\n        /* \"#utility.yul\":14497:14518   */\n      tag_166\n      jump\t// in\n    tag_312:\n        /* \"#utility.yul\":14490:14495   */\n      dup2\n        /* \"#utility.yul\":14487:14519   */\n      eq\n        /* \"#utility.yul\":14477:14537   */\n      tag_313\n      jumpi\n        /* \"#utility.yul\":14533:14534   */\n      0x00\n        /* \"#utility.yul\":14530:14531   */\n      dup1\n        /* \"#utility.yul\":14523:14535   */\n      revert\n        /* \"#utility.yul\":14477:14537   */\n    tag_313:\n        /* \"#utility.yul\":14427:14543   */\n      pop\n      jump\t// out\n        /* \"#utility.yul\":14549:14686   */\n    tag_168:\n        /* \"#utility.yul\":14603:14608   */\n      0x00\n        /* \"#utility.yul\":14634:14640   */\n      dup2\n        /* \"#utility.yul\":14628:14641   */\n      mload\n        /* \"#utility.yul\":14619:14641   */\n      swap1\n      pop\n        /* \"#utility.yul\":14650:14680   */\n      tag_315\n        /* \"#utility.yul\":14674:14679   */\n      dup2\n        /* \"#utility.yul\":14650:14680   */\n      tag_167\n      jump\t// in\n    tag_315:\n        /* \"#utility.yul\":14549:14686   */\n      swap3\n      swap2\n      pop\n      pop\n      jump\t// out\n        /* \"#utility.yul\":14692:15037   */\n    tag_99:\n        /* \"#utility.yul\":14759:14765   */\n      0x00\n        /* \"#utility.yul\":14808:14810   */\n      0x20\n        /* \"#utility.yul\":14796:14805   */\n      dup3\n        /* \"#utility.yul\":14787:14794   */\n      dup5\n        /* \"#utility.yul\":14783:14806   */\n      sub\n        /* \"#utility.yul\":14779:14811   */\n      slt\n        /* \"#utility.yul\":14776:14895   */\n      iszero\n      tag_317\n      jumpi\n        /* \"#utility.yul\":14814:14893   */\n      tag_318\n      tag_124\n      jump\t// in\n    tag_318:\n        /* \"#utility.yul\":14776:14895   */\n    tag_317:\n        /* \"#utility.yul\":14934:14935   */\n      0x00\n        /* \"#utility.yul\":14959:15020   */\n      tag_319\n        /* \"#utility.yul\":15012:15019   */\n      dup5\n        /* \"#utility.yul\":15003:15009   */\n      dup3\n        /* \"#utility.yul\":14992:15001   */\n      dup6\n        /* \"#utility.yul\":14988:15010   */\n      add\n        /* \"#utility.yul\":14959:15020   */\n      tag_168\n      jump\t// in\n    tag_319:\n        /* \"#utility.yul\":14949:15020   */\n      swap2\n      pop\n        /* \"#utility.yul\":14905:15030   */\n      pop\n        /* \"#utility.yul\":14692:15037   */\n      swap3\n      swap2\n      pop\n      pop\n      jump\t// out\n        /* \"#utility.yul\":15043:15237   */\n    tag_111:\n        /* \"#utility.yul\":15083:15087   */\n      0x00\n        /* \"#utility.yul\":15103:15123   */\n      tag_321\n        /* \"#utility.yul\":15121:15122   */\n      dup3\n        /* \"#utility.yul\":15103:15123   */\n      tag_126\n      jump\t// in\n    tag_321:\n        /* \"#utility.yul\":15098:15123   */\n      swap2\n      pop\n        /* \"#utility.yul\":15137:15157   */\n      tag_322\n        /* \"#utility.yul\":15155:15156   */\n      dup4\n        /* \"#utility.yul\":15137:15157   */\n      tag_126\n      jump\t// in\n    tag_322:\n        /* \"#utility.yul\":15132:15157   */\n      swap3\n      pop\n        /* \"#utility.yul\":15181:15182   */\n      dup3\n        /* \"#utility.yul\":15178:15179   */\n      dup3\n        /* \"#utility.yul\":15174:15183   */\n      sub\n        /* \"#utility.yul\":15166:15183   */\n      swap1\n      pop\n        /* \"#utility.yul\":15205:15206   */\n      dup2\n        /* \"#utility.yul\":15199:15203   */\n      dup2\n        /* \"#utility.yul\":15196:15207   */\n      gt\n        /* \"#utility.yul\":15193:15230   */\n      iszero\n      tag_323\n      jumpi\n        /* \"#utility.yul\":15210:15228   */\n      tag_324\n      tag_160\n      jump\t// in\n    tag_324:\n        /* \"#utility.yul\":15193:15230   */\n    tag_323:\n        /* \"#utility.yul\":15043:15237   */\n      swap3\n      swap2\n      pop\n      pop\n      jump\t// out\n        /* \"#utility.yul\":15243:15423   */\n    tag_120:\n        /* \"#utility.yul\":15291:15368   */\n      0x4e487b7100000000000000000000000000000000000000000000000000000000\n        /* \"#utility.yul\":15288:15289   */\n      0x00\n        /* \"#utility.yul\":15281:15369   */\n      mstore\n        /* \"#utility.yul\":15388:15392   */\n      0x31\n        /* \"#utility.yul\":15385:15386   */\n      0x04\n        /* \"#utility.yul\":15378:15393   */\n      mstore\n        /* \"#utility.yul\":15412:15416   */\n      0x24\n        /* \"#utility.yul\":15409:15410   */\n      0x00\n        /* \"#utility.yul\":15402:15417   */\n      revert\n\n    auxdata: 0xa2646970667358221220b2345ded41b703dc1824592e2e6607d0f3e6287ba924eb35a492aad1fc45655164736f6c63430008120033\n}\n",
				"bytecode": {
					"linkReferences": {},
					"object": "60806040523480156200001157600080fd5b5060405162001233380380620012338339818101604052810190620000379190620000fc565b806000806101000a81548173ffffffffffffffffffffffffffffffffffffffff021916908373ffffffffffffffffffffffffffffffffffffffff160217905550506200012e565b600080fd5b600073ffffffffffffffffffffffffffffffffffffffff82169050919050565b6000620000b08262000083565b9050919050565b6000620000c482620000a3565b9050919050565b620000d681620000b7565b8114620000e257600080fd5b50565b600081519050620000f681620000cb565b92915050565b6000602082840312156200011557620001146200007e565b5b60006200012584828501620000e5565b91505092915050565b6110f5806200013e6000396000f3fe6080604052600436106100555760003560e01c80630c8cc5691461005a5780633048f512146100975780634e4dc988146100b35780637c0b8de2146100de578063921e033b14610109578063e5afe3e614610132575b600080fd5b34801561006657600080fd5b50610081600480360381019061007c919061091b565b61016f565b60405161008e9190610957565b60405180910390f35b6100b160048036038101906100ac919061091b565b610193565b005b3480156100bf57600080fd5b506100c8610386565b6040516100d59190610b23565b60405180910390f35b3480156100ea57600080fd5b506100f361053d565b6040516101009190610bc4565b60405180910390f35b34801561011557600080fd5b50610130600480360381019061012b9190610bdf565b610561565b005b34801561013e57600080fd5b506101596004803603810190610154919061091b565b6107bc565b6040516101669190610957565b60405180910390f35b6002818154811061017f57600080fd5b906000526020600020016000915090505481565b60008060009054906101000a900473ffffffffffffffffffffffffffffffffffffffff1673ffffffffffffffffffffffffffffffffffffffff16636352211e836040518263ffffffff1660e01b81526004016101ef9190610957565b602060405180830381865afa15801561020c573d6000803e3d6000fd5b505050506040513d601f19601f820116820180604052508101906102309190610c5d565b90503373ffffffffffffffffffffffffffffffffffffffff168173ffffffffffffffffffffffffffffffffffffffff160361026a57600080fd5b3460016000848152602001908152602001600020541461028957600080fd5b8073ffffffffffffffffffffffffffffffffffffffff166108fc349081150290604051600060405180830381858888f193505050501580156102cf573d6000803e3d6000fd5b5060008054906101000a900473ffffffffffffffffffffffffffffffffffffffff1673ffffffffffffffffffffffffffffffffffffffff166323b872dd8233856040518463ffffffff1660e01b815260040161032d93929190610c99565b600060405180830381600087803b15801561034757600080fd5b505af115801561035b573d6000803e3d6000fd5b5050505060006001600084815260200190815260200160002081905550610381826107d4565b505050565b606060006002805490501161039a57600080fd5b600060028054905067ffffffffffffffff8111156103bb576103ba610cd0565b5b6040519080825280602002602001820160405280156103f457816020015b6103e16108b0565b8152602001906001900390816103d95790505b50905060005b6002805490508110156105355760006002828154811061041d5761041c610cff565b5b9060005260206000200154905060006001600083815260200190815260200160002054905060008060009054906101000a900473ffffffffffffffffffffffffffffffffffffffff1673ffffffffffffffffffffffffffffffffffffffff1663c87b56dd846040518263ffffffff1660e01b815260040161049e9190610957565b600060405180830381865afa1580156104bb573d6000803e3d6000fd5b505050506040513d6000823e3d601f19601f820116820180604052508101906104e49190610e25565b905060405180606001604052808481526020018381526020018281525085858151811061051457610513610cff565b5b6020026020010181905250505050808061052d90610e9d565b9150506103fa565b508091505090565b60008054906101000a900473ffffffffffffffffffffffffffffffffffffffff1681565b60008060009054906101000a900473ffffffffffffffffffffffffffffffffffffffff1673ffffffffffffffffffffffffffffffffffffffff16636352211e846040518263ffffffff1660e01b81526004016105bd9190610957565b602060405180830381865afa1580156105da573d6000803e3d6000fd5b505050506040513d601f19601f820116820180604052508101906105fe9190610c5d565b90503373ffffffffffffffffffffffffffffffffffffffff168173ffffffffffffffffffffffffffffffffffffffff161461066e576040517f08c379a000000000000000000000000000000000000000000000000000000000815260040161066590610f42565b60405180910390fd5b6000821161067b57600080fd5b60006001600085815260200190815260200160002054146106d1576040517f08c379a00000000000000000000000000000000000000000000000000000000081526004016106c890610fae565b60405180910390fd5b60008054906101000a900473ffffffffffffffffffffffffffffffffffffffff1673ffffffffffffffffffffffffffffffffffffffff1663e985e9c533306040518363ffffffff1660e01b815260040161072c929190610fce565b602060405180830381865afa158015610749573d6000803e3d6000fd5b505050506040513d601f19601f8201168201806040525081019061076d919061102f565b61077657600080fd5b8160016000858152602001908152602001600020819055506002839080600181540180825580915050600190039060005260206000200160009091909190915055505050565b60016020528060005260406000206000915090505481565b600080600090505b6002805490508110156108a55782600282815481106107fe576107fd610cff565b5b9060005260206000200154036108925760026001600280549050610822919061105c565b8154811061083357610832610cff565b5b90600052602060002001546002828154811061085257610851610cff565b5b9060005260206000200181905550600280548061087257610871611090565b5b6001900381819060005260206000200160009055905560019150506108ab565b808061089d90610e9d565b9150506107dc565b50600090505b919050565b60405180606001604052806000815260200160008152602001606081525090565b6000604051905090565b600080fd5b600080fd5b6000819050919050565b6108f8816108e5565b811461090357600080fd5b50565b600081359050610915816108ef565b92915050565b600060208284031215610931576109306108db565b5b600061093f84828501610906565b91505092915050565b610951816108e5565b82525050565b600060208201905061096c6000830184610948565b92915050565b600081519050919050565b600082825260208201905092915050565b6000819050602082019050919050565b6109a7816108e5565b82525050565b600081519050919050565b600082825260208201905092915050565b60005b838110156109e75780820151818401526020810190506109cc565b60008484015250505050565b6000601f19601f8301169050919050565b6000610a0f826109ad565b610a1981856109b8565b9350610a298185602086016109c9565b610a32816109f3565b840191505092915050565b6000606083016000830151610a55600086018261099e565b506020830151610a68602086018261099e565b5060408301518482036040860152610a808282610a04565b9150508091505092915050565b6000610a998383610a3d565b905092915050565b6000602082019050919050565b6000610ab982610972565b610ac3818561097d565b935083602082028501610ad58561098e565b8060005b85811015610b115784840389528151610af28582610a8d565b9450610afd83610aa1565b925060208a01995050600181019050610ad9565b50829750879550505050505092915050565b60006020820190508181036000830152610b3d8184610aae565b905092915050565b600073ffffffffffffffffffffffffffffffffffffffff82169050919050565b6000819050919050565b6000610b8a610b85610b8084610b45565b610b65565b610b45565b9050919050565b6000610b9c82610b6f565b9050919050565b6000610bae82610b91565b9050919050565b610bbe81610ba3565b82525050565b6000602082019050610bd96000830184610bb5565b92915050565b60008060408385031215610bf657610bf56108db565b5b6000610c0485828601610906565b9250506020610c1585828601610906565b9150509250929050565b6000610c2a82610b45565b9050919050565b610c3a81610c1f565b8114610c4557600080fd5b50565b600081519050610c5781610c31565b92915050565b600060208284031215610c7357610c726108db565b5b6000610c8184828501610c48565b91505092915050565b610c9381610c1f565b82525050565b6000606082019050610cae6000830186610c8a565b610cbb6020830185610c8a565b610cc86040830184610948565b949350505050565b7f4e487b7100000000000000000000000000000000000000000000000000000000600052604160045260246000fd5b7f4e487b7100000000000000000000000000000000000000000000000000000000600052603260045260246000fd5b600080fd5b600080fd5b610d41826109f3565b810181811067ffffffffffffffff82111715610d6057610d5f610cd0565b5b80604052505050565b6000610d736108d1565b9050610d7f8282610d38565b919050565b600067ffffffffffffffff821115610d9f57610d9e610cd0565b5b610da8826109f3565b9050602081019050919050565b6000610dc8610dc384610d84565b610d69565b905082815260208101848484011115610de457610de3610d33565b5b610def8482856109c9565b509392505050565b600082601f830112610e0c57610e0b610d2e565b5b8151610e1c848260208601610db5565b91505092915050565b600060208284031215610e3b57610e3a6108db565b5b600082015167ffffffffffffffff811115610e5957610e586108e0565b5b610e6584828501610df7565b91505092915050565b7f4e487b7100000000000000000000000000000000000000000000000000000000600052601160045260246000fd5b6000610ea8826108e5565b91507fffffffffffffffffffffffffffffffffffffffffffffffffffffffffffffffff8203610eda57610ed9610e6e565b5b600182019050919050565b600082825260208201905092915050565b7f796f7520617265206e6f74204e4654206f776e65720000000000000000000000600082015250565b6000610f2c601583610ee5565b9150610f3782610ef6565b602082019050919050565b60006020820190508181036000830152610f5b81610f1f565b9050919050565b7f416c72656164792073616c650000000000000000000000000000000000000000600082015250565b6000610f98600c83610ee5565b9150610fa382610f62565b602082019050919050565b60006020820190508181036000830152610fc781610f8b565b9050919050565b6000604082019050610fe36000830185610c8a565b610ff06020830184610c8a565b9392505050565b60008115159050919050565b61100c81610ff7565b811461101757600080fd5b50565b60008151905061102981611003565b92915050565b600060208284031215611045576110446108db565b5b60006110538482850161101a565b91505092915050565b6000611067826108e5565b9150611072836108e5565b925082820390508181111561108a57611089610e6e565b5b92915050565b7f4e487b7100000000000000000000000000000000000000000000000000000000600052603160045260246000fdfea2646970667358221220b2345ded41b703dc1824592e2e6607d0f3e6287ba924eb35a492aad1fc45655164736f6c63430008120033",
					"opcodes": "PUSH1 0x80 PUSH1 0x40 MSTORE CALLVALUE DUP1 ISZERO PUSH3 0x11 JUMPI PUSH1 0x0 DUP1 REVERT JUMPDEST POP PUSH1 0x40 MLOAD PUSH3 0x1233 CODESIZE SUB DUP1 PUSH3 0x1233 DUP4 CODECOPY DUP2 DUP2 ADD PUSH1 0x40 MSTORE DUP2 ADD SWAP1 PUSH3 0x37 SWAP2 SWAP1 PUSH3 0xFC JUMP JUMPDEST DUP1 PUSH1 0x0 DUP1 PUSH2 0x100 EXP DUP2 SLOAD DUP2 PUSH20 0xFFFFFFFFFFFFFFFFFFFFFFFFFFFFFFFFFFFFFFFF MUL NOT AND SWAP1 DUP4 PUSH20 0xFFFFFFFFFFFFFFFFFFFFFFFFFFFFFFFFFFFFFFFF AND MUL OR SWAP1 SSTORE POP POP PUSH3 0x12E JUMP JUMPDEST PUSH1 0x0 DUP1 REVERT JUMPDEST PUSH1 0x0 PUSH20 0xFFFFFFFFFFFFFFFFFFFFFFFFFFFFFFFFFFFFFFFF DUP3 AND SWAP1 POP SWAP2 SWAP1 POP JUMP JUMPDEST PUSH1 0x0 PUSH3 0xB0 DUP3 PUSH3 0x83 JUMP JUMPDEST SWAP1 POP SWAP2 SWAP1 POP JUMP JUMPDEST PUSH1 0x0 PUSH3 0xC4 DUP3 PUSH3 0xA3 JUMP JUMPDEST SWAP1 POP SWAP2 SWAP1 POP JUMP JUMPDEST PUSH3 0xD6 DUP2 PUSH3 0xB7 JUMP JUMPDEST DUP2 EQ PUSH3 0xE2 JUMPI PUSH1 0x0 DUP1 REVERT JUMPDEST POP JUMP JUMPDEST PUSH1 0x0 DUP2 MLOAD SWAP1 POP PUSH3 0xF6 DUP2 PUSH3 0xCB JUMP JUMPDEST SWAP3 SWAP2 POP POP JUMP JUMPDEST PUSH1 0x0 PUSH1 0x20 DUP3 DUP5 SUB SLT ISZERO PUSH3 0x115 JUMPI PUSH3 0x114 PUSH3 0x7E JUMP JUMPDEST JUMPDEST PUSH1 0x0 PUSH3 0x125 DUP5 DUP3 DUP6 ADD PUSH3 0xE5 JUMP JUMPDEST SWAP2 POP POP SWAP3 SWAP2 POP POP JUMP JUMPDEST PUSH2 0x10F5 DUP1 PUSH3 0x13E PUSH1 0x0 CODECOPY PUSH1 0x0 RETURN INVALID PUSH1 0x80 PUSH1 0x40 MSTORE PUSH1 0x4 CALLDATASIZE LT PUSH2 0x55 JUMPI PUSH1 0x0 CALLDATALOAD PUSH1 0xE0 SHR DUP1 PUSH4 0xC8CC569 EQ PUSH2 0x5A JUMPI DUP1 PUSH4 0x3048F512 EQ PUSH2 0x97 JUMPI DUP1 PUSH4 0x4E4DC988 EQ PUSH2 0xB3 JUMPI DUP1 PUSH4 0x7C0B8DE2 EQ PUSH2 0xDE JUMPI DUP1 PUSH4 0x921E033B EQ PUSH2 0x109 JUMPI DUP1 PUSH4 0xE5AFE3E6 EQ PUSH2 0x132 JUMPI JUMPDEST PUSH1 0x0 DUP1 REVERT JUMPDEST CALLVALUE DUP1 ISZERO PUSH2 0x66 JUMPI PUSH1 0x0 DUP1 REVERT JUMPDEST POP PUSH2 0x81 PUSH1 0x4 DUP1 CALLDATASIZE SUB DUP2 ADD SWAP1 PUSH2 0x7C SWAP2 SWAP1 PUSH2 0x91B JUMP JUMPDEST PUSH2 0x16F JUMP JUMPDEST PUSH1 0x40 MLOAD PUSH2 0x8E SWAP2 SWAP1 PUSH2 0x957 JUMP JUMPDEST PUSH1 0x40 MLOAD DUP1 SWAP2 SUB SWAP1 RETURN JUMPDEST PUSH2 0xB1 PUSH1 0x4 DUP1 CALLDATASIZE SUB DUP2 ADD SWAP1 PUSH2 0xAC SWAP2 SWAP1 PUSH2 0x91B JUMP JUMPDEST PUSH2 0x193 JUMP JUMPDEST STOP JUMPDEST CALLVALUE DUP1 ISZERO PUSH2 0xBF JUMPI PUSH1 0x0 DUP1 REVERT JUMPDEST POP PUSH2 0xC8 PUSH2 0x386 JUMP JUMPDEST PUSH1 0x40 MLOAD PUSH2 0xD5 SWAP2 SWAP1 PUSH2 0xB23 JUMP JUMPDEST PUSH1 0x40 MLOAD DUP1 SWAP2 SUB SWAP1 RETURN JUMPDEST CALLVALUE DUP1 ISZERO PUSH2 0xEA JUMPI PUSH1 0x0 DUP1 REVERT JUMPDEST POP PUSH2 0xF3 PUSH2 0x53D JUMP JUMPDEST PUSH1 0x40 MLOAD PUSH2 0x100 SWAP2 SWAP1 PUSH2 0xBC4 JUMP JUMPDEST PUSH1 0x40 MLOAD DUP1 SWAP2 SUB SWAP1 RETURN JUMPDEST CALLVALUE DUP1 ISZERO PUSH2 0x115 JUMPI PUSH1 0x0 DUP1 REVERT JUMPDEST POP PUSH2 0x130 PUSH1 0x4 DUP1 CALLDATASIZE SUB DUP2 ADD SWAP1 PUSH2 0x12B SWAP2 SWAP1 PUSH2 0xBDF JUMP JUMPDEST PUSH2 0x561 JUMP JUMPDEST STOP JUMPDEST CALLVALUE DUP1 ISZERO PUSH2 0x13E JUMPI PUSH1 0x0 DUP1 REVERT JUMPDEST POP PUSH2 0x159 PUSH1 0x4 DUP1 CALLDATASIZE SUB DUP2 ADD SWAP1 PUSH2 0x154 SWAP2 SWAP1 PUSH2 0x91B JUMP JUMPDEST PUSH2 0x7BC JUMP JUMPDEST PUSH1 0x40 MLOAD PUSH2 0x166 SWAP2 SWAP1 PUSH2 0x957 JUMP JUMPDEST PUSH1 0x40 MLOAD DUP1 SWAP2 SUB SWAP1 RETURN JUMPDEST PUSH1 0x2 DUP2 DUP2 SLOAD DUP2 LT PUSH2 0x17F JUMPI PUSH1 0x0 DUP1 REVERT JUMPDEST SWAP1 PUSH1 0x0 MSTORE PUSH1 0x20 PUSH1 0x0 KECCAK256 ADD PUSH1 0x0 SWAP2 POP SWAP1 POP SLOAD DUP2 JUMP JUMPDEST PUSH1 0x0 DUP1 PUSH1 0x0 SWAP1 SLOAD SWAP1 PUSH2 0x100 EXP SWAP1 DIV PUSH20 0xFFFFFFFFFFFFFFFFFFFFFFFFFFFFFFFFFFFFFFFF AND PUSH20 0xFFFFFFFFFFFFFFFFFFFFFFFFFFFFFFFFFFFFFFFF AND PUSH4 0x6352211E DUP4 PUSH1 0x40 MLOAD DUP3 PUSH4 0xFFFFFFFF AND PUSH1 0xE0 SHL DUP2 MSTORE PUSH1 0x4 ADD PUSH2 0x1EF SWAP2 SWAP1 PUSH2 0x957 JUMP JUMPDEST PUSH1 0x20 PUSH1 0x40 MLOAD DUP1 DUP4 SUB DUP2 DUP7 GAS STATICCALL ISZERO DUP1 ISZERO PUSH2 0x20C JUMPI RETURNDATASIZE PUSH1 0x0 DUP1 RETURNDATACOPY RETURNDATASIZE PUSH1 0x0 REVERT JUMPDEST POP POP POP POP PUSH1 0x40 MLOAD RETURNDATASIZE PUSH1 0x1F NOT PUSH1 0x1F DUP3 ADD AND DUP3 ADD DUP1 PUSH1 0x40 MSTORE POP DUP2 ADD SWAP1 PUSH2 0x230 SWAP2 SWAP1 PUSH2 0xC5D JUMP JUMPDEST SWAP1 POP CALLER PUSH20 0xFFFFFFFFFFFFFFFFFFFFFFFFFFFFFFFFFFFFFFFF AND DUP2 PUSH20 0xFFFFFFFFFFFFFFFFFFFFFFFFFFFFFFFFFFFFFFFF AND SUB PUSH2 0x26A JUMPI PUSH1 0x0 DUP1 REVERT JUMPDEST CALLVALUE PUSH1 0x1 PUSH1 0x0 DUP5 DUP2 MSTORE PUSH1 0x20 ADD SWAP1 DUP2 MSTORE PUSH1 0x20 ADD PUSH1 0x0 KECCAK256 SLOAD EQ PUSH2 0x289 JUMPI PUSH1 0x0 DUP1 REVERT JUMPDEST DUP1 PUSH20 0xFFFFFFFFFFFFFFFFFFFFFFFFFFFFFFFFFFFFFFFF AND PUSH2 0x8FC CALLVALUE SWAP1 DUP2 ISZERO MUL SWAP1 PUSH1 0x40 MLOAD PUSH1 0x0 PUSH1 0x40 MLOAD DUP1 DUP4 SUB DUP2 DUP6 DUP9 DUP9 CALL SWAP4 POP POP POP POP ISZERO DUP1 ISZERO PUSH2 0x2CF JUMPI RETURNDATASIZE PUSH1 0x0 DUP1 RETURNDATACOPY RETURNDATASIZE PUSH1 0x0 REVERT JUMPDEST POP PUSH1 0x0 DUP1 SLOAD SWAP1 PUSH2 0x100 EXP SWAP1 DIV PUSH20 0xFFFFFFFFFFFFFFFFFFFFFFFFFFFFFFFFFFFFFFFF AND PUSH20 0xFFFFFFFFFFFFFFFFFFFFFFFFFFFFFFFFFFFFFFFF AND PUSH4 0x23B872DD DUP3 CALLER DUP6 PUSH1 0x40 MLOAD DUP5 PUSH4 0xFFFFFFFF AND PUSH1 0xE0 SHL DUP2 MSTORE PUSH1 0x4 ADD PUSH2 0x32D SWAP4 SWAP3 SWAP2 SWAP1 PUSH2 0xC99 JUMP JUMPDEST PUSH1 0x0 PUSH1 0x40 MLOAD DUP1 DUP4 SUB DUP2 PUSH1 0x0 DUP8 DUP1 EXTCODESIZE ISZERO DUP1 ISZERO PUSH2 0x347 JUMPI PUSH1 0x0 DUP1 REVERT JUMPDEST POP GAS CALL ISZERO DUP1 ISZERO PUSH2 0x35B JUMPI RETURNDATASIZE PUSH1 0x0 DUP1 RETURNDATACOPY RETURNDATASIZE PUSH1 0x0 REVERT JUMPDEST POP POP POP POP PUSH1 0x0 PUSH1 0x1 PUSH1 0x0 DUP5 DUP2 MSTORE PUSH1 0x20 ADD SWAP1 DUP2 MSTORE PUSH1 0x20 ADD PUSH1 0x0 KECCAK256 DUP2 SWAP1 SSTORE POP PUSH2 0x381 DUP3 PUSH2 0x7D4 JUMP JUMPDEST POP POP POP JUMP JUMPDEST PUSH1 0x60 PUSH1 0x0 PUSH1 0x2 DUP1 SLOAD SWAP1 POP GT PUSH2 0x39A JUMPI PUSH1 0x0 DUP1 REVERT JUMPDEST PUSH1 0x0 PUSH1 0x2 DUP1 SLOAD SWAP1 POP PUSH8 0xFFFFFFFFFFFFFFFF DUP2 GT ISZERO PUSH2 0x3BB JUMPI PUSH2 0x3BA PUSH2 0xCD0 JUMP JUMPDEST JUMPDEST PUSH1 0x40 MLOAD SWAP1 DUP1 DUP3 MSTORE DUP1 PUSH1 0x20 MUL PUSH1 0x20 ADD DUP3 ADD PUSH1 0x40 MSTORE DUP1 ISZERO PUSH2 0x3F4 JUMPI DUP2 PUSH1 0x20 ADD JUMPDEST PUSH2 0x3E1 PUSH2 0x8B0 JUMP JUMPDEST DUP2 MSTORE PUSH1 0x20 ADD SWAP1 PUSH1 0x1 SWAP1 SUB SWAP1 DUP2 PUSH2 0x3D9 JUMPI SWAP1 POP JUMPDEST POP SWAP1 POP PUSH1 0x0 JUMPDEST PUSH1 0x2 DUP1 SLOAD SWAP1 POP DUP2 LT ISZERO PUSH2 0x535 JUMPI PUSH1 0x0 PUSH1 0x2 DUP3 DUP2 SLOAD DUP2 LT PUSH2 0x41D JUMPI PUSH2 0x41C PUSH2 0xCFF JUMP JUMPDEST JUMPDEST SWAP1 PUSH1 0x0 MSTORE PUSH1 0x20 PUSH1 0x0 KECCAK256 ADD SLOAD SWAP1 POP PUSH1 0x0 PUSH1 0x1 PUSH1 0x0 DUP4 DUP2 MSTORE PUSH1 0x20 ADD SWAP1 DUP2 MSTORE PUSH1 0x20 ADD PUSH1 0x0 KECCAK256 SLOAD SWAP1 POP PUSH1 0x0 DUP1 PUSH1 0x0 SWAP1 SLOAD SWAP1 PUSH2 0x100 EXP SWAP1 DIV PUSH20 0xFFFFFFFFFFFFFFFFFFFFFFFFFFFFFFFFFFFFFFFF AND PUSH20 0xFFFFFFFFFFFFFFFFFFFFFFFFFFFFFFFFFFFFFFFF AND PUSH4 0xC87B56DD DUP5 PUSH1 0x40 MLOAD DUP3 PUSH4 0xFFFFFFFF AND PUSH1 0xE0 SHL DUP2 MSTORE PUSH1 0x4 ADD PUSH2 0x49E SWAP2 SWAP1 PUSH2 0x957 JUMP JUMPDEST PUSH1 0x0 PUSH1 0x40 MLOAD DUP1 DUP4 SUB DUP2 DUP7 GAS STATICCALL ISZERO DUP1 ISZERO PUSH2 0x4BB JUMPI RETURNDATASIZE PUSH1 0x0 DUP1 RETURNDATACOPY RETURNDATASIZE PUSH1 0x0 REVERT JUMPDEST POP POP POP POP PUSH1 0x40 MLOAD RETURNDATASIZE PUSH1 0x0 DUP3 RETURNDATACOPY RETURNDATASIZE PUSH1 0x1F NOT PUSH1 0x1F DUP3 ADD AND DUP3 ADD DUP1 PUSH1 0x40 MSTORE POP DUP2 ADD SWAP1 PUSH2 0x4E4 SWAP2 SWAP1 PUSH2 0xE25 JUMP JUMPDEST SWAP1 POP PUSH1 0x40 MLOAD DUP1 PUSH1 0x60 ADD PUSH1 0x40 MSTORE DUP1 DUP5 DUP2 MSTORE PUSH1 0x20 ADD DUP4 DUP2 MSTORE PUSH1 0x20 ADD DUP3 DUP2 MSTORE POP DUP6 DUP6 DUP2 MLOAD DUP2 LT PUSH2 0x514 JUMPI PUSH2 0x513 PUSH2 0xCFF JUMP JUMPDEST JUMPDEST PUSH1 0x20 MUL PUSH1 0x20 ADD ADD DUP2 SWAP1 MSTORE POP POP POP POP DUP1 DUP1 PUSH2 0x52D SWAP1 PUSH2 0xE9D JUMP JUMPDEST SWAP2 POP POP PUSH2 0x3FA JUMP JUMPDEST POP DUP1 SWAP2 POP POP SWAP1 JUMP JUMPDEST PUSH1 0x0 DUP1 SLOAD SWAP1 PUSH2 0x100 EXP SWAP1 DIV PUSH20 0xFFFFFFFFFFFFFFFFFFFFFFFFFFFFFFFFFFFFFFFF AND DUP2 JUMP JUMPDEST PUSH1 0x0 DUP1 PUSH1 0x0 SWAP1 SLOAD SWAP1 PUSH2 0x100 EXP SWAP1 DIV PUSH20 0xFFFFFFFFFFFFFFFFFFFFFFFFFFFFFFFFFFFFFFFF AND PUSH20 0xFFFFFFFFFFFFFFFFFFFFFFFFFFFFFFFFFFFFFFFF AND PUSH4 0x6352211E DUP5 PUSH1 0x40 MLOAD DUP3 PUSH4 0xFFFFFFFF AND PUSH1 0xE0 SHL DUP2 MSTORE PUSH1 0x4 ADD PUSH2 0x5BD SWAP2 SWAP1 PUSH2 0x957 JUMP JUMPDEST PUSH1 0x20 PUSH1 0x40 MLOAD DUP1 DUP4 SUB DUP2 DUP7 GAS STATICCALL ISZERO DUP1 ISZERO PUSH2 0x5DA JUMPI RETURNDATASIZE PUSH1 0x0 DUP1 RETURNDATACOPY RETURNDATASIZE PUSH1 0x0 REVERT JUMPDEST POP POP POP POP PUSH1 0x40 MLOAD RETURNDATASIZE PUSH1 0x1F NOT PUSH1 0x1F DUP3 ADD AND DUP3 ADD DUP1 PUSH1 0x40 MSTORE POP DUP2 ADD SWAP1 PUSH2 0x5FE SWAP2 SWAP1 PUSH2 0xC5D JUMP JUMPDEST SWAP1 POP CALLER PUSH20 0xFFFFFFFFFFFFFFFFFFFFFFFFFFFFFFFFFFFFFFFF AND DUP2 PUSH20 0xFFFFFFFFFFFFFFFFFFFFFFFFFFFFFFFFFFFFFFFF AND EQ PUSH2 0x66E JUMPI PUSH1 0x40 MLOAD PUSH32 0x8C379A000000000000000000000000000000000000000000000000000000000 DUP2 MSTORE PUSH1 0x4 ADD PUSH2 0x665 SWAP1 PUSH2 0xF42 JUMP JUMPDEST PUSH1 0x40 MLOAD DUP1 SWAP2 SUB SWAP1 REVERT JUMPDEST PUSH1 0x0 DUP3 GT PUSH2 0x67B JUMPI PUSH1 0x0 DUP1 REVERT JUMPDEST PUSH1 0x0 PUSH1 0x1 PUSH1 0x0 DUP6 DUP2 MSTORE PUSH1 0x20 ADD SWAP1 DUP2 MSTORE PUSH1 0x20 ADD PUSH1 0x0 KECCAK256 SLOAD EQ PUSH2 0x6D1 JUMPI PUSH1 0x40 MLOAD PUSH32 0x8C379A000000000000000000000000000000000000000000000000000000000 DUP2 MSTORE PUSH1 0x4 ADD PUSH2 0x6C8 SWAP1 PUSH2 0xFAE JUMP JUMPDEST PUSH1 0x40 MLOAD DUP1 SWAP2 SUB SWAP1 REVERT JUMPDEST PUSH1 0x0 DUP1 SLOAD SWAP1 PUSH2 0x100 EXP SWAP1 DIV PUSH20 0xFFFFFFFFFFFFFFFFFFFFFFFFFFFFFFFFFFFFFFFF AND PUSH20 0xFFFFFFFFFFFFFFFFFFFFFFFFFFFFFFFFFFFFFFFF AND PUSH4 0xE985E9C5 CALLER ADDRESS PUSH1 0x40 MLOAD DUP4 PUSH4 0xFFFFFFFF AND PUSH1 0xE0 SHL DUP2 MSTORE PUSH1 0x4 ADD PUSH2 0x72C SWAP3 SWAP2 SWAP1 PUSH2 0xFCE JUMP JUMPDEST PUSH1 0x20 PUSH1 0x40 MLOAD DUP1 DUP4 SUB DUP2 DUP7 GAS STATICCALL ISZERO DUP1 ISZERO PUSH2 0x749 JUMPI RETURNDATASIZE PUSH1 0x0 DUP1 RETURNDATACOPY RETURNDATASIZE PUSH1 0x0 REVERT JUMPDEST POP POP POP POP PUSH1 0x40 MLOAD RETURNDATASIZE PUSH1 0x1F NOT PUSH1 0x1F DUP3 ADD AND DUP3 ADD DUP1 PUSH1 0x40 MSTORE POP DUP2 ADD SWAP1 PUSH2 0x76D SWAP2 SWAP1 PUSH2 0x102F JUMP JUMPDEST PUSH2 0x776 JUMPI PUSH1 0x0 DUP1 REVERT JUMPDEST DUP2 PUSH1 0x1 PUSH1 0x0 DUP6 DUP2 MSTORE PUSH1 0x20 ADD SWAP1 DUP2 MSTORE PUSH1 0x20 ADD PUSH1 0x0 KECCAK256 DUP2 SWAP1 SSTORE POP PUSH1 0x2 DUP4 SWAP1 DUP1 PUSH1 0x1 DUP2 SLOAD ADD DUP1 DUP3 SSTORE DUP1 SWAP2 POP POP PUSH1 0x1 SWAP1 SUB SWAP1 PUSH1 0x0 MSTORE PUSH1 0x20 PUSH1 0x0 KECCAK256 ADD PUSH1 0x0 SWAP1 SWAP2 SWAP1 SWAP2 SWAP1 SWAP2 POP SSTORE POP POP POP JUMP JUMPDEST PUSH1 0x1 PUSH1 0x20 MSTORE DUP1 PUSH1 0x0 MSTORE PUSH1 0x40 PUSH1 0x0 KECCAK256 PUSH1 0x0 SWAP2 POP SWAP1 POP SLOAD DUP2 JUMP JUMPDEST PUSH1 0x0 DUP1 PUSH1 0x0 SWAP1 POP JUMPDEST PUSH1 0x2 DUP1 SLOAD SWAP1 POP DUP2 LT ISZERO PUSH2 0x8A5 JUMPI DUP3 PUSH1 0x2 DUP3 DUP2 SLOAD DUP2 LT PUSH2 0x7FE JUMPI PUSH2 0x7FD PUSH2 0xCFF JUMP JUMPDEST JUMPDEST SWAP1 PUSH1 0x0 MSTORE PUSH1 0x20 PUSH1 0x0 KECCAK256 ADD SLOAD SUB PUSH2 0x892 JUMPI PUSH1 0x2 PUSH1 0x1 PUSH1 0x2 DUP1 SLOAD SWAP1 POP PUSH2 0x822 SWAP2 SWAP1 PUSH2 0x105C JUMP JUMPDEST DUP2 SLOAD DUP2 LT PUSH2 0x833 JUMPI PUSH2 0x832 PUSH2 0xCFF JUMP JUMPDEST JUMPDEST SWAP1 PUSH1 0x0 MSTORE PUSH1 0x20 PUSH1 0x0 KECCAK256 ADD SLOAD PUSH1 0x2 DUP3 DUP2 SLOAD DUP2 LT PUSH2 0x852 JUMPI PUSH2 0x851 PUSH2 0xCFF JUMP JUMPDEST JUMPDEST SWAP1 PUSH1 0x0 MSTORE PUSH1 0x20 PUSH1 0x0 KECCAK256 ADD DUP2 SWAP1 SSTORE POP PUSH1 0x2 DUP1 SLOAD DUP1 PUSH2 0x872 JUMPI PUSH2 0x871 PUSH2 0x1090 JUMP JUMPDEST JUMPDEST PUSH1 0x1 SWAP1 SUB DUP2 DUP2 SWAP1 PUSH1 0x0 MSTORE PUSH1 0x20 PUSH1 0x0 KECCAK256 ADD PUSH1 0x0 SWAP1 SSTORE SWAP1 SSTORE PUSH1 0x1 SWAP2 POP POP PUSH2 0x8AB JUMP JUMPDEST DUP1 DUP1 PUSH2 0x89D SWAP1 PUSH2 0xE9D JUMP JUMPDEST SWAP2 POP POP PUSH2 0x7DC JUMP JUMPDEST POP PUSH1 0x0 SWAP1 POP JUMPDEST SWAP2 SWAP1 POP JUMP JUMPDEST PUSH1 0x40 MLOAD DUP1 PUSH1 0x60 ADD PUSH1 0x40 MSTORE DUP1 PUSH1 0x0 DUP2 MSTORE PUSH1 0x20 ADD PUSH1 0x0 DUP2 MSTORE PUSH1 0x20 ADD PUSH1 0x60 DUP2 MSTORE POP SWAP1 JUMP JUMPDEST PUSH1 0x0 PUSH1 0x40 MLOAD SWAP1 POP SWAP1 JUMP JUMPDEST PUSH1 0x0 DUP1 REVERT JUMPDEST PUSH1 0x0 DUP1 REVERT JUMPDEST PUSH1 0x0 DUP2 SWAP1 POP SWAP2 SWAP1 POP JUMP JUMPDEST PUSH2 0x8F8 DUP2 PUSH2 0x8E5 JUMP JUMPDEST DUP2 EQ PUSH2 0x903 JUMPI PUSH1 0x0 DUP1 REVERT JUMPDEST POP JUMP JUMPDEST PUSH1 0x0 DUP2 CALLDATALOAD SWAP1 POP PUSH2 0x915 DUP2 PUSH2 0x8EF JUMP JUMPDEST SWAP3 SWAP2 POP POP JUMP JUMPDEST PUSH1 0x0 PUSH1 0x20 DUP3 DUP5 SUB SLT ISZERO PUSH2 0x931 JUMPI PUSH2 0x930 PUSH2 0x8DB JUMP JUMPDEST JUMPDEST PUSH1 0x0 PUSH2 0x93F DUP5 DUP3 DUP6 ADD PUSH2 0x906 JUMP JUMPDEST SWAP2 POP POP SWAP3 SWAP2 POP POP JUMP JUMPDEST PUSH2 0x951 DUP2 PUSH2 0x8E5 JUMP JUMPDEST DUP3 MSTORE POP POP JUMP JUMPDEST PUSH1 0x0 PUSH1 0x20 DUP3 ADD SWAP1 POP PUSH2 0x96C PUSH1 0x0 DUP4 ADD DUP5 PUSH2 0x948 JUMP JUMPDEST SWAP3 SWAP2 POP POP JUMP JUMPDEST PUSH1 0x0 DUP2 MLOAD SWAP1 POP SWAP2 SWAP1 POP JUMP JUMPDEST PUSH1 0x0 DUP3 DUP3 MSTORE PUSH1 0x20 DUP3 ADD SWAP1 POP SWAP3 SWAP2 POP POP JUMP JUMPDEST PUSH1 0x0 DUP2 SWAP1 POP PUSH1 0x20 DUP3 ADD SWAP1 POP SWAP2 SWAP1 POP JUMP JUMPDEST PUSH2 0x9A7 DUP2 PUSH2 0x8E5 JUMP JUMPDEST DUP3 MSTORE POP POP JUMP JUMPDEST PUSH1 0x0 DUP2 MLOAD SWAP1 POP SWAP2 SWAP1 POP JUMP JUMPDEST PUSH1 0x0 DUP3 DUP3 MSTORE PUSH1 0x20 DUP3 ADD SWAP1 POP SWAP3 SWAP2 POP POP JUMP JUMPDEST PUSH1 0x0 JUMPDEST DUP4 DUP2 LT ISZERO PUSH2 0x9E7 JUMPI DUP1 DUP3 ADD MLOAD DUP2 DUP5 ADD MSTORE PUSH1 0x20 DUP2 ADD SWAP1 POP PUSH2 0x9CC JUMP JUMPDEST PUSH1 0x0 DUP5 DUP5 ADD MSTORE POP POP POP POP JUMP JUMPDEST PUSH1 0x0 PUSH1 0x1F NOT PUSH1 0x1F DUP4 ADD AND SWAP1 POP SWAP2 SWAP1 POP JUMP JUMPDEST PUSH1 0x0 PUSH2 0xA0F DUP3 PUSH2 0x9AD JUMP JUMPDEST PUSH2 0xA19 DUP2 DUP6 PUSH2 0x9B8 JUMP JUMPDEST SWAP4 POP PUSH2 0xA29 DUP2 DUP6 PUSH1 0x20 DUP7 ADD PUSH2 0x9C9 JUMP JUMPDEST PUSH2 0xA32 DUP2 PUSH2 0x9F3 JUMP JUMPDEST DUP5 ADD SWAP2 POP POP SWAP3 SWAP2 POP POP JUMP JUMPDEST PUSH1 0x0 PUSH1 0x60 DUP4 ADD PUSH1 0x0 DUP4 ADD MLOAD PUSH2 0xA55 PUSH1 0x0 DUP7 ADD DUP3 PUSH2 0x99E JUMP JUMPDEST POP PUSH1 0x20 DUP4 ADD MLOAD PUSH2 0xA68 PUSH1 0x20 DUP7 ADD DUP3 PUSH2 0x99E JUMP JUMPDEST POP PUSH1 0x40 DUP4 ADD MLOAD DUP5 DUP3 SUB PUSH1 0x40 DUP7 ADD MSTORE PUSH2 0xA80 DUP3 DUP3 PUSH2 0xA04 JUMP JUMPDEST SWAP2 POP POP DUP1 SWAP2 POP POP SWAP3 SWAP2 POP POP JUMP JUMPDEST PUSH1 0x0 PUSH2 0xA99 DUP4 DUP4 PUSH2 0xA3D JUMP JUMPDEST SWAP1 POP SWAP3 SWAP2 POP POP JUMP JUMPDEST PUSH1 0x0 PUSH1 0x20 DUP3 ADD SWAP1 POP SWAP2 SWAP1 POP JUMP JUMPDEST PUSH1 0x0 PUSH2 0xAB9 DUP3 PUSH2 0x972 JUMP JUMPDEST PUSH2 0xAC3 DUP2 DUP6 PUSH2 0x97D JUMP JUMPDEST SWAP4 POP DUP4 PUSH1 0x20 DUP3 MUL DUP6 ADD PUSH2 0xAD5 DUP6 PUSH2 0x98E JUMP JUMPDEST DUP1 PUSH1 0x0 JUMPDEST DUP6 DUP2 LT ISZERO PUSH2 0xB11 JUMPI DUP5 DUP5 SUB DUP10 MSTORE DUP2 MLOAD PUSH2 0xAF2 DUP6 DUP3 PUSH2 0xA8D JUMP JUMPDEST SWAP5 POP PUSH2 0xAFD DUP4 PUSH2 0xAA1 JUMP JUMPDEST SWAP3 POP PUSH1 0x20 DUP11 ADD SWAP10 POP POP PUSH1 0x1 DUP2 ADD SWAP1 POP PUSH2 0xAD9 JUMP JUMPDEST POP DUP3 SWAP8 POP DUP8 SWAP6 POP POP POP POP POP POP SWAP3 SWAP2 POP POP JUMP JUMPDEST PUSH1 0x0 PUSH1 0x20 DUP3 ADD SWAP1 POP DUP2 DUP2 SUB PUSH1 0x0 DUP4 ADD MSTORE PUSH2 0xB3D DUP2 DUP5 PUSH2 0xAAE JUMP JUMPDEST SWAP1 POP SWAP3 SWAP2 POP POP JUMP JUMPDEST PUSH1 0x0 PUSH20 0xFFFFFFFFFFFFFFFFFFFFFFFFFFFFFFFFFFFFFFFF DUP3 AND SWAP1 POP SWAP2 SWAP1 POP JUMP JUMPDEST PUSH1 0x0 DUP2 SWAP1 POP SWAP2 SWAP1 POP JUMP JUMPDEST PUSH1 0x0 PUSH2 0xB8A PUSH2 0xB85 PUSH2 0xB80 DUP5 PUSH2 0xB45 JUMP JUMPDEST PUSH2 0xB65 JUMP JUMPDEST PUSH2 0xB45 JUMP JUMPDEST SWAP1 POP SWAP2 SWAP1 POP JUMP JUMPDEST PUSH1 0x0 PUSH2 0xB9C DUP3 PUSH2 0xB6F JUMP JUMPDEST SWAP1 POP SWAP2 SWAP1 POP JUMP JUMPDEST PUSH1 0x0 PUSH2 0xBAE DUP3 PUSH2 0xB91 JUMP JUMPDEST SWAP1 POP SWAP2 SWAP1 POP JUMP JUMPDEST PUSH2 0xBBE DUP2 PUSH2 0xBA3 JUMP JUMPDEST DUP3 MSTORE POP POP JUMP JUMPDEST PUSH1 0x0 PUSH1 0x20 DUP3 ADD SWAP1 POP PUSH2 0xBD9 PUSH1 0x0 DUP4 ADD DUP5 PUSH2 0xBB5 JUMP JUMPDEST SWAP3 SWAP2 POP POP JUMP JUMPDEST PUSH1 0x0 DUP1 PUSH1 0x40 DUP4 DUP6 SUB SLT ISZERO PUSH2 0xBF6 JUMPI PUSH2 0xBF5 PUSH2 0x8DB JUMP JUMPDEST JUMPDEST PUSH1 0x0 PUSH2 0xC04 DUP6 DUP3 DUP7 ADD PUSH2 0x906 JUMP JUMPDEST SWAP3 POP POP PUSH1 0x20 PUSH2 0xC15 DUP6 DUP3 DUP7 ADD PUSH2 0x906 JUMP JUMPDEST SWAP2 POP POP SWAP3 POP SWAP3 SWAP1 POP JUMP JUMPDEST PUSH1 0x0 PUSH2 0xC2A DUP3 PUSH2 0xB45 JUMP JUMPDEST SWAP1 POP SWAP2 SWAP1 POP JUMP JUMPDEST PUSH2 0xC3A DUP2 PUSH2 0xC1F JUMP JUMPDEST DUP2 EQ PUSH2 0xC45 JUMPI PUSH1 0x0 DUP1 REVERT JUMPDEST POP JUMP JUMPDEST PUSH1 0x0 DUP2 MLOAD SWAP1 POP PUSH2 0xC57 DUP2 PUSH2 0xC31 JUMP JUMPDEST SWAP3 SWAP2 POP POP JUMP JUMPDEST PUSH1 0x0 PUSH1 0x20 DUP3 DUP5 SUB SLT ISZERO PUSH2 0xC73 JUMPI PUSH2 0xC72 PUSH2 0x8DB JUMP JUMPDEST JUMPDEST PUSH1 0x0 PUSH2 0xC81 DUP5 DUP3 DUP6 ADD PUSH2 0xC48 JUMP JUMPDEST SWAP2 POP POP SWAP3 SWAP2 POP POP JUMP JUMPDEST PUSH2 0xC93 DUP2 PUSH2 0xC1F JUMP JUMPDEST DUP3 MSTORE POP POP JUMP JUMPDEST PUSH1 0x0 PUSH1 0x60 DUP3 ADD SWAP1 POP PUSH2 0xCAE PUSH1 0x0 DUP4 ADD DUP7 PUSH2 0xC8A JUMP JUMPDEST PUSH2 0xCBB PUSH1 0x20 DUP4 ADD DUP6 PUSH2 0xC8A JUMP JUMPDEST PUSH2 0xCC8 PUSH1 0x40 DUP4 ADD DUP5 PUSH2 0x948 JUMP JUMPDEST SWAP5 SWAP4 POP POP POP POP JUMP JUMPDEST PUSH32 0x4E487B7100000000000000000000000000000000000000000000000000000000 PUSH1 0x0 MSTORE PUSH1 0x41 PUSH1 0x4 MSTORE PUSH1 0x24 PUSH1 0x0 REVERT JUMPDEST PUSH32 0x4E487B7100000000000000000000000000000000000000000000000000000000 PUSH1 0x0 MSTORE PUSH1 0x32 PUSH1 0x4 MSTORE PUSH1 0x24 PUSH1 0x0 REVERT JUMPDEST PUSH1 0x0 DUP1 REVERT JUMPDEST PUSH1 0x0 DUP1 REVERT JUMPDEST PUSH2 0xD41 DUP3 PUSH2 0x9F3 JUMP JUMPDEST DUP2 ADD DUP2 DUP2 LT PUSH8 0xFFFFFFFFFFFFFFFF DUP3 GT OR ISZERO PUSH2 0xD60 JUMPI PUSH2 0xD5F PUSH2 0xCD0 JUMP JUMPDEST JUMPDEST DUP1 PUSH1 0x40 MSTORE POP POP POP JUMP JUMPDEST PUSH1 0x0 PUSH2 0xD73 PUSH2 0x8D1 JUMP JUMPDEST SWAP1 POP PUSH2 0xD7F DUP3 DUP3 PUSH2 0xD38 JUMP JUMPDEST SWAP2 SWAP1 POP JUMP JUMPDEST PUSH1 0x0 PUSH8 0xFFFFFFFFFFFFFFFF DUP3 GT ISZERO PUSH2 0xD9F JUMPI PUSH2 0xD9E PUSH2 0xCD0 JUMP JUMPDEST JUMPDEST PUSH2 0xDA8 DUP3 PUSH2 0x9F3 JUMP JUMPDEST SWAP1 POP PUSH1 0x20 DUP2 ADD SWAP1 POP SWAP2 SWAP1 POP JUMP JUMPDEST PUSH1 0x0 PUSH2 0xDC8 PUSH2 0xDC3 DUP5 PUSH2 0xD84 JUMP JUMPDEST PUSH2 0xD69 JUMP JUMPDEST SWAP1 POP DUP3 DUP2 MSTORE PUSH1 0x20 DUP2 ADD DUP5 DUP5 DUP5 ADD GT ISZERO PUSH2 0xDE4 JUMPI PUSH2 0xDE3 PUSH2 0xD33 JUMP JUMPDEST JUMPDEST PUSH2 0xDEF DUP5 DUP3 DUP6 PUSH2 0x9C9 JUMP JUMPDEST POP SWAP4 SWAP3 POP POP POP JUMP JUMPDEST PUSH1 0x0 DUP3 PUSH1 0x1F DUP4 ADD SLT PUSH2 0xE0C JUMPI PUSH2 0xE0B PUSH2 0xD2E JUMP JUMPDEST JUMPDEST DUP2 MLOAD PUSH2 0xE1C DUP5 DUP3 PUSH1 0x20 DUP7 ADD PUSH2 0xDB5 JUMP JUMPDEST SWAP2 POP POP SWAP3 SWAP2 POP POP JUMP JUMPDEST PUSH1 0x0 PUSH1 0x20 DUP3 DUP5 SUB SLT ISZERO PUSH2 0xE3B JUMPI PUSH2 0xE3A PUSH2 0x8DB JUMP JUMPDEST JUMPDEST PUSH1 0x0 DUP3 ADD MLOAD PUSH8 0xFFFFFFFFFFFFFFFF DUP2 GT ISZERO PUSH2 0xE59 JUMPI PUSH2 0xE58 PUSH2 0x8E0 JUMP JUMPDEST JUMPDEST PUSH2 0xE65 DUP5 DUP3 DUP6 ADD PUSH2 0xDF7 JUMP JUMPDEST SWAP2 POP POP SWAP3 SWAP2 POP POP JUMP JUMPDEST PUSH32 0x4E487B7100000000000000000000000000000000000000000000000000000000 PUSH1 0x0 MSTORE PUSH1 0x11 PUSH1 0x4 MSTORE PUSH1 0x24 PUSH1 0x0 REVERT JUMPDEST PUSH1 0x0 PUSH2 0xEA8 DUP3 PUSH2 0x8E5 JUMP JUMPDEST SWAP2 POP PUSH32 0xFFFFFFFFFFFFFFFFFFFFFFFFFFFFFFFFFFFFFFFFFFFFFFFFFFFFFFFFFFFFFFFF DUP3 SUB PUSH2 0xEDA JUMPI PUSH2 0xED9 PUSH2 0xE6E JUMP JUMPDEST JUMPDEST PUSH1 0x1 DUP3 ADD SWAP1 POP SWAP2 SWAP1 POP JUMP JUMPDEST PUSH1 0x0 DUP3 DUP3 MSTORE PUSH1 0x20 DUP3 ADD SWAP1 POP SWAP3 SWAP2 POP POP JUMP JUMPDEST PUSH32 0x796F7520617265206E6F74204E4654206F776E65720000000000000000000000 PUSH1 0x0 DUP3 ADD MSTORE POP JUMP JUMPDEST PUSH1 0x0 PUSH2 0xF2C PUSH1 0x15 DUP4 PUSH2 0xEE5 JUMP JUMPDEST SWAP2 POP PUSH2 0xF37 DUP3 PUSH2 0xEF6 JUMP JUMPDEST PUSH1 0x20 DUP3 ADD SWAP1 POP SWAP2 SWAP1 POP JUMP JUMPDEST PUSH1 0x0 PUSH1 0x20 DUP3 ADD SWAP1 POP DUP2 DUP2 SUB PUSH1 0x0 DUP4 ADD MSTORE PUSH2 0xF5B DUP2 PUSH2 0xF1F JUMP JUMPDEST SWAP1 POP SWAP2 SWAP1 POP JUMP JUMPDEST PUSH32 0x416C72656164792073616C650000000000000000000000000000000000000000 PUSH1 0x0 DUP3 ADD MSTORE POP JUMP JUMPDEST PUSH1 0x0 PUSH2 0xF98 PUSH1 0xC DUP4 PUSH2 0xEE5 JUMP JUMPDEST SWAP2 POP PUSH2 0xFA3 DUP3 PUSH2 0xF62 JUMP JUMPDEST PUSH1 0x20 DUP3 ADD SWAP1 POP SWAP2 SWAP1 POP JUMP JUMPDEST PUSH1 0x0 PUSH1 0x20 DUP3 ADD SWAP1 POP DUP2 DUP2 SUB PUSH1 0x0 DUP4 ADD MSTORE PUSH2 0xFC7 DUP2 PUSH2 0xF8B JUMP JUMPDEST SWAP1 POP SWAP2 SWAP1 POP JUMP JUMPDEST PUSH1 0x0 PUSH1 0x40 DUP3 ADD SWAP1 POP PUSH2 0xFE3 PUSH1 0x0 DUP4 ADD DUP6 PUSH2 0xC8A JUMP JUMPDEST PUSH2 0xFF0 PUSH1 0x20 DUP4 ADD DUP5 PUSH2 0xC8A JUMP JUMPDEST SWAP4 SWAP3 POP POP POP JUMP JUMPDEST PUSH1 0x0 DUP2 ISZERO ISZERO SWAP1 POP SWAP2 SWAP1 POP JUMP JUMPDEST PUSH2 0x100C DUP2 PUSH2 0xFF7 JUMP JUMPDEST DUP2 EQ PUSH2 0x1017 JUMPI PUSH1 0x0 DUP1 REVERT JUMPDEST POP JUMP JUMPDEST PUSH1 0x0 DUP2 MLOAD SWAP1 POP PUSH2 0x1029 DUP2 PUSH2 0x1003 JUMP JUMPDEST SWAP3 SWAP2 POP POP JUMP JUMPDEST PUSH1 0x0 PUSH1 0x20 DUP3 DUP5 SUB SLT ISZERO PUSH2 0x1045 JUMPI PUSH2 0x1044 PUSH2 0x8DB JUMP JUMPDEST JUMPDEST PUSH1 0x0 PUSH2 0x1053 DUP5 DUP3 DUP6 ADD PUSH2 0x101A JUMP JUMPDEST SWAP2 POP POP SWAP3 SWAP2 POP POP JUMP JUMPDEST PUSH1 0x0 PUSH2 0x1067 DUP3 PUSH2 0x8E5 JUMP JUMPDEST SWAP2 POP PUSH2 0x1072 DUP4 PUSH2 0x8E5 JUMP JUMPDEST SWAP3 POP DUP3 DUP3 SUB SWAP1 POP DUP2 DUP2 GT ISZERO PUSH2 0x108A JUMPI PUSH2 0x1089 PUSH2 0xE6E JUMP JUMPDEST JUMPDEST SWAP3 SWAP2 POP POP JUMP JUMPDEST PUSH32 0x4E487B7100000000000000000000000000000000000000000000000000000000 PUSH1 0x0 MSTORE PUSH1 0x31 PUSH1 0x4 MSTORE PUSH1 0x24 PUSH1 0x0 REVERT INVALID LOG2 PUSH5 0x6970667358 0x22 SLT KECCAK256 0xB2 CALLVALUE 0x5D 0xED COINBASE 0xB7 SUB 0xDC XOR 0x24 MSIZE 0x2E 0x2E PUSH7 0x7D0F3E6287BA9 0x24 0xEB CALLDATALOAD LOG4 SWAP3 0xAA 0xD1 0xFC GASLIMIT PUSH6 0x5164736F6C63 NUMBER STOP ADDMOD SLT STOP CALLER "
				},
				"gasEstimates": {
					"creation": {
						"codeDepositCost": "868200",
						"executionCost": "infinite",
						"totalCost": "infinite"
					},
					"external": {
						"NFT()": "infinite",
						"PurchaseToken(uint256)": "infinite",
						"SaleTokenList(uint256)": "infinite",
						"SalesToken(uint256,uint256)": "infinite",
						"getSaleTokenList()": "infinite",
						"tokenPrices(uint256)": "infinite"
					},
					"internal": {
						"popSaleToken(uint256)": "infinite"
					}
				},
				"methodIdentifiers": {
					"NFT()": "7c0b8de2",
					"PurchaseToken(uint256)": "3048f512",
					"SaleTokenList(uint256)": "0c8cc569",
					"SalesToken(uint256,uint256)": "921e033b",
					"getSaleTokenList()": "4e4dc988",
					"tokenPrices(uint256)": "e5afe3e6"
				}
			},
			"storageLayout": {
				"storage": [
					{
						"astId": 5,
						"contract": "contracts/Auction.sol:Auction",
						"label": "NFT",
						"offset": 0,
						"slot": "0",
						"type": "t_contract(ERC721)1197"
					},
					{
						"astId": 16,
						"contract": "contracts/Auction.sol:Auction",
						"label": "tokenPrices",
						"offset": 0,
						"slot": "1",
						"type": "t_mapping(t_uint256,t_uint256)"
					},
					{
						"astId": 19,
						"contract": "contracts/Auction.sol:Auction",
						"label": "SaleTokenList",
						"offset": 0,
						"slot": "2",
						"type": "t_array(t_uint256)dyn_storage"
					}
				],
				"types": {
					"t_array(t_uint256)dyn_storage": {
						"base": "t_uint256",
						"encoding": "dynamic_array",
						"label": "uint256[]",
						"numberOfBytes": "32"
					},
					"t_contract(ERC721)1197": {
						"encoding": "inplace",
						"label": "contract ERC721",
						"numberOfBytes": "20"
					},
					"t_mapping(t_uint256,t_uint256)": {
						"encoding": "mapping",
						"key": "t_uint256",
						"label": "mapping(uint256 => uint256)",
						"numberOfBytes": "32",
						"value": "t_uint256"
					},
					"t_uint256": {
						"encoding": "inplace",
						"label": "uint256",
						"numberOfBytes": "32"
					}
				}
			},
			"userdoc": {
				"kind": "user",
				"methods": {},
				"version": 1
			}
		}
	}
}